{
	"AnonymousVerifier.sol": {
		"AnonymousVerifier": {
			"abi": [
				{
					"inputs": [
						{
							"internalType": "bytes32",
							"name": "_merkleRoot",
							"type": "bytes32"
						}
					],
					"stateMutability": "nonpayable",
					"type": "constructor"
				},
				{
					"anonymous": false,
					"inputs": [
						{
							"indexed": true,
							"internalType": "bytes32",
							"name": "nullifier",
							"type": "bytes32"
						},
						{
							"indexed": true,
							"internalType": "address",
							"name": "user",
							"type": "address"
						}
					],
					"name": "Verified",
					"type": "event"
				},
				{
					"inputs": [],
					"name": "merkleRoot",
					"outputs": [
						{
							"internalType": "bytes32",
							"name": "",
							"type": "bytes32"
						}
					],
					"stateMutability": "view",
					"type": "function"
				},
				{
					"inputs": [
						{
							"internalType": "bytes32",
							"name": "",
							"type": "bytes32"
						}
					],
					"name": "nullifierUsed",
					"outputs": [
						{
							"internalType": "bool",
							"name": "",
							"type": "bool"
						}
					],
					"stateMutability": "view",
					"type": "function"
				},
				{
					"inputs": [
						{
							"internalType": "bytes32",
							"name": "_newRoot",
							"type": "bytes32"
						}
					],
					"name": "updateRoot",
					"outputs": [],
					"stateMutability": "nonpayable",
					"type": "function"
				},
				{
					"inputs": [
						{
							"internalType": "bytes32",
							"name": "nullifier",
							"type": "bytes32"
						},
						{
							"internalType": "bytes32[]",
							"name": "proof",
							"type": "bytes32[]"
						}
					],
					"name": "verifyMembership",
					"outputs": [],
					"stateMutability": "nonpayable",
					"type": "function"
				}
			],
			"devdoc": {
				"kind": "dev",
				"methods": {},
				"version": 1
			},
			"evm": {
				"assembly": "    /* \"AnonymousVerifier.sol\":60:1692  contract AnonymousVerifier {... */\n  mstore(0x40, 0x80)\n    /* \"AnonymousVerifier.sol\":338:414  constructor(bytes32 _merkleRoot) {... */\n  callvalue\n  dup1\n  iszero\n  tag_1\n  jumpi\n  revert(0x00, 0x00)\ntag_1:\n  pop\n  mload(0x40)\n  sub(codesize, bytecodeSize)\n  dup1\n  bytecodeSize\n  dup4\n  codecopy\n  dup2\n  dup2\n  add\n  0x40\n  mstore\n  dup2\n  add\n  swap1\n  tag_2\n  swap2\n  swap1\n  tag_3\n  jump\t// in\ntag_2:\n    /* \"AnonymousVerifier.sol\":395:406  _merkleRoot */\n  dup1\n    /* \"AnonymousVerifier.sol\":382:392  merkleRoot */\n  0x00\n    /* \"AnonymousVerifier.sol\":382:406  merkleRoot = _merkleRoot */\n  dup2\n  swap1\n  sstore\n  pop\n    /* \"AnonymousVerifier.sol\":338:414  constructor(bytes32 _merkleRoot) {... */\n  pop\n    /* \"AnonymousVerifier.sol\":60:1692  contract AnonymousVerifier {... */\n  jump(tag_6)\n    /* \"#utility.yul\":88:205   */\ntag_8:\n    /* \"#utility.yul\":197:198   */\n  0x00\n    /* \"#utility.yul\":194:195   */\n  0x00\n    /* \"#utility.yul\":187:199   */\n  revert\n    /* \"#utility.yul\":334:411   */\ntag_10:\n    /* \"#utility.yul\":371:378   */\n  0x00\n    /* \"#utility.yul\":400:405   */\n  dup2\n    /* \"#utility.yul\":389:405   */\n  swap1\n  pop\n    /* \"#utility.yul\":334:411   */\n  swap2\n  swap1\n  pop\n  jump\t// out\n    /* \"#utility.yul\":417:539   */\ntag_11:\n    /* \"#utility.yul\":490:514   */\n  tag_19\n    /* \"#utility.yul\":508:513   */\n  dup2\n    /* \"#utility.yul\":490:514   */\n  tag_10\n  jump\t// in\ntag_19:\n    /* \"#utility.yul\":483:488   */\n  dup2\n    /* \"#utility.yul\":480:515   */\n  eq\n    /* \"#utility.yul\":470:533   */\n  tag_20\n  jumpi\n    /* \"#utility.yul\":529:530   */\n  0x00\n    /* \"#utility.yul\":526:527   */\n  0x00\n    /* \"#utility.yul\":519:531   */\n  revert\n    /* \"#utility.yul\":470:533   */\ntag_20:\n    /* \"#utility.yul\":417:539   */\n  pop\n  jump\t// out\n    /* \"#utility.yul\":545:688   */\ntag_12:\n    /* \"#utility.yul\":602:607   */\n  0x00\n    /* \"#utility.yul\":633:639   */\n  dup2\n    /* \"#utility.yul\":627:640   */\n  mload\n    /* \"#utility.yul\":618:640   */\n  swap1\n  pop\n    /* \"#utility.yul\":649:682   */\n  tag_22\n    /* \"#utility.yul\":676:681   */\n  dup2\n    /* \"#utility.yul\":649:682   */\n  tag_11\n  jump\t// in\ntag_22:\n    /* \"#utility.yul\":545:688   */\n  swap3\n  swap2\n  pop\n  pop\n  jump\t// out\n    /* \"#utility.yul\":694:1045   */\ntag_3:\n    /* \"#utility.yul\":764:770   */\n  0x00\n    /* \"#utility.yul\":813:815   */\n  0x20\n    /* \"#utility.yul\":801:810   */\n  dup3\n    /* \"#utility.yul\":792:799   */\n  dup5\n    /* \"#utility.yul\":788:811   */\n  sub\n    /* \"#utility.yul\":784:816   */\n  slt\n    /* \"#utility.yul\":781:900   */\n  iszero\n  tag_24\n  jumpi\n    /* \"#utility.yul\":819:898   */\n  tag_25\n  tag_8\n  jump\t// in\ntag_25:\n    /* \"#utility.yul\":781:900   */\ntag_24:\n    /* \"#utility.yul\":939:940   */\n  0x00\n    /* \"#utility.yul\":964:1028   */\n  tag_26\n    /* \"#utility.yul\":1020:1027   */\n  dup5\n    /* \"#utility.yul\":1011:1017   */\n  dup3\n    /* \"#utility.yul\":1000:1009   */\n  dup6\n    /* \"#utility.yul\":996:1018   */\n  add\n    /* \"#utility.yul\":964:1028   */\n  tag_12\n  jump\t// in\ntag_26:\n    /* \"#utility.yul\":954:1028   */\n  swap2\n  pop\n    /* \"#utility.yul\":910:1038   */\n  pop\n    /* \"#utility.yul\":694:1045   */\n  swap3\n  swap2\n  pop\n  pop\n  jump\t// out\n    /* \"AnonymousVerifier.sol\":60:1692  contract AnonymousVerifier {... */\ntag_6:\n  dataSize(sub_0)\n  dup1\n  dataOffset(sub_0)\n  0x00\n  codecopy\n  0x00\n  return\nstop\n\nsub_0: assembly {\n        /* \"AnonymousVerifier.sol\":60:1692  contract AnonymousVerifier {... */\n      mstore(0x40, 0x80)\n      callvalue\n      dup1\n      iszero\n      tag_1\n      jumpi\n      revert(0x00, 0x00)\n    tag_1:\n      pop\n      jumpi(tag_2, lt(calldatasize, 0x04))\n      shr(0xe0, calldataload(0x00))\n      dup1\n      0x21ff9970\n      eq\n      tag_3\n      jumpi\n      dup1\n      0x2eb4a7ab\n      eq\n      tag_4\n      jumpi\n      dup1\n      0x7ecf686d\n      eq\n      tag_5\n      jumpi\n      dup1\n      0xe305d023\n      eq\n      tag_6\n      jumpi\n    tag_2:\n      revert(0x00, 0x00)\n        /* \"AnonymousVerifier.sol\":1602:1689  function updateRoot(bytes32 _newRoot) external {... */\n    tag_3:\n      tag_7\n      0x04\n      dup1\n      calldatasize\n      sub\n      dup2\n      add\n      swap1\n      tag_8\n      swap2\n      swap1\n      tag_9\n      jump\t// in\n    tag_8:\n      tag_10\n      jump\t// in\n    tag_7:\n      stop\n        /* \"AnonymousVerifier.sol\":94:119  bytes32 public merkleRoot */\n    tag_4:\n      tag_11\n      tag_12\n      jump\t// in\n    tag_11:\n      mload(0x40)\n      tag_13\n      swap2\n      swap1\n      tag_14\n      jump\t// in\n    tag_13:\n      mload(0x40)\n      dup1\n      swap2\n      sub\n      swap1\n      return\n        /* \"AnonymousVerifier.sol\":212:257  mapping(bytes32 => bool) public nullifierUsed */\n    tag_5:\n      tag_15\n      0x04\n      dup1\n      calldatasize\n      sub\n      dup2\n      add\n      swap1\n      tag_16\n      swap2\n      swap1\n      tag_9\n      jump\t// in\n    tag_16:\n      tag_17\n      jump\t// in\n    tag_15:\n      mload(0x40)\n      tag_18\n      swap2\n      swap1\n      tag_19\n      jump\t// in\n    tag_18:\n      mload(0x40)\n      dup1\n      swap2\n      sub\n      swap1\n      return\n        /* \"AnonymousVerifier.sol\":497:1533  function verifyMembership(... */\n    tag_6:\n      tag_20\n      0x04\n      dup1\n      calldatasize\n      sub\n      dup2\n      add\n      swap1\n      tag_21\n      swap2\n      swap1\n      tag_22\n      jump\t// in\n    tag_21:\n      tag_23\n      jump\t// in\n    tag_20:\n      stop\n        /* \"AnonymousVerifier.sol\":1602:1689  function updateRoot(bytes32 _newRoot) external {... */\n    tag_10:\n        /* \"AnonymousVerifier.sol\":1673:1681  _newRoot */\n      dup1\n        /* \"AnonymousVerifier.sol\":1660:1670  merkleRoot */\n      0x00\n        /* \"AnonymousVerifier.sol\":1660:1681  merkleRoot = _newRoot */\n      dup2\n      swap1\n      sstore\n      pop\n        /* \"AnonymousVerifier.sol\":1602:1689  function updateRoot(bytes32 _newRoot) external {... */\n      pop\n      jump\t// out\n        /* \"AnonymousVerifier.sol\":94:119  bytes32 public merkleRoot */\n    tag_12:\n      sload(0x00)\n      dup2\n      jump\t// out\n        /* \"AnonymousVerifier.sol\":212:257  mapping(bytes32 => bool) public nullifierUsed */\n    tag_17:\n      mstore(0x20, 0x01)\n      dup1\n      0x00\n      mstore\n      keccak256(0x00, 0x40)\n      0x00\n      swap2\n      pop\n      sload\n      swap1\n      0x0100\n      exp\n      swap1\n      div\n      0xff\n      and\n      dup2\n      jump\t// out\n        /* \"AnonymousVerifier.sol\":497:1533  function verifyMembership(... */\n    tag_23:\n        /* \"AnonymousVerifier.sol\":622:635  nullifierUsed */\n      0x01\n        /* \"AnonymousVerifier.sol\":622:646  nullifierUsed[nullifier] */\n      0x00\n        /* \"AnonymousVerifier.sol\":636:645  nullifier */\n      dup5\n        /* \"AnonymousVerifier.sol\":622:646  nullifierUsed[nullifier] */\n      dup2\n      mstore\n      0x20\n      add\n      swap1\n      dup2\n      mstore\n      0x20\n      add\n      0x00\n      keccak256\n      0x00\n      swap1\n      sload\n      swap1\n      0x0100\n      exp\n      swap1\n      div\n      0xff\n      and\n        /* \"AnonymousVerifier.sol\":621:646  !nullifierUsed[nullifier] */\n      iszero\n        /* \"AnonymousVerifier.sol\":613:679  require(!nullifierUsed[nullifier], \"Nullifier je vec iskoriscen!\") */\n      tag_26\n      jumpi\n      mload(0x40)\n      0x08c379a000000000000000000000000000000000000000000000000000000000\n      dup2\n      mstore\n      0x04\n      add\n      tag_27\n      swap1\n      tag_28\n      jump\t// in\n    tag_27:\n      mload(0x40)\n      dup1\n      swap2\n      sub\n      swap1\n      revert\n    tag_26:\n        /* \"AnonymousVerifier.sol\":769:781  bytes32 leaf */\n      0x00\n        /* \"AnonymousVerifier.sol\":811:820  nullifier */\n      dup4\n        /* \"AnonymousVerifier.sol\":822:832  msg.sender */\n      caller\n        /* \"AnonymousVerifier.sol\":794:833  abi.encodePacked(nullifier, msg.sender) */\n      add(0x20, mload(0x40))\n      tag_29\n      swap3\n      swap2\n      swap1\n      tag_30\n      jump\t// in\n    tag_29:\n      mload(0x40)\n      0x20\n      dup2\n      dup4\n      sub\n      sub\n      dup2\n      mstore\n      swap1\n      0x40\n      mstore\n        /* \"AnonymousVerifier.sol\":784:834  keccak256(abi.encodePacked(nullifier, msg.sender)) */\n      dup1\n      mload\n      swap1\n      0x20\n      add\n      keccak256\n        /* \"AnonymousVerifier.sol\":769:834  bytes32 leaf = keccak256(abi.encodePacked(nullifier, msg.sender)) */\n      swap1\n      pop\n        /* \"AnonymousVerifier.sol\":886:906  bytes32 computedHash */\n      0x00\n        /* \"AnonymousVerifier.sol\":909:913  leaf */\n      dup2\n        /* \"AnonymousVerifier.sol\":886:913  bytes32 computedHash = leaf */\n      swap1\n      pop\n        /* \"AnonymousVerifier.sol\":929:938  uint256 i */\n      0x00\n        /* \"AnonymousVerifier.sol\":941:942  0 */\n      0x00\n        /* \"AnonymousVerifier.sol\":929:942  uint256 i = 0 */\n      swap1\n      pop\n        /* \"AnonymousVerifier.sol\":924:1291  for (uint256 i = 0; i < proof.length; i++) {... */\n    tag_31:\n        /* \"AnonymousVerifier.sol\":948:953  proof */\n      dup5\n      dup5\n        /* \"AnonymousVerifier.sol\":948:960  proof.length */\n      swap1\n      pop\n        /* \"AnonymousVerifier.sol\":944:945  i */\n      dup2\n        /* \"AnonymousVerifier.sol\":944:960  i < proof.length */\n      lt\n        /* \"AnonymousVerifier.sol\":924:1291  for (uint256 i = 0; i < proof.length; i++) {... */\n      iszero\n      tag_32\n      jumpi\n        /* \"AnonymousVerifier.sol\":982:1002  bytes32 proofElement */\n      0x00\n        /* \"AnonymousVerifier.sol\":1005:1010  proof */\n      dup6\n      dup6\n        /* \"AnonymousVerifier.sol\":1011:1012  i */\n      dup4\n        /* \"AnonymousVerifier.sol\":1005:1013  proof[i] */\n      dup2\n      dup2\n      lt\n      tag_34\n      jumpi\n      tag_35\n      tag_36\n      jump\t// in\n    tag_35:\n    tag_34:\n      swap1\n      pop\n      0x20\n      mul\n      add\n      calldataload\n        /* \"AnonymousVerifier.sol\":982:1013  bytes32 proofElement = proof[i] */\n      swap1\n      pop\n        /* \"AnonymousVerifier.sol\":1050:1062  proofElement */\n      dup1\n        /* \"AnonymousVerifier.sol\":1034:1046  computedHash */\n      dup4\n        /* \"AnonymousVerifier.sol\":1034:1062  computedHash <= proofElement */\n      gt\n        /* \"AnonymousVerifier.sol\":1030:1280  if (computedHash <= proofElement) {... */\n      tag_37\n      jumpi\n        /* \"AnonymousVerifier.sol\":1125:1137  computedHash */\n      dup3\n        /* \"AnonymousVerifier.sol\":1139:1151  proofElement */\n      dup2\n        /* \"AnonymousVerifier.sol\":1108:1152  abi.encodePacked(computedHash, proofElement) */\n      add(0x20, mload(0x40))\n      tag_38\n      swap3\n      swap2\n      swap1\n      tag_39\n      jump\t// in\n    tag_38:\n      mload(0x40)\n      0x20\n      dup2\n      dup4\n      sub\n      sub\n      dup2\n      mstore\n      swap1\n      0x40\n      mstore\n        /* \"AnonymousVerifier.sol\":1098:1153  keccak256(abi.encodePacked(computedHash, proofElement)) */\n      dup1\n      mload\n      swap1\n      0x20\n      add\n      keccak256\n        /* \"AnonymousVerifier.sol\":1083:1153  computedHash = keccak256(abi.encodePacked(computedHash, proofElement)) */\n      swap3\n      pop\n        /* \"AnonymousVerifier.sol\":1030:1280  if (computedHash <= proofElement) {... */\n      jump(tag_40)\n    tag_37:\n        /* \"AnonymousVerifier.sol\":1236:1248  proofElement */\n      dup1\n        /* \"AnonymousVerifier.sol\":1250:1262  computedHash */\n      dup4\n        /* \"AnonymousVerifier.sol\":1219:1263  abi.encodePacked(proofElement, computedHash) */\n      add(0x20, mload(0x40))\n      tag_41\n      swap3\n      swap2\n      swap1\n      tag_39\n      jump\t// in\n    tag_41:\n      mload(0x40)\n      0x20\n      dup2\n      dup4\n      sub\n      sub\n      dup2\n      mstore\n      swap1\n      0x40\n      mstore\n        /* \"AnonymousVerifier.sol\":1209:1264  keccak256(abi.encodePacked(proofElement, computedHash)) */\n      dup1\n      mload\n      swap1\n      0x20\n      add\n      keccak256\n        /* \"AnonymousVerifier.sol\":1194:1264  computedHash = keccak256(abi.encodePacked(proofElement, computedHash)) */\n      swap3\n      pop\n        /* \"AnonymousVerifier.sol\":1030:1280  if (computedHash <= proofElement) {... */\n    tag_40:\n        /* \"AnonymousVerifier.sol\":967:1291  {... */\n      pop\n        /* \"AnonymousVerifier.sol\":962:965  i++ */\n      dup1\n      dup1\n      0x01\n      add\n      swap2\n      pop\n      pop\n        /* \"AnonymousVerifier.sol\":924:1291  for (uint256 i = 0; i < proof.length; i++) {... */\n      jump(tag_31)\n    tag_32:\n      pop\n        /* \"AnonymousVerifier.sol\":1327:1337  merkleRoot */\n      sload(0x00)\n        /* \"AnonymousVerifier.sol\":1311:1323  computedHash */\n      dup2\n        /* \"AnonymousVerifier.sol\":1311:1337  computedHash == merkleRoot */\n      eq\n        /* \"AnonymousVerifier.sol\":1303:1381  require(computedHash == merkleRoot, \"Verifikacija neuspesna: Niste u stablu!\") */\n      tag_42\n      jumpi\n      mload(0x40)\n      0x08c379a000000000000000000000000000000000000000000000000000000000\n      dup2\n      mstore\n      0x04\n      add\n      tag_43\n      swap1\n      tag_44\n      jump\t// in\n    tag_43:\n      mload(0x40)\n      dup1\n      swap2\n      sub\n      swap1\n      revert\n    tag_42:\n        /* \"AnonymousVerifier.sol\":1472:1476  true */\n      0x01\n        /* \"AnonymousVerifier.sol\":1445:1458  nullifierUsed */\n      dup1\n        /* \"AnonymousVerifier.sol\":1445:1469  nullifierUsed[nullifier] */\n      0x00\n        /* \"AnonymousVerifier.sol\":1459:1468  nullifier */\n      dup8\n        /* \"AnonymousVerifier.sol\":1445:1469  nullifierUsed[nullifier] */\n      dup2\n      mstore\n      0x20\n      add\n      swap1\n      dup2\n      mstore\n      0x20\n      add\n      0x00\n      keccak256\n      0x00\n        /* \"AnonymousVerifier.sol\":1445:1476  nullifierUsed[nullifier] = true */\n      0x0100\n      exp\n      dup2\n      sload\n      dup2\n      0xff\n      mul\n      not\n      and\n      swap1\n      dup4\n      iszero\n      iszero\n      mul\n      or\n      swap1\n      sstore\n      pop\n        /* \"AnonymousVerifier.sol\":1514:1524  msg.sender */\n      caller\n        /* \"AnonymousVerifier.sol\":1494:1525  Verified(nullifier, msg.sender) */\n      0xffffffffffffffffffffffffffffffffffffffff\n      and\n        /* \"AnonymousVerifier.sol\":1503:1512  nullifier */\n      dup6\n        /* \"AnonymousVerifier.sol\":1494:1525  Verified(nullifier, msg.sender) */\n      0xa9876a484ea4114b13008f98e07c2e907b22d1f73353badc831b48c45c86630d\n      mload(0x40)\n      mload(0x40)\n      dup1\n      swap2\n      sub\n      swap1\n      log3\n        /* \"AnonymousVerifier.sol\":602:1533  {... */\n      pop\n      pop\n        /* \"AnonymousVerifier.sol\":497:1533  function verifyMembership(... */\n      pop\n      pop\n      pop\n      jump\t// out\n        /* \"#utility.yul\":88:205   */\n    tag_46:\n        /* \"#utility.yul\":197:198   */\n      0x00\n        /* \"#utility.yul\":194:195   */\n      0x00\n        /* \"#utility.yul\":187:199   */\n      revert\n        /* \"#utility.yul\":211:328   */\n    tag_47:\n        /* \"#utility.yul\":320:321   */\n      0x00\n        /* \"#utility.yul\":317:318   */\n      0x00\n        /* \"#utility.yul\":310:322   */\n      revert\n        /* \"#utility.yul\":334:411   */\n    tag_48:\n        /* \"#utility.yul\":371:378   */\n      0x00\n        /* \"#utility.yul\":400:405   */\n      dup2\n        /* \"#utility.yul\":389:405   */\n      swap1\n      pop\n        /* \"#utility.yul\":334:411   */\n      swap2\n      swap1\n      pop\n      jump\t// out\n        /* \"#utility.yul\":417:539   */\n    tag_49:\n        /* \"#utility.yul\":490:514   */\n      tag_77\n        /* \"#utility.yul\":508:513   */\n      dup2\n        /* \"#utility.yul\":490:514   */\n      tag_48\n      jump\t// in\n    tag_77:\n        /* \"#utility.yul\":483:488   */\n      dup2\n        /* \"#utility.yul\":480:515   */\n      eq\n        /* \"#utility.yul\":470:533   */\n      tag_78\n      jumpi\n        /* \"#utility.yul\":529:530   */\n      0x00\n        /* \"#utility.yul\":526:527   */\n      0x00\n        /* \"#utility.yul\":519:531   */\n      revert\n        /* \"#utility.yul\":470:533   */\n    tag_78:\n        /* \"#utility.yul\":417:539   */\n      pop\n      jump\t// out\n        /* \"#utility.yul\":545:684   */\n    tag_50:\n        /* \"#utility.yul\":591:596   */\n      0x00\n        /* \"#utility.yul\":629:635   */\n      dup2\n        /* \"#utility.yul\":616:636   */\n      calldataload\n        /* \"#utility.yul\":607:636   */\n      swap1\n      pop\n        /* \"#utility.yul\":645:678   */\n      tag_80\n        /* \"#utility.yul\":672:677   */\n      dup2\n        /* \"#utility.yul\":645:678   */\n      tag_49\n      jump\t// in\n    tag_80:\n        /* \"#utility.yul\":545:684   */\n      swap3\n      swap2\n      pop\n      pop\n      jump\t// out\n        /* \"#utility.yul\":690:1019   */\n    tag_9:\n        /* \"#utility.yul\":749:755   */\n      0x00\n        /* \"#utility.yul\":798:800   */\n      0x20\n        /* \"#utility.yul\":786:795   */\n      dup3\n        /* \"#utility.yul\":777:784   */\n      dup5\n        /* \"#utility.yul\":773:796   */\n      sub\n        /* \"#utility.yul\":769:801   */\n      slt\n        /* \"#utility.yul\":766:885   */\n      iszero\n      tag_82\n      jumpi\n        /* \"#utility.yul\":804:883   */\n      tag_83\n      tag_46\n      jump\t// in\n    tag_83:\n        /* \"#utility.yul\":766:885   */\n    tag_82:\n        /* \"#utility.yul\":924:925   */\n      0x00\n        /* \"#utility.yul\":949:1002   */\n      tag_84\n        /* \"#utility.yul\":994:1001   */\n      dup5\n        /* \"#utility.yul\":985:991   */\n      dup3\n        /* \"#utility.yul\":974:983   */\n      dup6\n        /* \"#utility.yul\":970:992   */\n      add\n        /* \"#utility.yul\":949:1002   */\n      tag_50\n      jump\t// in\n    tag_84:\n        /* \"#utility.yul\":939:1002   */\n      swap2\n      pop\n        /* \"#utility.yul\":895:1012   */\n      pop\n        /* \"#utility.yul\":690:1019   */\n      swap3\n      swap2\n      pop\n      pop\n      jump\t// out\n        /* \"#utility.yul\":1025:1143   */\n    tag_51:\n        /* \"#utility.yul\":1112:1136   */\n      tag_86\n        /* \"#utility.yul\":1130:1135   */\n      dup2\n        /* \"#utility.yul\":1112:1136   */\n      tag_48\n      jump\t// in\n    tag_86:\n        /* \"#utility.yul\":1107:1110   */\n      dup3\n        /* \"#utility.yul\":1100:1137   */\n      mstore\n        /* \"#utility.yul\":1025:1143   */\n      pop\n      pop\n      jump\t// out\n        /* \"#utility.yul\":1149:1371   */\n    tag_14:\n        /* \"#utility.yul\":1242:1246   */\n      0x00\n        /* \"#utility.yul\":1280:1282   */\n      0x20\n        /* \"#utility.yul\":1269:1278   */\n      dup3\n        /* \"#utility.yul\":1265:1283   */\n      add\n        /* \"#utility.yul\":1257:1283   */\n      swap1\n      pop\n        /* \"#utility.yul\":1293:1364   */\n      tag_88\n        /* \"#utility.yul\":1361:1362   */\n      0x00\n        /* \"#utility.yul\":1350:1359   */\n      dup4\n        /* \"#utility.yul\":1346:1363   */\n      add\n        /* \"#utility.yul\":1337:1343   */\n      dup5\n        /* \"#utility.yul\":1293:1364   */\n      tag_51\n      jump\t// in\n    tag_88:\n        /* \"#utility.yul\":1149:1371   */\n      swap3\n      swap2\n      pop\n      pop\n      jump\t// out\n        /* \"#utility.yul\":1377:1467   */\n    tag_52:\n        /* \"#utility.yul\":1411:1418   */\n      0x00\n        /* \"#utility.yul\":1454:1459   */\n      dup2\n        /* \"#utility.yul\":1447:1460   */\n      iszero\n        /* \"#utility.yul\":1440:1461   */\n      iszero\n        /* \"#utility.yul\":1429:1461   */\n      swap1\n      pop\n        /* \"#utility.yul\":1377:1467   */\n      swap2\n      swap1\n      pop\n      jump\t// out\n        /* \"#utility.yul\":1473:1582   */\n    tag_53:\n        /* \"#utility.yul\":1554:1575   */\n      tag_91\n        /* \"#utility.yul\":1569:1574   */\n      dup2\n        /* \"#utility.yul\":1554:1575   */\n      tag_52\n      jump\t// in\n    tag_91:\n        /* \"#utility.yul\":1549:1552   */\n      dup3\n        /* \"#utility.yul\":1542:1576   */\n      mstore\n        /* \"#utility.yul\":1473:1582   */\n      pop\n      pop\n      jump\t// out\n        /* \"#utility.yul\":1588:1798   */\n    tag_19:\n        /* \"#utility.yul\":1675:1679   */\n      0x00\n        /* \"#utility.yul\":1713:1715   */\n      0x20\n        /* \"#utility.yul\":1702:1711   */\n      dup3\n        /* \"#utility.yul\":1698:1716   */\n      add\n        /* \"#utility.yul\":1690:1716   */\n      swap1\n      pop\n        /* \"#utility.yul\":1726:1791   */\n      tag_93\n        /* \"#utility.yul\":1788:1789   */\n      0x00\n        /* \"#utility.yul\":1777:1786   */\n      dup4\n        /* \"#utility.yul\":1773:1790   */\n      add\n        /* \"#utility.yul\":1764:1770   */\n      dup5\n        /* \"#utility.yul\":1726:1791   */\n      tag_53\n      jump\t// in\n    tag_93:\n        /* \"#utility.yul\":1588:1798   */\n      swap3\n      swap2\n      pop\n      pop\n      jump\t// out\n        /* \"#utility.yul\":1804:1921   */\n    tag_54:\n        /* \"#utility.yul\":1913:1914   */\n      0x00\n        /* \"#utility.yul\":1910:1911   */\n      0x00\n        /* \"#utility.yul\":1903:1915   */\n      revert\n        /* \"#utility.yul\":1927:2044   */\n    tag_55:\n        /* \"#utility.yul\":2036:2037   */\n      0x00\n        /* \"#utility.yul\":2033:2034   */\n      0x00\n        /* \"#utility.yul\":2026:2038   */\n      revert\n        /* \"#utility.yul\":2050:2167   */\n    tag_56:\n        /* \"#utility.yul\":2159:2160   */\n      0x00\n        /* \"#utility.yul\":2156:2157   */\n      0x00\n        /* \"#utility.yul\":2149:2161   */\n      revert\n        /* \"#utility.yul\":2190:2758   */\n    tag_57:\n        /* \"#utility.yul\":2263:2271   */\n      0x00\n        /* \"#utility.yul\":2273:2279   */\n      0x00\n        /* \"#utility.yul\":2323:2326   */\n      dup4\n        /* \"#utility.yul\":2316:2320   */\n      0x1f\n        /* \"#utility.yul\":2308:2314   */\n      dup5\n        /* \"#utility.yul\":2304:2321   */\n      add\n        /* \"#utility.yul\":2300:2327   */\n      slt\n        /* \"#utility.yul\":2290:2412   */\n      tag_98\n      jumpi\n        /* \"#utility.yul\":2331:2410   */\n      tag_99\n      tag_54\n      jump\t// in\n    tag_99:\n        /* \"#utility.yul\":2290:2412   */\n    tag_98:\n        /* \"#utility.yul\":2444:2450   */\n      dup3\n        /* \"#utility.yul\":2431:2451   */\n      calldataload\n        /* \"#utility.yul\":2421:2451   */\n      swap1\n      pop\n        /* \"#utility.yul\":2474:2492   */\n      0xffffffffffffffff\n        /* \"#utility.yul\":2466:2472   */\n      dup2\n        /* \"#utility.yul\":2463:2493   */\n      gt\n        /* \"#utility.yul\":2460:2577   */\n      iszero\n      tag_100\n      jumpi\n        /* \"#utility.yul\":2496:2575   */\n      tag_101\n      tag_55\n      jump\t// in\n    tag_101:\n        /* \"#utility.yul\":2460:2577   */\n    tag_100:\n        /* \"#utility.yul\":2610:2614   */\n      0x20\n        /* \"#utility.yul\":2602:2608   */\n      dup4\n        /* \"#utility.yul\":2598:2615   */\n      add\n        /* \"#utility.yul\":2586:2615   */\n      swap2\n      pop\n        /* \"#utility.yul\":2664:2667   */\n      dup4\n        /* \"#utility.yul\":2656:2660   */\n      0x20\n        /* \"#utility.yul\":2648:2654   */\n      dup3\n        /* \"#utility.yul\":2644:2661   */\n      mul\n        /* \"#utility.yul\":2634:2642   */\n      dup4\n        /* \"#utility.yul\":2630:2662   */\n      add\n        /* \"#utility.yul\":2627:2668   */\n      gt\n        /* \"#utility.yul\":2624:2752   */\n      iszero\n      tag_102\n      jumpi\n        /* \"#utility.yul\":2671:2750   */\n      tag_103\n      tag_56\n      jump\t// in\n    tag_103:\n        /* \"#utility.yul\":2624:2752   */\n    tag_102:\n        /* \"#utility.yul\":2190:2758   */\n      swap3\n      pop\n      swap3\n      swap1\n      pop\n      jump\t// out\n        /* \"#utility.yul\":2764:3468   */\n    tag_22:\n        /* \"#utility.yul\":2859:2865   */\n      0x00\n        /* \"#utility.yul\":2867:2873   */\n      0x00\n        /* \"#utility.yul\":2875:2881   */\n      0x00\n        /* \"#utility.yul\":2924:2926   */\n      0x40\n        /* \"#utility.yul\":2912:2921   */\n      dup5\n        /* \"#utility.yul\":2903:2910   */\n      dup7\n        /* \"#utility.yul\":2899:2922   */\n      sub\n        /* \"#utility.yul\":2895:2927   */\n      slt\n        /* \"#utility.yul\":2892:3011   */\n      iszero\n      tag_105\n      jumpi\n        /* \"#utility.yul\":2930:3009   */\n      tag_106\n      tag_46\n      jump\t// in\n    tag_106:\n        /* \"#utility.yul\":2892:3011   */\n    tag_105:\n        /* \"#utility.yul\":3050:3051   */\n      0x00\n        /* \"#utility.yul\":3075:3128   */\n      tag_107\n        /* \"#utility.yul\":3120:3127   */\n      dup7\n        /* \"#utility.yul\":3111:3117   */\n      dup3\n        /* \"#utility.yul\":3100:3109   */\n      dup8\n        /* \"#utility.yul\":3096:3118   */\n      add\n        /* \"#utility.yul\":3075:3128   */\n      tag_50\n      jump\t// in\n    tag_107:\n        /* \"#utility.yul\":3065:3128   */\n      swap4\n      pop\n        /* \"#utility.yul\":3021:3138   */\n      pop\n        /* \"#utility.yul\":3205:3207   */\n      0x20\n        /* \"#utility.yul\":3194:3203   */\n      dup5\n        /* \"#utility.yul\":3190:3208   */\n      add\n        /* \"#utility.yul\":3177:3209   */\n      calldataload\n        /* \"#utility.yul\":3236:3254   */\n      0xffffffffffffffff\n        /* \"#utility.yul\":3228:3234   */\n      dup2\n        /* \"#utility.yul\":3225:3255   */\n      gt\n        /* \"#utility.yul\":3222:3339   */\n      iszero\n      tag_108\n      jumpi\n        /* \"#utility.yul\":3258:3337   */\n      tag_109\n      tag_47\n      jump\t// in\n    tag_109:\n        /* \"#utility.yul\":3222:3339   */\n    tag_108:\n        /* \"#utility.yul\":3371:3451   */\n      tag_110\n        /* \"#utility.yul\":3443:3450   */\n      dup7\n        /* \"#utility.yul\":3434:3440   */\n      dup3\n        /* \"#utility.yul\":3423:3432   */\n      dup8\n        /* \"#utility.yul\":3419:3441   */\n      add\n        /* \"#utility.yul\":3371:3451   */\n      tag_57\n      jump\t// in\n    tag_110:\n        /* \"#utility.yul\":3353:3451   */\n      swap3\n      pop\n      swap3\n      pop\n        /* \"#utility.yul\":3148:3461   */\n      pop\n        /* \"#utility.yul\":2764:3468   */\n      swap3\n      pop\n      swap3\n      pop\n      swap3\n      jump\t// out\n        /* \"#utility.yul\":3474:3643   */\n    tag_58:\n        /* \"#utility.yul\":3558:3569   */\n      0x00\n        /* \"#utility.yul\":3592:3598   */\n      dup3\n        /* \"#utility.yul\":3587:3590   */\n      dup3\n        /* \"#utility.yul\":3580:3599   */\n      mstore\n        /* \"#utility.yul\":3632:3636   */\n      0x20\n        /* \"#utility.yul\":3627:3630   */\n      dup3\n        /* \"#utility.yul\":3623:3637   */\n      add\n        /* \"#utility.yul\":3608:3637   */\n      swap1\n      pop\n        /* \"#utility.yul\":3474:3643   */\n      swap3\n      swap2\n      pop\n      pop\n      jump\t// out\n        /* \"#utility.yul\":3649:3827   */\n    tag_59:\n        /* \"#utility.yul\":3789:3819   */\n      0x4e756c6c6966696572206a65207665632069736b6f72697363656e2100000000\n        /* \"#utility.yul\":3785:3786   */\n      0x00\n        /* \"#utility.yul\":3777:3783   */\n      dup3\n        /* \"#utility.yul\":3773:3787   */\n      add\n        /* \"#utility.yul\":3766:3820   */\n      mstore\n        /* \"#utility.yul\":3649:3827   */\n      pop\n      jump\t// out\n        /* \"#utility.yul\":3833:4199   */\n    tag_60:\n        /* \"#utility.yul\":3975:3978   */\n      0x00\n        /* \"#utility.yul\":3996:4063   */\n      tag_114\n        /* \"#utility.yul\":4060:4062   */\n      0x1c\n        /* \"#utility.yul\":4055:4058   */\n      dup4\n        /* \"#utility.yul\":3996:4063   */\n      tag_58\n      jump\t// in\n    tag_114:\n        /* \"#utility.yul\":3989:4063   */\n      swap2\n      pop\n        /* \"#utility.yul\":4072:4165   */\n      tag_115\n        /* \"#utility.yul\":4161:4164   */\n      dup3\n        /* \"#utility.yul\":4072:4165   */\n      tag_59\n      jump\t// in\n    tag_115:\n        /* \"#utility.yul\":4190:4192   */\n      0x20\n        /* \"#utility.yul\":4185:4188   */\n      dup3\n        /* \"#utility.yul\":4181:4193   */\n      add\n        /* \"#utility.yul\":4174:4193   */\n      swap1\n      pop\n        /* \"#utility.yul\":3833:4199   */\n      swap2\n      swap1\n      pop\n      jump\t// out\n        /* \"#utility.yul\":4205:4624   */\n    tag_28:\n        /* \"#utility.yul\":4371:4375   */\n      0x00\n        /* \"#utility.yul\":4409:4411   */\n      0x20\n        /* \"#utility.yul\":4398:4407   */\n      dup3\n        /* \"#utility.yul\":4394:4412   */\n      add\n        /* \"#utility.yul\":4386:4412   */\n      swap1\n      pop\n        /* \"#utility.yul\":4458:4467   */\n      dup2\n        /* \"#utility.yul\":4452:4456   */\n      dup2\n        /* \"#utility.yul\":4448:4468   */\n      sub\n        /* \"#utility.yul\":4444:4445   */\n      0x00\n        /* \"#utility.yul\":4433:4442   */\n      dup4\n        /* \"#utility.yul\":4429:4446   */\n      add\n        /* \"#utility.yul\":4422:4469   */\n      mstore\n        /* \"#utility.yul\":4486:4617   */\n      tag_117\n        /* \"#utility.yul\":4612:4616   */\n      dup2\n        /* \"#utility.yul\":4486:4617   */\n      tag_60\n      jump\t// in\n    tag_117:\n        /* \"#utility.yul\":4478:4617   */\n      swap1\n      pop\n        /* \"#utility.yul\":4205:4624   */\n      swap2\n      swap1\n      pop\n      jump\t// out\n        /* \"#utility.yul\":4630:4709   */\n    tag_61:\n        /* \"#utility.yul\":4669:4676   */\n      0x00\n        /* \"#utility.yul\":4698:4703   */\n      dup2\n        /* \"#utility.yul\":4687:4703   */\n      swap1\n      pop\n        /* \"#utility.yul\":4630:4709   */\n      swap2\n      swap1\n      pop\n      jump\t// out\n        /* \"#utility.yul\":4715:4872   */\n    tag_62:\n        /* \"#utility.yul\":4820:4865   */\n      tag_120\n        /* \"#utility.yul\":4840:4864   */\n      tag_121\n        /* \"#utility.yul\":4858:4863   */\n      dup3\n        /* \"#utility.yul\":4840:4864   */\n      tag_48\n      jump\t// in\n    tag_121:\n        /* \"#utility.yul\":4820:4865   */\n      tag_61\n      jump\t// in\n    tag_120:\n        /* \"#utility.yul\":4815:4818   */\n      dup3\n        /* \"#utility.yul\":4808:4866   */\n      mstore\n        /* \"#utility.yul\":4715:4872   */\n      pop\n      pop\n      jump\t// out\n        /* \"#utility.yul\":4878:5004   */\n    tag_63:\n        /* \"#utility.yul\":4915:4922   */\n      0x00\n        /* \"#utility.yul\":4955:4997   */\n      0xffffffffffffffffffffffffffffffffffffffff\n        /* \"#utility.yul\":4948:4953   */\n      dup3\n        /* \"#utility.yul\":4944:4998   */\n      and\n        /* \"#utility.yul\":4933:4998   */\n      swap1\n      pop\n        /* \"#utility.yul\":4878:5004   */\n      swap2\n      swap1\n      pop\n      jump\t// out\n        /* \"#utility.yul\":5010:5106   */\n    tag_64:\n        /* \"#utility.yul\":5047:5054   */\n      0x00\n        /* \"#utility.yul\":5076:5100   */\n      tag_124\n        /* \"#utility.yul\":5094:5099   */\n      dup3\n        /* \"#utility.yul\":5076:5100   */\n      tag_63\n      jump\t// in\n    tag_124:\n        /* \"#utility.yul\":5065:5100   */\n      swap1\n      pop\n        /* \"#utility.yul\":5010:5106   */\n      swap2\n      swap1\n      pop\n      jump\t// out\n        /* \"#utility.yul\":5112:5206   */\n    tag_65:\n        /* \"#utility.yul\":5145:5153   */\n      0x00\n        /* \"#utility.yul\":5193:5198   */\n      dup2\n        /* \"#utility.yul\":5189:5191   */\n      0x60\n        /* \"#utility.yul\":5185:5199   */\n      shl\n        /* \"#utility.yul\":5164:5199   */\n      swap1\n      pop\n        /* \"#utility.yul\":5112:5206   */\n      swap2\n      swap1\n      pop\n      jump\t// out\n        /* \"#utility.yul\":5212:5306   */\n    tag_66:\n        /* \"#utility.yul\":5251:5258   */\n      0x00\n        /* \"#utility.yul\":5280:5300   */\n      tag_127\n        /* \"#utility.yul\":5294:5299   */\n      dup3\n        /* \"#utility.yul\":5280:5300   */\n      tag_65\n      jump\t// in\n    tag_127:\n        /* \"#utility.yul\":5269:5300   */\n      swap1\n      pop\n        /* \"#utility.yul\":5212:5306   */\n      swap2\n      swap1\n      pop\n      jump\t// out\n        /* \"#utility.yul\":5312:5412   */\n    tag_67:\n        /* \"#utility.yul\":5351:5358   */\n      0x00\n        /* \"#utility.yul\":5380:5406   */\n      tag_129\n        /* \"#utility.yul\":5400:5405   */\n      dup3\n        /* \"#utility.yul\":5380:5406   */\n      tag_66\n      jump\t// in\n    tag_129:\n        /* \"#utility.yul\":5369:5406   */\n      swap1\n      pop\n        /* \"#utility.yul\":5312:5412   */\n      swap2\n      swap1\n      pop\n      jump\t// out\n        /* \"#utility.yul\":5418:5575   */\n    tag_68:\n        /* \"#utility.yul\":5523:5568   */\n      tag_131\n        /* \"#utility.yul\":5543:5567   */\n      tag_132\n        /* \"#utility.yul\":5561:5566   */\n      dup3\n        /* \"#utility.yul\":5543:5567   */\n      tag_64\n      jump\t// in\n    tag_132:\n        /* \"#utility.yul\":5523:5568   */\n      tag_67\n      jump\t// in\n    tag_131:\n        /* \"#utility.yul\":5518:5521   */\n      dup3\n        /* \"#utility.yul\":5511:5569   */\n      mstore\n        /* \"#utility.yul\":5418:5575   */\n      pop\n      pop\n      jump\t// out\n        /* \"#utility.yul\":5581:5978   */\n    tag_30:\n        /* \"#utility.yul\":5721:5724   */\n      0x00\n        /* \"#utility.yul\":5736:5811   */\n      tag_134\n        /* \"#utility.yul\":5807:5810   */\n      dup3\n        /* \"#utility.yul\":5798:5804   */\n      dup6\n        /* \"#utility.yul\":5736:5811   */\n      tag_62\n      jump\t// in\n    tag_134:\n        /* \"#utility.yul\":5836:5838   */\n      0x20\n        /* \"#utility.yul\":5831:5834   */\n      dup3\n        /* \"#utility.yul\":5827:5839   */\n      add\n        /* \"#utility.yul\":5820:5839   */\n      swap2\n      pop\n        /* \"#utility.yul\":5849:5924   */\n      tag_135\n        /* \"#utility.yul\":5920:5923   */\n      dup3\n        /* \"#utility.yul\":5911:5917   */\n      dup5\n        /* \"#utility.yul\":5849:5924   */\n      tag_68\n      jump\t// in\n    tag_135:\n        /* \"#utility.yul\":5949:5951   */\n      0x14\n        /* \"#utility.yul\":5944:5947   */\n      dup3\n        /* \"#utility.yul\":5940:5952   */\n      add\n        /* \"#utility.yul\":5933:5952   */\n      swap2\n      pop\n        /* \"#utility.yul\":5969:5972   */\n      dup2\n        /* \"#utility.yul\":5962:5972   */\n      swap1\n      pop\n        /* \"#utility.yul\":5581:5978   */\n      swap4\n      swap3\n      pop\n      pop\n      pop\n      jump\t// out\n        /* \"#utility.yul\":5984:6164   */\n    tag_36:\n        /* \"#utility.yul\":6032:6109   */\n      0x4e487b7100000000000000000000000000000000000000000000000000000000\n        /* \"#utility.yul\":6029:6030   */\n      0x00\n        /* \"#utility.yul\":6022:6110   */\n      mstore\n        /* \"#utility.yul\":6129:6133   */\n      0x32\n        /* \"#utility.yul\":6126:6127   */\n      0x04\n        /* \"#utility.yul\":6119:6134   */\n      mstore\n        /* \"#utility.yul\":6153:6157   */\n      0x24\n        /* \"#utility.yul\":6150:6151   */\n      0x00\n        /* \"#utility.yul\":6143:6158   */\n      revert\n        /* \"#utility.yul\":6170:6567   */\n    tag_39:\n        /* \"#utility.yul\":6310:6313   */\n      0x00\n        /* \"#utility.yul\":6325:6400   */\n      tag_138\n        /* \"#utility.yul\":6396:6399   */\n      dup3\n        /* \"#utility.yul\":6387:6393   */\n      dup6\n        /* \"#utility.yul\":6325:6400   */\n      tag_62\n      jump\t// in\n    tag_138:\n        /* \"#utility.yul\":6425:6427   */\n      0x20\n        /* \"#utility.yul\":6420:6423   */\n      dup3\n        /* \"#utility.yul\":6416:6428   */\n      add\n        /* \"#utility.yul\":6409:6428   */\n      swap2\n      pop\n        /* \"#utility.yul\":6438:6513   */\n      tag_139\n        /* \"#utility.yul\":6509:6512   */\n      dup3\n        /* \"#utility.yul\":6500:6506   */\n      dup5\n        /* \"#utility.yul\":6438:6513   */\n      tag_62\n      jump\t// in\n    tag_139:\n        /* \"#utility.yul\":6538:6540   */\n      0x20\n        /* \"#utility.yul\":6533:6536   */\n      dup3\n        /* \"#utility.yul\":6529:6541   */\n      add\n        /* \"#utility.yul\":6522:6541   */\n      swap2\n      pop\n        /* \"#utility.yul\":6558:6561   */\n      dup2\n        /* \"#utility.yul\":6551:6561   */\n      swap1\n      pop\n        /* \"#utility.yul\":6170:6567   */\n      swap4\n      swap3\n      pop\n      pop\n      pop\n      jump\t// out\n        /* \"#utility.yul\":6573:6799   */\n    tag_69:\n        /* \"#utility.yul\":6713:6747   */\n      0x5665726966696b6163696a61206e6575737065736e613a204e69737465207520\n        /* \"#utility.yul\":6709:6710   */\n      0x00\n        /* \"#utility.yul\":6701:6707   */\n      dup3\n        /* \"#utility.yul\":6697:6711   */\n      add\n        /* \"#utility.yul\":6690:6748   */\n      mstore\n        /* \"#utility.yul\":6782:6791   */\n      0x737461626c752100000000000000000000000000000000000000000000000000\n        /* \"#utility.yul\":6777:6779   */\n      0x20\n        /* \"#utility.yul\":6769:6775   */\n      dup3\n        /* \"#utility.yul\":6765:6780   */\n      add\n        /* \"#utility.yul\":6758:6792   */\n      mstore\n        /* \"#utility.yul\":6573:6799   */\n      pop\n      jump\t// out\n        /* \"#utility.yul\":6805:7171   */\n    tag_70:\n        /* \"#utility.yul\":6947:6950   */\n      0x00\n        /* \"#utility.yul\":6968:7035   */\n      tag_142\n        /* \"#utility.yul\":7032:7034   */\n      0x27\n        /* \"#utility.yul\":7027:7030   */\n      dup4\n        /* \"#utility.yul\":6968:7035   */\n      tag_58\n      jump\t// in\n    tag_142:\n        /* \"#utility.yul\":6961:7035   */\n      swap2\n      pop\n        /* \"#utility.yul\":7044:7137   */\n      tag_143\n        /* \"#utility.yul\":7133:7136   */\n      dup3\n        /* \"#utility.yul\":7044:7137   */\n      tag_69\n      jump\t// in\n    tag_143:\n        /* \"#utility.yul\":7162:7164   */\n      0x40\n        /* \"#utility.yul\":7157:7160   */\n      dup3\n        /* \"#utility.yul\":7153:7165   */\n      add\n        /* \"#utility.yul\":7146:7165   */\n      swap1\n      pop\n        /* \"#utility.yul\":6805:7171   */\n      swap2\n      swap1\n      pop\n      jump\t// out\n        /* \"#utility.yul\":7177:7596   */\n    tag_44:\n        /* \"#utility.yul\":7343:7347   */\n      0x00\n        /* \"#utility.yul\":7381:7383   */\n      0x20\n        /* \"#utility.yul\":7370:7379   */\n      dup3\n        /* \"#utility.yul\":7366:7384   */\n      add\n        /* \"#utility.yul\":7358:7384   */\n      swap1\n      pop\n        /* \"#utility.yul\":7430:7439   */\n      dup2\n        /* \"#utility.yul\":7424:7428   */\n      dup2\n        /* \"#utility.yul\":7420:7440   */\n      sub\n        /* \"#utility.yul\":7416:7417   */\n      0x00\n        /* \"#utility.yul\":7405:7414   */\n      dup4\n        /* \"#utility.yul\":7401:7418   */\n      add\n        /* \"#utility.yul\":7394:7441   */\n      mstore\n        /* \"#utility.yul\":7458:7589   */\n      tag_145\n        /* \"#utility.yul\":7584:7588   */\n      dup2\n        /* \"#utility.yul\":7458:7589   */\n      tag_70\n      jump\t// in\n    tag_145:\n        /* \"#utility.yul\":7450:7589   */\n      swap1\n      pop\n        /* \"#utility.yul\":7177:7596   */\n      swap2\n      swap1\n      pop\n      jump\t// out\n\n    auxdata: 0xa2646970667358221220669a02e419d44c8b5b30134f7b645367c063ee6043efb0b07bd867d410dd746a64736f6c63430008220033\n}\n",
				"bytecode": {
					"linkReferences": {},
					"object": "6080604052348015600e575f5ffd5b506040516107533803806107538339818101604052810190602e9190606b565b805f81905550506091565b5f5ffd5b5f819050919050565b604d81603d565b81146056575f5ffd5b50565b5f815190506065816046565b92915050565b5f60208284031215607d57607c6039565b5b5f6088848285016059565b91505092915050565b6106b58061009e5f395ff3fe608060405234801561000f575f5ffd5b506004361061004a575f3560e01c806321ff99701461004e5780632eb4a7ab1461006a5780637ecf686d14610088578063e305d023146100b8575b5f5ffd5b6100686004803603810190610063919061031d565b6100d4565b005b6100726100dd565b60405161007f9190610357565b60405180910390f35b6100a2600480360381019061009d919061031d565b6100e2565b6040516100af919061038a565b60405180910390f35b6100d260048036038101906100cd9190610404565b6100ff565b005b805f8190555050565b5f5481565b6001602052805f5260405f205f915054906101000a900460ff1681565b60015f8481526020019081526020015f205f9054906101000a900460ff161561015d576040517f08c379a0000000000000000000000000000000000000000000000000000000008152600401610154906104bb565b60405180910390fd5b5f833360405160200161017192919061056e565b6040516020818303038152906040528051906020012090505f8190505f5f90505b8484905081101561022b575f8585838181106101b1576101b0610599565b5b9050602002013590508083116101f15782816040516020016101d49291906105c6565b60405160208183030381529060405280519060200120925061021d565b80836040516020016102049291906105c6565b6040516020818303038152906040528051906020012092505b508080600101915050610192565b505f54811461026f576040517f08c379a000000000000000000000000000000000000000000000000000000000815260040161026690610661565b60405180910390fd5b6001805f8781526020019081526020015f205f6101000a81548160ff0219169083151502179055503373ffffffffffffffffffffffffffffffffffffffff16857fa9876a484ea4114b13008f98e07c2e907b22d1f73353badc831b48c45c86630d60405160405180910390a35050505050565b5f5ffd5b5f5ffd5b5f819050919050565b6102fc816102ea565b8114610306575f5ffd5b50565b5f81359050610317816102f3565b92915050565b5f60208284031215610332576103316102e2565b5b5f61033f84828501610309565b91505092915050565b610351816102ea565b82525050565b5f60208201905061036a5f830184610348565b92915050565b5f8115159050919050565b61038481610370565b82525050565b5f60208201905061039d5f83018461037b565b92915050565b5f5ffd5b5f5ffd5b5f5ffd5b5f5f83601f8401126103c4576103c36103a3565b5b8235905067ffffffffffffffff8111156103e1576103e06103a7565b5b6020830191508360208202830111156103fd576103fc6103ab565b5b9250929050565b5f5f5f6040848603121561041b5761041a6102e2565b5b5f61042886828701610309565b935050602084013567ffffffffffffffff811115610449576104486102e6565b5b610455868287016103af565b92509250509250925092565b5f82825260208201905092915050565b7f4e756c6c6966696572206a65207665632069736b6f72697363656e21000000005f82015250565b5f6104a5601c83610461565b91506104b082610471565b602082019050919050565b5f6020820190508181035f8301526104d281610499565b9050919050565b5f819050919050565b6104f36104ee826102ea565b6104d9565b82525050565b5f73ffffffffffffffffffffffffffffffffffffffff82169050919050565b5f610522826104f9565b9050919050565b5f8160601b9050919050565b5f61053f82610529565b9050919050565b5f61055082610535565b9050919050565b61056861056382610518565b610546565b82525050565b5f61057982856104e2565b6020820191506105898284610557565b6014820191508190509392505050565b7f4e487b71000000000000000000000000000000000000000000000000000000005f52603260045260245ffd5b5f6105d182856104e2565b6020820191506105e182846104e2565b6020820191508190509392505050565b7f5665726966696b6163696a61206e6575737065736e613a204e697374652075205f8201527f737461626c752100000000000000000000000000000000000000000000000000602082015250565b5f61064b602783610461565b9150610656826105f1565b604082019050919050565b5f6020820190508181035f8301526106788161063f565b905091905056fea2646970667358221220669a02e419d44c8b5b30134f7b645367c063ee6043efb0b07bd867d410dd746a64736f6c63430008220033",
					"opcodes": "PUSH1 0x80 PUSH1 0x40 MSTORE CALLVALUE DUP1 ISZERO PUSH1 0xE JUMPI PUSH0 PUSH0 REVERT JUMPDEST POP PUSH1 0x40 MLOAD PUSH2 0x753 CODESIZE SUB DUP1 PUSH2 0x753 DUP4 CODECOPY DUP2 DUP2 ADD PUSH1 0x40 MSTORE DUP2 ADD SWAP1 PUSH1 0x2E SWAP2 SWAP1 PUSH1 0x6B JUMP JUMPDEST DUP1 PUSH0 DUP2 SWAP1 SSTORE POP POP PUSH1 0x91 JUMP JUMPDEST PUSH0 PUSH0 REVERT JUMPDEST PUSH0 DUP2 SWAP1 POP SWAP2 SWAP1 POP JUMP JUMPDEST PUSH1 0x4D DUP2 PUSH1 0x3D JUMP JUMPDEST DUP2 EQ PUSH1 0x56 JUMPI PUSH0 PUSH0 REVERT JUMPDEST POP JUMP JUMPDEST PUSH0 DUP2 MLOAD SWAP1 POP PUSH1 0x65 DUP2 PUSH1 0x46 JUMP JUMPDEST SWAP3 SWAP2 POP POP JUMP JUMPDEST PUSH0 PUSH1 0x20 DUP3 DUP5 SUB SLT ISZERO PUSH1 0x7D JUMPI PUSH1 0x7C PUSH1 0x39 JUMP JUMPDEST JUMPDEST PUSH0 PUSH1 0x88 DUP5 DUP3 DUP6 ADD PUSH1 0x59 JUMP JUMPDEST SWAP2 POP POP SWAP3 SWAP2 POP POP JUMP JUMPDEST PUSH2 0x6B5 DUP1 PUSH2 0x9E PUSH0 CODECOPY PUSH0 RETURN INVALID PUSH1 0x80 PUSH1 0x40 MSTORE CALLVALUE DUP1 ISZERO PUSH2 0xF JUMPI PUSH0 PUSH0 REVERT JUMPDEST POP PUSH1 0x4 CALLDATASIZE LT PUSH2 0x4A JUMPI PUSH0 CALLDATALOAD PUSH1 0xE0 SHR DUP1 PUSH4 0x21FF9970 EQ PUSH2 0x4E JUMPI DUP1 PUSH4 0x2EB4A7AB EQ PUSH2 0x6A JUMPI DUP1 PUSH4 0x7ECF686D EQ PUSH2 0x88 JUMPI DUP1 PUSH4 0xE305D023 EQ PUSH2 0xB8 JUMPI JUMPDEST PUSH0 PUSH0 REVERT JUMPDEST PUSH2 0x68 PUSH1 0x4 DUP1 CALLDATASIZE SUB DUP2 ADD SWAP1 PUSH2 0x63 SWAP2 SWAP1 PUSH2 0x31D JUMP JUMPDEST PUSH2 0xD4 JUMP JUMPDEST STOP JUMPDEST PUSH2 0x72 PUSH2 0xDD JUMP JUMPDEST PUSH1 0x40 MLOAD PUSH2 0x7F SWAP2 SWAP1 PUSH2 0x357 JUMP JUMPDEST PUSH1 0x40 MLOAD DUP1 SWAP2 SUB SWAP1 RETURN JUMPDEST PUSH2 0xA2 PUSH1 0x4 DUP1 CALLDATASIZE SUB DUP2 ADD SWAP1 PUSH2 0x9D SWAP2 SWAP1 PUSH2 0x31D JUMP JUMPDEST PUSH2 0xE2 JUMP JUMPDEST PUSH1 0x40 MLOAD PUSH2 0xAF SWAP2 SWAP1 PUSH2 0x38A JUMP JUMPDEST PUSH1 0x40 MLOAD DUP1 SWAP2 SUB SWAP1 RETURN JUMPDEST PUSH2 0xD2 PUSH1 0x4 DUP1 CALLDATASIZE SUB DUP2 ADD SWAP1 PUSH2 0xCD SWAP2 SWAP1 PUSH2 0x404 JUMP JUMPDEST PUSH2 0xFF JUMP JUMPDEST STOP JUMPDEST DUP1 PUSH0 DUP2 SWAP1 SSTORE POP POP JUMP JUMPDEST PUSH0 SLOAD DUP2 JUMP JUMPDEST PUSH1 0x1 PUSH1 0x20 MSTORE DUP1 PUSH0 MSTORE PUSH1 0x40 PUSH0 KECCAK256 PUSH0 SWAP2 POP SLOAD SWAP1 PUSH2 0x100 EXP SWAP1 DIV PUSH1 0xFF AND DUP2 JUMP JUMPDEST PUSH1 0x1 PUSH0 DUP5 DUP2 MSTORE PUSH1 0x20 ADD SWAP1 DUP2 MSTORE PUSH1 0x20 ADD PUSH0 KECCAK256 PUSH0 SWAP1 SLOAD SWAP1 PUSH2 0x100 EXP SWAP1 DIV PUSH1 0xFF AND ISZERO PUSH2 0x15D JUMPI PUSH1 0x40 MLOAD PUSH32 0x8C379A000000000000000000000000000000000000000000000000000000000 DUP2 MSTORE PUSH1 0x4 ADD PUSH2 0x154 SWAP1 PUSH2 0x4BB JUMP JUMPDEST PUSH1 0x40 MLOAD DUP1 SWAP2 SUB SWAP1 REVERT JUMPDEST PUSH0 DUP4 CALLER PUSH1 0x40 MLOAD PUSH1 0x20 ADD PUSH2 0x171 SWAP3 SWAP2 SWAP1 PUSH2 0x56E JUMP JUMPDEST PUSH1 0x40 MLOAD PUSH1 0x20 DUP2 DUP4 SUB SUB DUP2 MSTORE SWAP1 PUSH1 0x40 MSTORE DUP1 MLOAD SWAP1 PUSH1 0x20 ADD KECCAK256 SWAP1 POP PUSH0 DUP2 SWAP1 POP PUSH0 PUSH0 SWAP1 POP JUMPDEST DUP5 DUP5 SWAP1 POP DUP2 LT ISZERO PUSH2 0x22B JUMPI PUSH0 DUP6 DUP6 DUP4 DUP2 DUP2 LT PUSH2 0x1B1 JUMPI PUSH2 0x1B0 PUSH2 0x599 JUMP JUMPDEST JUMPDEST SWAP1 POP PUSH1 0x20 MUL ADD CALLDATALOAD SWAP1 POP DUP1 DUP4 GT PUSH2 0x1F1 JUMPI DUP3 DUP2 PUSH1 0x40 MLOAD PUSH1 0x20 ADD PUSH2 0x1D4 SWAP3 SWAP2 SWAP1 PUSH2 0x5C6 JUMP JUMPDEST PUSH1 0x40 MLOAD PUSH1 0x20 DUP2 DUP4 SUB SUB DUP2 MSTORE SWAP1 PUSH1 0x40 MSTORE DUP1 MLOAD SWAP1 PUSH1 0x20 ADD KECCAK256 SWAP3 POP PUSH2 0x21D JUMP JUMPDEST DUP1 DUP4 PUSH1 0x40 MLOAD PUSH1 0x20 ADD PUSH2 0x204 SWAP3 SWAP2 SWAP1 PUSH2 0x5C6 JUMP JUMPDEST PUSH1 0x40 MLOAD PUSH1 0x20 DUP2 DUP4 SUB SUB DUP2 MSTORE SWAP1 PUSH1 0x40 MSTORE DUP1 MLOAD SWAP1 PUSH1 0x20 ADD KECCAK256 SWAP3 POP JUMPDEST POP DUP1 DUP1 PUSH1 0x1 ADD SWAP2 POP POP PUSH2 0x192 JUMP JUMPDEST POP PUSH0 SLOAD DUP2 EQ PUSH2 0x26F JUMPI PUSH1 0x40 MLOAD PUSH32 0x8C379A000000000000000000000000000000000000000000000000000000000 DUP2 MSTORE PUSH1 0x4 ADD PUSH2 0x266 SWAP1 PUSH2 0x661 JUMP JUMPDEST PUSH1 0x40 MLOAD DUP1 SWAP2 SUB SWAP1 REVERT JUMPDEST PUSH1 0x1 DUP1 PUSH0 DUP8 DUP2 MSTORE PUSH1 0x20 ADD SWAP1 DUP2 MSTORE PUSH1 0x20 ADD PUSH0 KECCAK256 PUSH0 PUSH2 0x100 EXP DUP2 SLOAD DUP2 PUSH1 0xFF MUL NOT AND SWAP1 DUP4 ISZERO ISZERO MUL OR SWAP1 SSTORE POP CALLER PUSH20 0xFFFFFFFFFFFFFFFFFFFFFFFFFFFFFFFFFFFFFFFF AND DUP6 PUSH32 0xA9876A484EA4114B13008F98E07C2E907B22D1F73353BADC831B48C45C86630D PUSH1 0x40 MLOAD PUSH1 0x40 MLOAD DUP1 SWAP2 SUB SWAP1 LOG3 POP POP POP POP POP JUMP JUMPDEST PUSH0 PUSH0 REVERT JUMPDEST PUSH0 PUSH0 REVERT JUMPDEST PUSH0 DUP2 SWAP1 POP SWAP2 SWAP1 POP JUMP JUMPDEST PUSH2 0x2FC DUP2 PUSH2 0x2EA JUMP JUMPDEST DUP2 EQ PUSH2 0x306 JUMPI PUSH0 PUSH0 REVERT JUMPDEST POP JUMP JUMPDEST PUSH0 DUP2 CALLDATALOAD SWAP1 POP PUSH2 0x317 DUP2 PUSH2 0x2F3 JUMP JUMPDEST SWAP3 SWAP2 POP POP JUMP JUMPDEST PUSH0 PUSH1 0x20 DUP3 DUP5 SUB SLT ISZERO PUSH2 0x332 JUMPI PUSH2 0x331 PUSH2 0x2E2 JUMP JUMPDEST JUMPDEST PUSH0 PUSH2 0x33F DUP5 DUP3 DUP6 ADD PUSH2 0x309 JUMP JUMPDEST SWAP2 POP POP SWAP3 SWAP2 POP POP JUMP JUMPDEST PUSH2 0x351 DUP2 PUSH2 0x2EA JUMP JUMPDEST DUP3 MSTORE POP POP JUMP JUMPDEST PUSH0 PUSH1 0x20 DUP3 ADD SWAP1 POP PUSH2 0x36A PUSH0 DUP4 ADD DUP5 PUSH2 0x348 JUMP JUMPDEST SWAP3 SWAP2 POP POP JUMP JUMPDEST PUSH0 DUP2 ISZERO ISZERO SWAP1 POP SWAP2 SWAP1 POP JUMP JUMPDEST PUSH2 0x384 DUP2 PUSH2 0x370 JUMP JUMPDEST DUP3 MSTORE POP POP JUMP JUMPDEST PUSH0 PUSH1 0x20 DUP3 ADD SWAP1 POP PUSH2 0x39D PUSH0 DUP4 ADD DUP5 PUSH2 0x37B JUMP JUMPDEST SWAP3 SWAP2 POP POP JUMP JUMPDEST PUSH0 PUSH0 REVERT JUMPDEST PUSH0 PUSH0 REVERT JUMPDEST PUSH0 PUSH0 REVERT JUMPDEST PUSH0 PUSH0 DUP4 PUSH1 0x1F DUP5 ADD SLT PUSH2 0x3C4 JUMPI PUSH2 0x3C3 PUSH2 0x3A3 JUMP JUMPDEST JUMPDEST DUP3 CALLDATALOAD SWAP1 POP PUSH8 0xFFFFFFFFFFFFFFFF DUP2 GT ISZERO PUSH2 0x3E1 JUMPI PUSH2 0x3E0 PUSH2 0x3A7 JUMP JUMPDEST JUMPDEST PUSH1 0x20 DUP4 ADD SWAP2 POP DUP4 PUSH1 0x20 DUP3 MUL DUP4 ADD GT ISZERO PUSH2 0x3FD JUMPI PUSH2 0x3FC PUSH2 0x3AB JUMP JUMPDEST JUMPDEST SWAP3 POP SWAP3 SWAP1 POP JUMP JUMPDEST PUSH0 PUSH0 PUSH0 PUSH1 0x40 DUP5 DUP7 SUB SLT ISZERO PUSH2 0x41B JUMPI PUSH2 0x41A PUSH2 0x2E2 JUMP JUMPDEST JUMPDEST PUSH0 PUSH2 0x428 DUP7 DUP3 DUP8 ADD PUSH2 0x309 JUMP JUMPDEST SWAP4 POP POP PUSH1 0x20 DUP5 ADD CALLDATALOAD PUSH8 0xFFFFFFFFFFFFFFFF DUP2 GT ISZERO PUSH2 0x449 JUMPI PUSH2 0x448 PUSH2 0x2E6 JUMP JUMPDEST JUMPDEST PUSH2 0x455 DUP7 DUP3 DUP8 ADD PUSH2 0x3AF JUMP JUMPDEST SWAP3 POP SWAP3 POP POP SWAP3 POP SWAP3 POP SWAP3 JUMP JUMPDEST PUSH0 DUP3 DUP3 MSTORE PUSH1 0x20 DUP3 ADD SWAP1 POP SWAP3 SWAP2 POP POP JUMP JUMPDEST PUSH32 0x4E756C6C6966696572206A65207665632069736B6F72697363656E2100000000 PUSH0 DUP3 ADD MSTORE POP JUMP JUMPDEST PUSH0 PUSH2 0x4A5 PUSH1 0x1C DUP4 PUSH2 0x461 JUMP JUMPDEST SWAP2 POP PUSH2 0x4B0 DUP3 PUSH2 0x471 JUMP JUMPDEST PUSH1 0x20 DUP3 ADD SWAP1 POP SWAP2 SWAP1 POP JUMP JUMPDEST PUSH0 PUSH1 0x20 DUP3 ADD SWAP1 POP DUP2 DUP2 SUB PUSH0 DUP4 ADD MSTORE PUSH2 0x4D2 DUP2 PUSH2 0x499 JUMP JUMPDEST SWAP1 POP SWAP2 SWAP1 POP JUMP JUMPDEST PUSH0 DUP2 SWAP1 POP SWAP2 SWAP1 POP JUMP JUMPDEST PUSH2 0x4F3 PUSH2 0x4EE DUP3 PUSH2 0x2EA JUMP JUMPDEST PUSH2 0x4D9 JUMP JUMPDEST DUP3 MSTORE POP POP JUMP JUMPDEST PUSH0 PUSH20 0xFFFFFFFFFFFFFFFFFFFFFFFFFFFFFFFFFFFFFFFF DUP3 AND SWAP1 POP SWAP2 SWAP1 POP JUMP JUMPDEST PUSH0 PUSH2 0x522 DUP3 PUSH2 0x4F9 JUMP JUMPDEST SWAP1 POP SWAP2 SWAP1 POP JUMP JUMPDEST PUSH0 DUP2 PUSH1 0x60 SHL SWAP1 POP SWAP2 SWAP1 POP JUMP JUMPDEST PUSH0 PUSH2 0x53F DUP3 PUSH2 0x529 JUMP JUMPDEST SWAP1 POP SWAP2 SWAP1 POP JUMP JUMPDEST PUSH0 PUSH2 0x550 DUP3 PUSH2 0x535 JUMP JUMPDEST SWAP1 POP SWAP2 SWAP1 POP JUMP JUMPDEST PUSH2 0x568 PUSH2 0x563 DUP3 PUSH2 0x518 JUMP JUMPDEST PUSH2 0x546 JUMP JUMPDEST DUP3 MSTORE POP POP JUMP JUMPDEST PUSH0 PUSH2 0x579 DUP3 DUP6 PUSH2 0x4E2 JUMP JUMPDEST PUSH1 0x20 DUP3 ADD SWAP2 POP PUSH2 0x589 DUP3 DUP5 PUSH2 0x557 JUMP JUMPDEST PUSH1 0x14 DUP3 ADD SWAP2 POP DUP2 SWAP1 POP SWAP4 SWAP3 POP POP POP JUMP JUMPDEST PUSH32 0x4E487B7100000000000000000000000000000000000000000000000000000000 PUSH0 MSTORE PUSH1 0x32 PUSH1 0x4 MSTORE PUSH1 0x24 PUSH0 REVERT JUMPDEST PUSH0 PUSH2 0x5D1 DUP3 DUP6 PUSH2 0x4E2 JUMP JUMPDEST PUSH1 0x20 DUP3 ADD SWAP2 POP PUSH2 0x5E1 DUP3 DUP5 PUSH2 0x4E2 JUMP JUMPDEST PUSH1 0x20 DUP3 ADD SWAP2 POP DUP2 SWAP1 POP SWAP4 SWAP3 POP POP POP JUMP JUMPDEST PUSH32 0x5665726966696B6163696A61206E6575737065736E613A204E69737465207520 PUSH0 DUP3 ADD MSTORE PUSH32 0x737461626C752100000000000000000000000000000000000000000000000000 PUSH1 0x20 DUP3 ADD MSTORE POP JUMP JUMPDEST PUSH0 PUSH2 0x64B PUSH1 0x27 DUP4 PUSH2 0x461 JUMP JUMPDEST SWAP2 POP PUSH2 0x656 DUP3 PUSH2 0x5F1 JUMP JUMPDEST PUSH1 0x40 DUP3 ADD SWAP1 POP SWAP2 SWAP1 POP JUMP JUMPDEST PUSH0 PUSH1 0x20 DUP3 ADD SWAP1 POP DUP2 DUP2 SUB PUSH0 DUP4 ADD MSTORE PUSH2 0x678 DUP2 PUSH2 0x63F JUMP JUMPDEST SWAP1 POP SWAP2 SWAP1 POP JUMP INVALID LOG2 PUSH5 0x6970667358 0x22 SLT KECCAK256 PUSH7 0x9A02E419D44C8B JUMPDEST ADDRESS SGT 0x4F PUSH28 0x645367C063EE6043EFB0B07BD867D410DD746A64736F6C6343000822 STOP CALLER "
				},
				"gasEstimates": {
					"creation": {
						"codeDepositCost": "343400",
						"executionCost": "infinite",
						"totalCost": "infinite"
					},
					"external": {
						"merkleRoot()": "2424",
						"nullifierUsed(bytes32)": "2807",
						"updateRoot(bytes32)": "22492",
						"verifyMembership(bytes32,bytes32[])": "infinite"
					}
				},
				"methodIdentifiers": {
					"merkleRoot()": "2eb4a7ab",
					"nullifierUsed(bytes32)": "7ecf686d",
					"updateRoot(bytes32)": "21ff9970",
					"verifyMembership(bytes32,bytes32[])": "e305d023"
				}
			},
			"storageLayout": {
				"storage": [
					{
						"astId": 3,
						"contract": "AnonymousVerifier.sol:AnonymousVerifier",
						"label": "merkleRoot",
						"offset": 0,
						"slot": "0",
						"type": "t_bytes32"
					},
					{
						"astId": 7,
						"contract": "AnonymousVerifier.sol:AnonymousVerifier",
						"label": "nullifierUsed",
						"offset": 0,
						"slot": "1",
						"type": "t_mapping(t_bytes32,t_bool)"
					}
				],
				"types": {
					"t_bool": {
						"encoding": "inplace",
						"label": "bool",
						"numberOfBytes": "1"
					},
					"t_bytes32": {
						"encoding": "inplace",
						"label": "bytes32",
						"numberOfBytes": "32"
					},
					"t_mapping(t_bytes32,t_bool)": {
						"encoding": "mapping",
						"key": "t_bytes32",
						"label": "mapping(bytes32 => bool)",
						"numberOfBytes": "32",
						"value": "t_bool"
					}
				}
			},
			"userdoc": {
				"kind": "user",
				"methods": {},
				"version": 1
			}
		}
	}
}