{
	"tests/AnonymousVerifier.sol": {
		"AnonymousVerifier": {
			"abi": [
				{
					"inputs": [
						{
							"internalType": "bytes32",
							"name": "_initialRoot",
							"type": "bytes32"
						}
					],
					"stateMutability": "nonpayable",
					"type": "constructor"
				},
				{
					"anonymous": false,
					"inputs": [
						{
							"indexed": false,
							"internalType": "bytes32",
							"name": "newRoot",
							"type": "bytes32"
						}
					],
					"name": "RootUpdated",
					"type": "event"
				},
				{
					"anonymous": false,
					"inputs": [
						{
							"indexed": false,
							"internalType": "string",
							"name": "reason",
							"type": "string"
						}
					],
					"name": "VerificationFailed",
					"type": "event"
				},
				{
					"anonymous": false,
					"inputs": [
						{
							"indexed": true,
							"internalType": "bytes32",
							"name": "nullifier",
							"type": "bytes32"
						},
						{
							"indexed": false,
							"internalType": "string",
							"name": "attribute",
							"type": "string"
						}
					],
					"name": "VerificationSuccess",
					"type": "event"
				},
				{
					"inputs": [],
					"name": "admin",
					"outputs": [
						{
							"internalType": "address",
							"name": "",
							"type": "address"
						}
					],
					"stateMutability": "view",
					"type": "function"
				},
				{
					"inputs": [],
					"name": "merkleRoot",
					"outputs": [
						{
							"internalType": "bytes32",
							"name": "",
							"type": "bytes32"
						}
					],
					"stateMutability": "view",
					"type": "function"
				},
				{
					"inputs": [
						{
							"internalType": "bytes32",
							"name": "",
							"type": "bytes32"
						}
					],
					"name": "nullifiers",
					"outputs": [
						{
							"internalType": "bool",
							"name": "",
							"type": "bool"
						}
					],
					"stateMutability": "view",
					"type": "function"
				},
				{
					"inputs": [
						{
							"internalType": "bytes32",
							"name": "_newRoot",
							"type": "bytes32"
						}
					],
					"name": "updateMerkleRoot",
					"outputs": [],
					"stateMutability": "nonpayable",
					"type": "function"
				},
				{
					"inputs": [
						{
							"internalType": "bytes32[]",
							"name": "proof",
							"type": "bytes32[]"
						},
						{
							"internalType": "bytes32",
							"name": "leaf",
							"type": "bytes32"
						},
						{
							"internalType": "bytes32",
							"name": "nullifier",
							"type": "bytes32"
						},
						{
							"internalType": "string",
							"name": "attribute",
							"type": "string"
						}
					],
					"name": "verifyAttribute",
					"outputs": [],
					"stateMutability": "nonpayable",
					"type": "function"
				}
			],
			"devdoc": {
				"kind": "dev",
				"methods": {
					"updateMerkleRoot(bytes32)": {
						"details": "Eksterna funkcija za administratora da ažurira Merkle Root kada se dodaju novi članovi"
					},
					"verifyAttribute(bytes32[],bytes32,bytes32,string)": {
						"details": "Glavna funkcija za anonimnu verifikaciju atributa",
						"params": {
							"attribute": "Naziv atributa koji korisnik dokazuje (npr. \"Punoletan\")",
							"leaf": "Hash identiteta korisnika koji se proverava da li je u stablu",
							"nullifier": "Jedinstvena oznaka (izvedena iz tajne) koja sprečava dvostruku verifikaciju",
							"proof": "Niz hash-eva koji čine Merkle dokaz (putanju od lista do korena)"
						}
					}
				},
				"version": 1
			},
			"evm": {
				"assembly": "    /* \"tests/AnonymousVerifier.sol\":60:4002  contract AnonymousVerifier {... */\n  mstore(0x40, 0x80)\n    /* \"tests/AnonymousVerifier.sol\":1223:1379  constructor(bytes32 _initialRoot) {... */\n  callvalue\n  dup1\n  iszero\n  tag_1\n  jumpi\n  revert(0x00, 0x00)\ntag_1:\n  pop\n  mload(0x40)\n  sub(codesize, bytecodeSize)\n  dup1\n  bytecodeSize\n  dup4\n  codecopy\n  dup2\n  dup2\n  add\n  0x40\n  mstore\n  dup2\n  add\n  swap1\n  tag_2\n  swap2\n  swap1\n  tag_3\n  jump\t// in\ntag_2:\n    /* \"tests/AnonymousVerifier.sol\":1276:1286  msg.sender */\n  caller\n    /* \"tests/AnonymousVerifier.sol\":1268:1273  admin */\n  0x00\n  0x00\n    /* \"tests/AnonymousVerifier.sol\":1268:1286  admin = msg.sender */\n  0x0100\n  exp\n  dup2\n  sload\n  dup2\n  0xffffffffffffffffffffffffffffffffffffffff\n  mul\n  not\n  and\n  swap1\n  dup4\n  0xffffffffffffffffffffffffffffffffffffffff\n  and\n  mul\n  or\n  swap1\n  sstore\n  pop\n    /* \"tests/AnonymousVerifier.sol\":1359:1371  _initialRoot */\n  dup1\n    /* \"tests/AnonymousVerifier.sol\":1346:1356  merkleRoot */\n  0x01\n    /* \"tests/AnonymousVerifier.sol\":1346:1371  merkleRoot = _initialRoot */\n  dup2\n  swap1\n  sstore\n  pop\n    /* \"tests/AnonymousVerifier.sol\":1223:1379  constructor(bytes32 _initialRoot) {... */\n  pop\n    /* \"tests/AnonymousVerifier.sol\":60:4002  contract AnonymousVerifier {... */\n  jump(tag_6)\n    /* \"#utility.yul\":88:205   */\ntag_8:\n    /* \"#utility.yul\":197:198   */\n  0x00\n    /* \"#utility.yul\":194:195   */\n  0x00\n    /* \"#utility.yul\":187:199   */\n  revert\n    /* \"#utility.yul\":334:411   */\ntag_10:\n    /* \"#utility.yul\":371:378   */\n  0x00\n    /* \"#utility.yul\":400:405   */\n  dup2\n    /* \"#utility.yul\":389:405   */\n  swap1\n  pop\n    /* \"#utility.yul\":334:411   */\n  swap2\n  swap1\n  pop\n  jump\t// out\n    /* \"#utility.yul\":417:539   */\ntag_11:\n    /* \"#utility.yul\":490:514   */\n  tag_19\n    /* \"#utility.yul\":508:513   */\n  dup2\n    /* \"#utility.yul\":490:514   */\n  tag_10\n  jump\t// in\ntag_19:\n    /* \"#utility.yul\":483:488   */\n  dup2\n    /* \"#utility.yul\":480:515   */\n  eq\n    /* \"#utility.yul\":470:533   */\n  tag_20\n  jumpi\n    /* \"#utility.yul\":529:530   */\n  0x00\n    /* \"#utility.yul\":526:527   */\n  0x00\n    /* \"#utility.yul\":519:531   */\n  revert\n    /* \"#utility.yul\":470:533   */\ntag_20:\n    /* \"#utility.yul\":417:539   */\n  pop\n  jump\t// out\n    /* \"#utility.yul\":545:688   */\ntag_12:\n    /* \"#utility.yul\":602:607   */\n  0x00\n    /* \"#utility.yul\":633:639   */\n  dup2\n    /* \"#utility.yul\":627:640   */\n  mload\n    /* \"#utility.yul\":618:640   */\n  swap1\n  pop\n    /* \"#utility.yul\":649:682   */\n  tag_22\n    /* \"#utility.yul\":676:681   */\n  dup2\n    /* \"#utility.yul\":649:682   */\n  tag_11\n  jump\t// in\ntag_22:\n    /* \"#utility.yul\":545:688   */\n  swap3\n  swap2\n  pop\n  pop\n  jump\t// out\n    /* \"#utility.yul\":694:1045   */\ntag_3:\n    /* \"#utility.yul\":764:770   */\n  0x00\n    /* \"#utility.yul\":813:815   */\n  0x20\n    /* \"#utility.yul\":801:810   */\n  dup3\n    /* \"#utility.yul\":792:799   */\n  dup5\n    /* \"#utility.yul\":788:811   */\n  sub\n    /* \"#utility.yul\":784:816   */\n  slt\n    /* \"#utility.yul\":781:900   */\n  iszero\n  tag_24\n  jumpi\n    /* \"#utility.yul\":819:898   */\n  tag_25\n  tag_8\n  jump\t// in\ntag_25:\n    /* \"#utility.yul\":781:900   */\ntag_24:\n    /* \"#utility.yul\":939:940   */\n  0x00\n    /* \"#utility.yul\":964:1028   */\n  tag_26\n    /* \"#utility.yul\":1020:1027   */\n  dup5\n    /* \"#utility.yul\":1011:1017   */\n  dup3\n    /* \"#utility.yul\":1000:1009   */\n  dup6\n    /* \"#utility.yul\":996:1018   */\n  add\n    /* \"#utility.yul\":964:1028   */\n  tag_12\n  jump\t// in\ntag_26:\n    /* \"#utility.yul\":954:1028   */\n  swap2\n  pop\n    /* \"#utility.yul\":910:1038   */\n  pop\n    /* \"#utility.yul\":694:1045   */\n  swap3\n  swap2\n  pop\n  pop\n  jump\t// out\n    /* \"tests/AnonymousVerifier.sol\":60:4002  contract AnonymousVerifier {... */\ntag_6:\n  dataSize(sub_0)\n  dup1\n  dataOffset(sub_0)\n  0x00\n  codecopy\n  0x00\n  return\nstop\n\nsub_0: assembly {\n        /* \"tests/AnonymousVerifier.sol\":60:4002  contract AnonymousVerifier {... */\n      mstore(0x40, 0x80)\n      callvalue\n      dup1\n      iszero\n      tag_1\n      jumpi\n      revert(0x00, 0x00)\n    tag_1:\n      pop\n      jumpi(tag_2, lt(calldatasize, 0x04))\n      shr(0xe0, calldataload(0x00))\n      dup1\n      0x2997e86b\n      eq\n      tag_3\n      jumpi\n      dup1\n      0x2eb4a7ab\n      eq\n      tag_4\n      jumpi\n      dup1\n      0x4783f0ef\n      eq\n      tag_5\n      jumpi\n      dup1\n      0x4be9612a\n      eq\n      tag_6\n      jumpi\n      dup1\n      0xf851a440\n      eq\n      tag_7\n      jumpi\n    tag_2:\n      revert(0x00, 0x00)\n        /* \"tests/AnonymousVerifier.sol\":482:524  mapping(bytes32 => bool) public nullifiers */\n    tag_3:\n      tag_8\n      0x04\n      dup1\n      calldatasize\n      sub\n      dup2\n      add\n      swap1\n      tag_9\n      swap2\n      swap1\n      tag_10\n      jump\t// in\n    tag_9:\n      tag_11\n      jump\t// in\n    tag_8:\n      mload(0x40)\n      tag_12\n      swap2\n      swap1\n      tag_13\n      jump\t// in\n    tag_12:\n      mload(0x40)\n      dup1\n      swap2\n      sub\n      swap1\n      return\n        /* \"tests/AnonymousVerifier.sol\":293:318  bytes32 public merkleRoot */\n    tag_4:\n      tag_14\n      tag_15\n      jump\t// in\n    tag_14:\n      mload(0x40)\n      tag_16\n      swap2\n      swap1\n      tag_17\n      jump\t// in\n    tag_16:\n      mload(0x40)\n      dup1\n      swap2\n      sub\n      swap1\n      return\n        /* \"tests/AnonymousVerifier.sol\":1507:1647  function updateMerkleRoot(bytes32 _newRoot) external onlyAdmin {... */\n    tag_5:\n      tag_18\n      0x04\n      dup1\n      calldatasize\n      sub\n      dup2\n      add\n      swap1\n      tag_19\n      swap2\n      swap1\n      tag_10\n      jump\t// in\n    tag_19:\n      tag_20\n      jump\t// in\n    tag_18:\n      stop\n        /* \"tests/AnonymousVerifier.sol\":2089:3999  function verifyAttribute(... */\n    tag_6:\n      tag_21\n      0x04\n      dup1\n      calldatasize\n      sub\n      dup2\n      add\n      swap1\n      tag_22\n      swap2\n      swap1\n      tag_23\n      jump\t// in\n    tag_22:\n      tag_24\n      jump\t// in\n    tag_21:\n      stop\n        /* \"tests/AnonymousVerifier.sol\":183:203  address public admin */\n    tag_7:\n      tag_25\n      tag_26\n      jump\t// in\n    tag_25:\n      mload(0x40)\n      tag_27\n      swap2\n      swap1\n      tag_28\n      jump\t// in\n    tag_27:\n      mload(0x40)\n      dup1\n      swap2\n      sub\n      swap1\n      return\n        /* \"tests/AnonymousVerifier.sol\":482:524  mapping(bytes32 => bool) public nullifiers */\n    tag_11:\n      mstore(0x20, 0x02)\n      dup1\n      0x00\n      mstore\n      keccak256(0x00, 0x40)\n      0x00\n      swap2\n      pop\n      sload\n      swap1\n      0x0100\n      exp\n      swap1\n      div\n      0xff\n      and\n      dup2\n      jump\t// out\n        /* \"tests/AnonymousVerifier.sol\":293:318  bytes32 public merkleRoot */\n    tag_15:\n      sload(0x01)\n      dup2\n      jump\t// out\n        /* \"tests/AnonymousVerifier.sol\":1507:1647  function updateMerkleRoot(bytes32 _newRoot) external onlyAdmin {... */\n    tag_20:\n        /* \"tests/AnonymousVerifier.sol\":1015:1020  admin */\n      0x00\n      0x00\n      swap1\n      sload\n      swap1\n      0x0100\n      exp\n      swap1\n      div\n      0xffffffffffffffffffffffffffffffffffffffff\n      and\n        /* \"tests/AnonymousVerifier.sol\":1001:1020  msg.sender == admin */\n      0xffffffffffffffffffffffffffffffffffffffff\n      and\n        /* \"tests/AnonymousVerifier.sol\":1001:1011  msg.sender */\n      caller\n        /* \"tests/AnonymousVerifier.sol\":1001:1020  msg.sender == admin */\n      0xffffffffffffffffffffffffffffffffffffffff\n      and\n      eq\n        /* \"tests/AnonymousVerifier.sol\":993:1070  require(msg.sender == admin, \"Samo administrator moze izvrsiti ovu funkciju\") */\n      tag_30\n      jumpi\n      mload(0x40)\n      0x08c379a000000000000000000000000000000000000000000000000000000000\n      dup2\n      mstore\n      0x04\n      add\n      tag_31\n      swap1\n      tag_32\n      jump\t// in\n    tag_31:\n      mload(0x40)\n      dup1\n      swap2\n      sub\n      swap1\n      revert\n    tag_30:\n        /* \"tests/AnonymousVerifier.sol\":1594:1602  _newRoot */\n      dup1\n        /* \"tests/AnonymousVerifier.sol\":1581:1591  merkleRoot */\n      0x01\n        /* \"tests/AnonymousVerifier.sol\":1581:1602  merkleRoot = _newRoot */\n      dup2\n      swap1\n      sstore\n      pop\n        /* \"tests/AnonymousVerifier.sol\":1618:1639  RootUpdated(_newRoot) */\n      0x2cbc14f49c068133583f7cb530018af451c87c1cf1327cf2a4ff4698c4730aa4\n        /* \"tests/AnonymousVerifier.sol\":1630:1638  _newRoot */\n      dup2\n        /* \"tests/AnonymousVerifier.sol\":1618:1639  RootUpdated(_newRoot) */\n      mload(0x40)\n      tag_34\n      swap2\n      swap1\n      tag_17\n      jump\t// in\n    tag_34:\n      mload(0x40)\n      dup1\n      swap2\n      sub\n      swap1\n      log1\n        /* \"tests/AnonymousVerifier.sol\":1507:1647  function updateMerkleRoot(bytes32 _newRoot) external onlyAdmin {... */\n      pop\n      jump\t// out\n        /* \"tests/AnonymousVerifier.sol\":2089:3999  function verifyAttribute(... */\n    tag_24:\n        /* \"tests/AnonymousVerifier.sol\":2377:2387  nullifiers */\n      0x02\n        /* \"tests/AnonymousVerifier.sol\":2377:2398  nullifiers[nullifier] */\n      0x00\n        /* \"tests/AnonymousVerifier.sol\":2388:2397  nullifier */\n      dup4\n        /* \"tests/AnonymousVerifier.sol\":2377:2398  nullifiers[nullifier] */\n      dup2\n      mstore\n      0x20\n      add\n      swap1\n      dup2\n      mstore\n      0x20\n      add\n      0x00\n      keccak256\n      0x00\n      swap1\n      sload\n      swap1\n      0x0100\n      exp\n      swap1\n      div\n      0xff\n      and\n        /* \"tests/AnonymousVerifier.sol\":2373:2587  if (nullifiers[nullifier]) {... */\n      iszero\n      tag_36\n      jumpi\n        /* \"tests/AnonymousVerifier.sol\":2420:2501  VerificationFailed(\"Ovaj dokaz je vec jednom iskoriscen (Nullifier iskoriscen)!\") */\n      0xfafcac45bf99968f40be690e72dea3b27ddedbdb14acff7feb06a15cb5d55718\n      mload(0x40)\n      tag_37\n      swap1\n      tag_38\n      jump\t// in\n    tag_37:\n      mload(0x40)\n      dup1\n      swap2\n      sub\n      swap1\n      log1\n        /* \"tests/AnonymousVerifier.sol\":2525:2535  nullifiers */\n      0x02\n        /* \"tests/AnonymousVerifier.sol\":2525:2546  nullifiers[nullifier] */\n      0x00\n        /* \"tests/AnonymousVerifier.sol\":2536:2545  nullifier */\n      dup4\n        /* \"tests/AnonymousVerifier.sol\":2525:2546  nullifiers[nullifier] */\n      dup2\n      mstore\n      0x20\n      add\n      swap1\n      dup2\n      mstore\n      0x20\n      add\n      0x00\n      keccak256\n      0x00\n      swap1\n      sload\n      swap1\n      0x0100\n      exp\n      swap1\n      div\n      0xff\n      and\n        /* \"tests/AnonymousVerifier.sol\":2524:2546  !nullifiers[nullifier] */\n      iszero\n        /* \"tests/AnonymousVerifier.sol\":2516:2575  require(!nullifiers[nullifier], \"Dokaz je vec iskoriscen!\") */\n      tag_39\n      jumpi\n      mload(0x40)\n      0x08c379a000000000000000000000000000000000000000000000000000000000\n      dup2\n      mstore\n      0x04\n      add\n      tag_40\n      swap1\n      tag_41\n      jump\t// in\n    tag_40:\n      mload(0x40)\n      dup1\n      swap2\n      sub\n      swap1\n      revert\n    tag_39:\n        /* \"tests/AnonymousVerifier.sol\":2373:2587  if (nullifiers[nullifier]) {... */\n    tag_36:\n        /* \"tests/AnonymousVerifier.sol\":2745:2765  bytes32 computedHash */\n      0x00\n        /* \"tests/AnonymousVerifier.sol\":2768:2772  leaf */\n      dup4\n        /* \"tests/AnonymousVerifier.sol\":2745:2772  bytes32 computedHash = leaf */\n      swap1\n      pop\n        /* \"tests/AnonymousVerifier.sol\":2798:2807  uint256 i */\n      0x00\n        /* \"tests/AnonymousVerifier.sol\":2810:2811  0 */\n      0x00\n        /* \"tests/AnonymousVerifier.sol\":2798:2811  uint256 i = 0 */\n      swap1\n      pop\n        /* \"tests/AnonymousVerifier.sol\":2793:3371  for (uint256 i = 0; i < proof.length; i++) {... */\n    tag_42:\n        /* \"tests/AnonymousVerifier.sol\":2817:2822  proof */\n      dup6\n        /* \"tests/AnonymousVerifier.sol\":2817:2829  proof.length */\n      mload\n        /* \"tests/AnonymousVerifier.sol\":2813:2814  i */\n      dup2\n        /* \"tests/AnonymousVerifier.sol\":2813:2829  i < proof.length */\n      lt\n        /* \"tests/AnonymousVerifier.sol\":2793:3371  for (uint256 i = 0; i < proof.length; i++) {... */\n      iszero\n      tag_43\n      jumpi\n        /* \"tests/AnonymousVerifier.sol\":2851:2871  bytes32 proofElement */\n      0x00\n        /* \"tests/AnonymousVerifier.sol\":2874:2879  proof */\n      dup7\n        /* \"tests/AnonymousVerifier.sol\":2880:2881  i */\n      dup3\n        /* \"tests/AnonymousVerifier.sol\":2874:2882  proof[i] */\n      dup2\n      mload\n      dup2\n      lt\n      tag_45\n      jumpi\n      tag_46\n      tag_47\n      jump\t// in\n    tag_46:\n    tag_45:\n      0x20\n      mul\n      0x20\n      add\n      add\n      mload\n        /* \"tests/AnonymousVerifier.sol\":2851:2882  bytes32 proofElement = proof[i] */\n      swap1\n      pop\n        /* \"tests/AnonymousVerifier.sol\":3027:3039  proofElement */\n      dup1\n        /* \"tests/AnonymousVerifier.sol\":3011:3023  computedHash */\n      dup4\n        /* \"tests/AnonymousVerifier.sol\":3011:3039  computedHash <= proofElement */\n      gt\n        /* \"tests/AnonymousVerifier.sol\":3007:3360  if (computedHash <= proofElement) {... */\n      tag_48\n      jumpi\n        /* \"tests/AnonymousVerifier.sol\":3205:3217  computedHash */\n      dup3\n        /* \"tests/AnonymousVerifier.sol\":3219:3231  proofElement */\n      dup2\n        /* \"tests/AnonymousVerifier.sol\":3188:3232  abi.encodePacked(computedHash, proofElement) */\n      add(0x20, mload(0x40))\n      tag_49\n      swap3\n      swap2\n      swap1\n      tag_50\n      jump\t// in\n    tag_49:\n      mload(0x40)\n      0x20\n      dup2\n      dup4\n      sub\n      sub\n      dup2\n      mstore\n      swap1\n      0x40\n      mstore\n        /* \"tests/AnonymousVerifier.sol\":3178:3233  keccak256(abi.encodePacked(computedHash, proofElement)) */\n      dup1\n      mload\n      swap1\n      0x20\n      add\n      keccak256\n        /* \"tests/AnonymousVerifier.sol\":3163:3233  computedHash = keccak256(abi.encodePacked(computedHash, proofElement)) */\n      swap3\n      pop\n        /* \"tests/AnonymousVerifier.sol\":3007:3360  if (computedHash <= proofElement) {... */\n      jump(tag_51)\n    tag_48:\n        /* \"tests/AnonymousVerifier.sol\":3316:3328  proofElement */\n      dup1\n        /* \"tests/AnonymousVerifier.sol\":3330:3342  computedHash */\n      dup4\n        /* \"tests/AnonymousVerifier.sol\":3299:3343  abi.encodePacked(proofElement, computedHash) */\n      add(0x20, mload(0x40))\n      tag_52\n      swap3\n      swap2\n      swap1\n      tag_50\n      jump\t// in\n    tag_52:\n      mload(0x40)\n      0x20\n      dup2\n      dup4\n      sub\n      sub\n      dup2\n      mstore\n      swap1\n      0x40\n      mstore\n        /* \"tests/AnonymousVerifier.sol\":3289:3344  keccak256(abi.encodePacked(proofElement, computedHash)) */\n      dup1\n      mload\n      swap1\n      0x20\n      add\n      keccak256\n        /* \"tests/AnonymousVerifier.sol\":3274:3344  computedHash = keccak256(abi.encodePacked(proofElement, computedHash)) */\n      swap3\n      pop\n        /* \"tests/AnonymousVerifier.sol\":3007:3360  if (computedHash <= proofElement) {... */\n    tag_51:\n        /* \"tests/AnonymousVerifier.sol\":2836:3371  {... */\n      pop\n        /* \"tests/AnonymousVerifier.sol\":2831:2834  i++ */\n      dup1\n      dup1\n      0x01\n      add\n      swap2\n      pop\n      pop\n        /* \"tests/AnonymousVerifier.sol\":2793:3371  for (uint256 i = 0; i < proof.length; i++) {... */\n      jump(tag_42)\n    tag_43:\n      pop\n        /* \"tests/AnonymousVerifier.sol\":3499:3509  merkleRoot */\n      sload(0x01)\n        /* \"tests/AnonymousVerifier.sol\":3483:3495  computedHash */\n      dup2\n        /* \"tests/AnonymousVerifier.sol\":3483:3509  computedHash != merkleRoot */\n      eq\n        /* \"tests/AnonymousVerifier.sol\":3479:3698  if (computedHash != merkleRoot) {... */\n      tag_53\n      jumpi\n        /* \"tests/AnonymousVerifier.sol\":3531:3604  VerificationFailed(\"Kriptografski dokaz nije validan! Niste clan skupa.\") */\n      0xfafcac45bf99968f40be690e72dea3b27ddedbdb14acff7feb06a15cb5d55718\n      mload(0x40)\n      tag_54\n      swap1\n      tag_55\n      jump\t// in\n    tag_54:\n      mload(0x40)\n      dup1\n      swap2\n      sub\n      swap1\n      log1\n        /* \"tests/AnonymousVerifier.sol\":3643:3653  merkleRoot */\n      sload(0x01)\n        /* \"tests/AnonymousVerifier.sol\":3627:3639  computedHash */\n      dup2\n        /* \"tests/AnonymousVerifier.sol\":3627:3653  computedHash == merkleRoot */\n      eq\n        /* \"tests/AnonymousVerifier.sol\":3619:3686  require(computedHash == merkleRoot, \"Niste clan ovlascenog skupa!\") */\n      tag_56\n      jumpi\n      mload(0x40)\n      0x08c379a000000000000000000000000000000000000000000000000000000000\n      dup2\n      mstore\n      0x04\n      add\n      tag_57\n      swap1\n      tag_58\n      jump\t// in\n    tag_57:\n      mload(0x40)\n      dup1\n      swap2\n      sub\n      swap1\n      revert\n    tag_56:\n        /* \"tests/AnonymousVerifier.sol\":3479:3698  if (computedHash != merkleRoot) {... */\n    tag_53:\n        /* \"tests/AnonymousVerifier.sol\":3827:3831  true */\n      0x01\n        /* \"tests/AnonymousVerifier.sol\":3803:3813  nullifiers */\n      0x02\n        /* \"tests/AnonymousVerifier.sol\":3803:3824  nullifiers[nullifier] */\n      0x00\n        /* \"tests/AnonymousVerifier.sol\":3814:3823  nullifier */\n      dup6\n        /* \"tests/AnonymousVerifier.sol\":3803:3824  nullifiers[nullifier] */\n      dup2\n      mstore\n      0x20\n      add\n      swap1\n      dup2\n      mstore\n      0x20\n      add\n      0x00\n      keccak256\n      0x00\n        /* \"tests/AnonymousVerifier.sol\":3803:3831  nullifiers[nullifier] = true */\n      0x0100\n      exp\n      dup2\n      sload\n      dup2\n      0xff\n      mul\n      not\n      and\n      swap1\n      dup4\n      iszero\n      iszero\n      mul\n      or\n      swap1\n      sstore\n      pop\n        /* \"tests/AnonymousVerifier.sol\":3970:3979  nullifier */\n      dup3\n        /* \"tests/AnonymousVerifier.sol\":3950:3991  VerificationSuccess(nullifier, attribute) */\n      0x647b8e85c4ba0f20948face8b6569b60f76112f6f19e33887385d43014051871\n        /* \"tests/AnonymousVerifier.sol\":3981:3990  attribute */\n      dup4\n        /* \"tests/AnonymousVerifier.sol\":3950:3991  VerificationSuccess(nullifier, attribute) */\n      mload(0x40)\n      tag_59\n      swap2\n      swap1\n      tag_60\n      jump\t// in\n    tag_59:\n      mload(0x40)\n      dup1\n      swap2\n      sub\n      swap1\n      log2\n        /* \"tests/AnonymousVerifier.sol\":2248:3999  {... */\n      pop\n        /* \"tests/AnonymousVerifier.sol\":2089:3999  function verifyAttribute(... */\n      pop\n      pop\n      pop\n      pop\n      jump\t// out\n        /* \"tests/AnonymousVerifier.sol\":183:203  address public admin */\n    tag_26:\n      0x00\n      0x00\n      swap1\n      sload\n      swap1\n      0x0100\n      exp\n      swap1\n      div\n      0xffffffffffffffffffffffffffffffffffffffff\n      and\n      dup2\n      jump\t// out\n        /* \"#utility.yul\":7:82   */\n    tag_61:\n        /* \"#utility.yul\":40:46   */\n      0x00\n        /* \"#utility.yul\":73:75   */\n      0x40\n        /* \"#utility.yul\":67:76   */\n      mload\n        /* \"#utility.yul\":57:76   */\n      swap1\n      pop\n        /* \"#utility.yul\":7:82   */\n      swap1\n      jump\t// out\n        /* \"#utility.yul\":88:205   */\n    tag_62:\n        /* \"#utility.yul\":197:198   */\n      0x00\n        /* \"#utility.yul\":194:195   */\n      0x00\n        /* \"#utility.yul\":187:199   */\n      revert\n        /* \"#utility.yul\":211:328   */\n    tag_63:\n        /* \"#utility.yul\":320:321   */\n      0x00\n        /* \"#utility.yul\":317:318   */\n      0x00\n        /* \"#utility.yul\":310:322   */\n      revert\n        /* \"#utility.yul\":334:411   */\n    tag_64:\n        /* \"#utility.yul\":371:378   */\n      0x00\n        /* \"#utility.yul\":400:405   */\n      dup2\n        /* \"#utility.yul\":389:405   */\n      swap1\n      pop\n        /* \"#utility.yul\":334:411   */\n      swap2\n      swap1\n      pop\n      jump\t// out\n        /* \"#utility.yul\":417:539   */\n    tag_65:\n        /* \"#utility.yul\":490:514   */\n      tag_109\n        /* \"#utility.yul\":508:513   */\n      dup2\n        /* \"#utility.yul\":490:514   */\n      tag_64\n      jump\t// in\n    tag_109:\n        /* \"#utility.yul\":483:488   */\n      dup2\n        /* \"#utility.yul\":480:515   */\n      eq\n        /* \"#utility.yul\":470:533   */\n      tag_110\n      jumpi\n        /* \"#utility.yul\":529:530   */\n      0x00\n        /* \"#utility.yul\":526:527   */\n      0x00\n        /* \"#utility.yul\":519:531   */\n      revert\n        /* \"#utility.yul\":470:533   */\n    tag_110:\n        /* \"#utility.yul\":417:539   */\n      pop\n      jump\t// out\n        /* \"#utility.yul\":545:684   */\n    tag_66:\n        /* \"#utility.yul\":591:596   */\n      0x00\n        /* \"#utility.yul\":629:635   */\n      dup2\n        /* \"#utility.yul\":616:636   */\n      calldataload\n        /* \"#utility.yul\":607:636   */\n      swap1\n      pop\n        /* \"#utility.yul\":645:678   */\n      tag_112\n        /* \"#utility.yul\":672:677   */\n      dup2\n        /* \"#utility.yul\":645:678   */\n      tag_65\n      jump\t// in\n    tag_112:\n        /* \"#utility.yul\":545:684   */\n      swap3\n      swap2\n      pop\n      pop\n      jump\t// out\n        /* \"#utility.yul\":690:1019   */\n    tag_10:\n        /* \"#utility.yul\":749:755   */\n      0x00\n        /* \"#utility.yul\":798:800   */\n      0x20\n        /* \"#utility.yul\":786:795   */\n      dup3\n        /* \"#utility.yul\":777:784   */\n      dup5\n        /* \"#utility.yul\":773:796   */\n      sub\n        /* \"#utility.yul\":769:801   */\n      slt\n        /* \"#utility.yul\":766:885   */\n      iszero\n      tag_114\n      jumpi\n        /* \"#utility.yul\":804:883   */\n      tag_115\n      tag_62\n      jump\t// in\n    tag_115:\n        /* \"#utility.yul\":766:885   */\n    tag_114:\n        /* \"#utility.yul\":924:925   */\n      0x00\n        /* \"#utility.yul\":949:1002   */\n      tag_116\n        /* \"#utility.yul\":994:1001   */\n      dup5\n        /* \"#utility.yul\":985:991   */\n      dup3\n        /* \"#utility.yul\":974:983   */\n      dup6\n        /* \"#utility.yul\":970:992   */\n      add\n        /* \"#utility.yul\":949:1002   */\n      tag_66\n      jump\t// in\n    tag_116:\n        /* \"#utility.yul\":939:1002   */\n      swap2\n      pop\n        /* \"#utility.yul\":895:1012   */\n      pop\n        /* \"#utility.yul\":690:1019   */\n      swap3\n      swap2\n      pop\n      pop\n      jump\t// out\n        /* \"#utility.yul\":1025:1115   */\n    tag_67:\n        /* \"#utility.yul\":1059:1066   */\n      0x00\n        /* \"#utility.yul\":1102:1107   */\n      dup2\n        /* \"#utility.yul\":1095:1108   */\n      iszero\n        /* \"#utility.yul\":1088:1109   */\n      iszero\n        /* \"#utility.yul\":1077:1109   */\n      swap1\n      pop\n        /* \"#utility.yul\":1025:1115   */\n      swap2\n      swap1\n      pop\n      jump\t// out\n        /* \"#utility.yul\":1121:1230   */\n    tag_68:\n        /* \"#utility.yul\":1202:1223   */\n      tag_119\n        /* \"#utility.yul\":1217:1222   */\n      dup2\n        /* \"#utility.yul\":1202:1223   */\n      tag_67\n      jump\t// in\n    tag_119:\n        /* \"#utility.yul\":1197:1200   */\n      dup3\n        /* \"#utility.yul\":1190:1224   */\n      mstore\n        /* \"#utility.yul\":1121:1230   */\n      pop\n      pop\n      jump\t// out\n        /* \"#utility.yul\":1236:1446   */\n    tag_13:\n        /* \"#utility.yul\":1323:1327   */\n      0x00\n        /* \"#utility.yul\":1361:1363   */\n      0x20\n        /* \"#utility.yul\":1350:1359   */\n      dup3\n        /* \"#utility.yul\":1346:1364   */\n      add\n        /* \"#utility.yul\":1338:1364   */\n      swap1\n      pop\n        /* \"#utility.yul\":1374:1439   */\n      tag_121\n        /* \"#utility.yul\":1436:1437   */\n      0x00\n        /* \"#utility.yul\":1425:1434   */\n      dup4\n        /* \"#utility.yul\":1421:1438   */\n      add\n        /* \"#utility.yul\":1412:1418   */\n      dup5\n        /* \"#utility.yul\":1374:1439   */\n      tag_68\n      jump\t// in\n    tag_121:\n        /* \"#utility.yul\":1236:1446   */\n      swap3\n      swap2\n      pop\n      pop\n      jump\t// out\n        /* \"#utility.yul\":1452:1570   */\n    tag_69:\n        /* \"#utility.yul\":1539:1563   */\n      tag_123\n        /* \"#utility.yul\":1557:1562   */\n      dup2\n        /* \"#utility.yul\":1539:1563   */\n      tag_64\n      jump\t// in\n    tag_123:\n        /* \"#utility.yul\":1534:1537   */\n      dup3\n        /* \"#utility.yul\":1527:1564   */\n      mstore\n        /* \"#utility.yul\":1452:1570   */\n      pop\n      pop\n      jump\t// out\n        /* \"#utility.yul\":1576:1798   */\n    tag_17:\n        /* \"#utility.yul\":1669:1673   */\n      0x00\n        /* \"#utility.yul\":1707:1709   */\n      0x20\n        /* \"#utility.yul\":1696:1705   */\n      dup3\n        /* \"#utility.yul\":1692:1710   */\n      add\n        /* \"#utility.yul\":1684:1710   */\n      swap1\n      pop\n        /* \"#utility.yul\":1720:1791   */\n      tag_125\n        /* \"#utility.yul\":1788:1789   */\n      0x00\n        /* \"#utility.yul\":1777:1786   */\n      dup4\n        /* \"#utility.yul\":1773:1790   */\n      add\n        /* \"#utility.yul\":1764:1770   */\n      dup5\n        /* \"#utility.yul\":1720:1791   */\n      tag_69\n      jump\t// in\n    tag_125:\n        /* \"#utility.yul\":1576:1798   */\n      swap3\n      swap2\n      pop\n      pop\n      jump\t// out\n        /* \"#utility.yul\":1804:1921   */\n    tag_70:\n        /* \"#utility.yul\":1913:1914   */\n      0x00\n        /* \"#utility.yul\":1910:1911   */\n      0x00\n        /* \"#utility.yul\":1903:1915   */\n      revert\n        /* \"#utility.yul\":1927:2029   */\n    tag_71:\n        /* \"#utility.yul\":1968:1974   */\n      0x00\n        /* \"#utility.yul\":2019:2021   */\n      0x1f\n        /* \"#utility.yul\":2015:2022   */\n      not\n        /* \"#utility.yul\":2010:2012   */\n      0x1f\n        /* \"#utility.yul\":2003:2008   */\n      dup4\n        /* \"#utility.yul\":1999:2013   */\n      add\n        /* \"#utility.yul\":1995:2023   */\n      and\n        /* \"#utility.yul\":1985:2023   */\n      swap1\n      pop\n        /* \"#utility.yul\":1927:2029   */\n      swap2\n      swap1\n      pop\n      jump\t// out\n        /* \"#utility.yul\":2035:2215   */\n    tag_72:\n        /* \"#utility.yul\":2083:2160   */\n      0x4e487b7100000000000000000000000000000000000000000000000000000000\n        /* \"#utility.yul\":2080:2081   */\n      0x00\n        /* \"#utility.yul\":2073:2161   */\n      mstore\n        /* \"#utility.yul\":2180:2184   */\n      0x41\n        /* \"#utility.yul\":2177:2178   */\n      0x04\n        /* \"#utility.yul\":2170:2185   */\n      mstore\n        /* \"#utility.yul\":2204:2208   */\n      0x24\n        /* \"#utility.yul\":2201:2202   */\n      0x00\n        /* \"#utility.yul\":2194:2209   */\n      revert\n        /* \"#utility.yul\":2221:2502   */\n    tag_73:\n        /* \"#utility.yul\":2304:2331   */\n      tag_130\n        /* \"#utility.yul\":2326:2330   */\n      dup3\n        /* \"#utility.yul\":2304:2331   */\n      tag_71\n      jump\t// in\n    tag_130:\n        /* \"#utility.yul\":2296:2302   */\n      dup2\n        /* \"#utility.yul\":2292:2332   */\n      add\n        /* \"#utility.yul\":2434:2440   */\n      dup2\n        /* \"#utility.yul\":2422:2432   */\n      dup2\n        /* \"#utility.yul\":2419:2441   */\n      lt\n        /* \"#utility.yul\":2398:2416   */\n      0xffffffffffffffff\n        /* \"#utility.yul\":2386:2396   */\n      dup3\n        /* \"#utility.yul\":2383:2417   */\n      gt\n        /* \"#utility.yul\":2380:2442   */\n      or\n        /* \"#utility.yul\":2377:2465   */\n      iszero\n      tag_131\n      jumpi\n        /* \"#utility.yul\":2445:2463   */\n      tag_132\n      tag_72\n      jump\t// in\n    tag_132:\n        /* \"#utility.yul\":2377:2465   */\n    tag_131:\n        /* \"#utility.yul\":2485:2495   */\n      dup1\n        /* \"#utility.yul\":2481:2483   */\n      0x40\n        /* \"#utility.yul\":2474:2496   */\n      mstore\n        /* \"#utility.yul\":2264:2502   */\n      pop\n        /* \"#utility.yul\":2221:2502   */\n      pop\n      pop\n      jump\t// out\n        /* \"#utility.yul\":2508:2637   */\n    tag_74:\n        /* \"#utility.yul\":2542:2548   */\n      0x00\n        /* \"#utility.yul\":2569:2589   */\n      tag_134\n      tag_61\n      jump\t// in\n    tag_134:\n        /* \"#utility.yul\":2559:2589   */\n      swap1\n      pop\n        /* \"#utility.yul\":2598:2631   */\n      tag_135\n        /* \"#utility.yul\":2626:2630   */\n      dup3\n        /* \"#utility.yul\":2618:2624   */\n      dup3\n        /* \"#utility.yul\":2598:2631   */\n      tag_73\n      jump\t// in\n    tag_135:\n        /* \"#utility.yul\":2508:2637   */\n      swap2\n      swap1\n      pop\n      jump\t// out\n        /* \"#utility.yul\":2643:2954   */\n    tag_75:\n        /* \"#utility.yul\":2720:2724   */\n      0x00\n        /* \"#utility.yul\":2810:2828   */\n      0xffffffffffffffff\n        /* \"#utility.yul\":2802:2808   */\n      dup3\n        /* \"#utility.yul\":2799:2829   */\n      gt\n        /* \"#utility.yul\":2796:2852   */\n      iszero\n      tag_137\n      jumpi\n        /* \"#utility.yul\":2832:2850   */\n      tag_138\n      tag_72\n      jump\t// in\n    tag_138:\n        /* \"#utility.yul\":2796:2852   */\n    tag_137:\n        /* \"#utility.yul\":2882:2886   */\n      0x20\n        /* \"#utility.yul\":2874:2880   */\n      dup3\n        /* \"#utility.yul\":2870:2887   */\n      mul\n        /* \"#utility.yul\":2862:2887   */\n      swap1\n      pop\n        /* \"#utility.yul\":2942:2946   */\n      0x20\n        /* \"#utility.yul\":2936:2940   */\n      dup2\n        /* \"#utility.yul\":2932:2947   */\n      add\n        /* \"#utility.yul\":2924:2947   */\n      swap1\n      pop\n        /* \"#utility.yul\":2643:2954   */\n      swap2\n      swap1\n      pop\n      jump\t// out\n        /* \"#utility.yul\":2960:3077   */\n    tag_76:\n        /* \"#utility.yul\":3069:3070   */\n      0x00\n        /* \"#utility.yul\":3066:3067   */\n      0x00\n        /* \"#utility.yul\":3059:3071   */\n      revert\n        /* \"#utility.yul\":3100:3810   */\n    tag_77:\n        /* \"#utility.yul\":3196:3201   */\n      0x00\n        /* \"#utility.yul\":3221:3302   */\n      tag_141\n        /* \"#utility.yul\":3237:3301   */\n      tag_142\n        /* \"#utility.yul\":3294:3300   */\n      dup5\n        /* \"#utility.yul\":3237:3301   */\n      tag_75\n      jump\t// in\n    tag_142:\n        /* \"#utility.yul\":3221:3302   */\n      tag_74\n      jump\t// in\n    tag_141:\n        /* \"#utility.yul\":3212:3302   */\n      swap1\n      pop\n        /* \"#utility.yul\":3322:3327   */\n      dup1\n        /* \"#utility.yul\":3351:3357   */\n      dup4\n        /* \"#utility.yul\":3344:3349   */\n      dup3\n        /* \"#utility.yul\":3337:3358   */\n      mstore\n        /* \"#utility.yul\":3385:3389   */\n      0x20\n        /* \"#utility.yul\":3378:3383   */\n      dup3\n        /* \"#utility.yul\":3374:3390   */\n      add\n        /* \"#utility.yul\":3367:3390   */\n      swap1\n      pop\n        /* \"#utility.yul\":3438:3442   */\n      0x20\n        /* \"#utility.yul\":3430:3436   */\n      dup5\n        /* \"#utility.yul\":3426:3443   */\n      mul\n        /* \"#utility.yul\":3418:3424   */\n      dup4\n        /* \"#utility.yul\":3414:3444   */\n      add\n        /* \"#utility.yul\":3467:3470   */\n      dup6\n        /* \"#utility.yul\":3459:3465   */\n      dup2\n        /* \"#utility.yul\":3456:3471   */\n      gt\n        /* \"#utility.yul\":3453:3575   */\n      iszero\n      tag_143\n      jumpi\n        /* \"#utility.yul\":3486:3565   */\n      tag_144\n      tag_76\n      jump\t// in\n    tag_144:\n        /* \"#utility.yul\":3453:3575   */\n    tag_143:\n        /* \"#utility.yul\":3601:3607   */\n      dup4\n        /* \"#utility.yul\":3584:3804   */\n    tag_145:\n        /* \"#utility.yul\":3618:3624   */\n      dup2\n        /* \"#utility.yul\":3613:3616   */\n      dup2\n        /* \"#utility.yul\":3610:3625   */\n      lt\n        /* \"#utility.yul\":3584:3804   */\n      iszero\n      tag_147\n      jumpi\n        /* \"#utility.yul\":3693:3696   */\n      dup1\n        /* \"#utility.yul\":3722:3759   */\n      tag_148\n        /* \"#utility.yul\":3755:3758   */\n      dup9\n        /* \"#utility.yul\":3743:3753   */\n      dup3\n        /* \"#utility.yul\":3722:3759   */\n      tag_66\n      jump\t// in\n    tag_148:\n        /* \"#utility.yul\":3717:3720   */\n      dup5\n        /* \"#utility.yul\":3710:3760   */\n      mstore\n        /* \"#utility.yul\":3789:3793   */\n      0x20\n        /* \"#utility.yul\":3784:3787   */\n      dup5\n        /* \"#utility.yul\":3780:3794   */\n      add\n        /* \"#utility.yul\":3773:3794   */\n      swap4\n      pop\n        /* \"#utility.yul\":3660:3804   */\n      pop\n        /* \"#utility.yul\":3644:3648   */\n      0x20\n        /* \"#utility.yul\":3639:3642   */\n      dup2\n        /* \"#utility.yul\":3635:3649   */\n      add\n        /* \"#utility.yul\":3628:3649   */\n      swap1\n      pop\n        /* \"#utility.yul\":3584:3804   */\n      jump(tag_145)\n    tag_147:\n        /* \"#utility.yul\":3588:3609   */\n      pop\n        /* \"#utility.yul\":3202:3810   */\n      pop\n      pop\n        /* \"#utility.yul\":3100:3810   */\n      swap4\n      swap3\n      pop\n      pop\n      pop\n      jump\t// out\n        /* \"#utility.yul\":3833:4203   */\n    tag_78:\n        /* \"#utility.yul\":3904:3909   */\n      0x00\n        /* \"#utility.yul\":3953:3956   */\n      dup3\n        /* \"#utility.yul\":3946:3950   */\n      0x1f\n        /* \"#utility.yul\":3938:3944   */\n      dup4\n        /* \"#utility.yul\":3934:3951   */\n      add\n        /* \"#utility.yul\":3930:3957   */\n      slt\n        /* \"#utility.yul\":3920:4042   */\n      tag_150\n      jumpi\n        /* \"#utility.yul\":3961:4040   */\n      tag_151\n      tag_70\n      jump\t// in\n    tag_151:\n        /* \"#utility.yul\":3920:4042   */\n    tag_150:\n        /* \"#utility.yul\":4078:4084   */\n      dup2\n        /* \"#utility.yul\":4065:4085   */\n      calldataload\n        /* \"#utility.yul\":4103:4197   */\n      tag_152\n        /* \"#utility.yul\":4193:4196   */\n      dup5\n        /* \"#utility.yul\":4185:4191   */\n      dup3\n        /* \"#utility.yul\":4178:4182   */\n      0x20\n        /* \"#utility.yul\":4170:4176   */\n      dup7\n        /* \"#utility.yul\":4166:4183   */\n      add\n        /* \"#utility.yul\":4103:4197   */\n      tag_77\n      jump\t// in\n    tag_152:\n        /* \"#utility.yul\":4094:4197   */\n      swap2\n      pop\n        /* \"#utility.yul\":3910:4203   */\n      pop\n        /* \"#utility.yul\":3833:4203   */\n      swap3\n      swap2\n      pop\n      pop\n      jump\t// out\n        /* \"#utility.yul\":4209:4326   */\n    tag_79:\n        /* \"#utility.yul\":4318:4319   */\n      0x00\n        /* \"#utility.yul\":4315:4316   */\n      0x00\n        /* \"#utility.yul\":4308:4320   */\n      revert\n        /* \"#utility.yul\":4332:4640   */\n    tag_80:\n        /* \"#utility.yul\":4394:4398   */\n      0x00\n        /* \"#utility.yul\":4484:4502   */\n      0xffffffffffffffff\n        /* \"#utility.yul\":4476:4482   */\n      dup3\n        /* \"#utility.yul\":4473:4503   */\n      gt\n        /* \"#utility.yul\":4470:4526   */\n      iszero\n      tag_155\n      jumpi\n        /* \"#utility.yul\":4506:4524   */\n      tag_156\n      tag_72\n      jump\t// in\n    tag_156:\n        /* \"#utility.yul\":4470:4526   */\n    tag_155:\n        /* \"#utility.yul\":4544:4573   */\n      tag_157\n        /* \"#utility.yul\":4566:4572   */\n      dup3\n        /* \"#utility.yul\":4544:4573   */\n      tag_71\n      jump\t// in\n    tag_157:\n        /* \"#utility.yul\":4536:4573   */\n      swap1\n      pop\n        /* \"#utility.yul\":4628:4632   */\n      0x20\n        /* \"#utility.yul\":4622:4626   */\n      dup2\n        /* \"#utility.yul\":4618:4633   */\n      add\n        /* \"#utility.yul\":4610:4633   */\n      swap1\n      pop\n        /* \"#utility.yul\":4332:4640   */\n      swap2\n      swap1\n      pop\n      jump\t// out\n        /* \"#utility.yul\":4646:4794   */\n    tag_81:\n        /* \"#utility.yul\":4744:4750   */\n      dup3\n        /* \"#utility.yul\":4739:4742   */\n      dup2\n        /* \"#utility.yul\":4734:4737   */\n      dup4\n        /* \"#utility.yul\":4721:4751   */\n      calldatacopy\n        /* \"#utility.yul\":4785:4786   */\n      0x00\n        /* \"#utility.yul\":4776:4782   */\n      dup4\n        /* \"#utility.yul\":4771:4774   */\n      dup4\n        /* \"#utility.yul\":4767:4783   */\n      add\n        /* \"#utility.yul\":4760:4787   */\n      mstore\n        /* \"#utility.yul\":4646:4794   */\n      pop\n      pop\n      pop\n      jump\t// out\n        /* \"#utility.yul\":4800:5225   */\n    tag_82:\n        /* \"#utility.yul\":4878:4883   */\n      0x00\n        /* \"#utility.yul\":4903:4969   */\n      tag_160\n        /* \"#utility.yul\":4919:4968   */\n      tag_161\n        /* \"#utility.yul\":4961:4967   */\n      dup5\n        /* \"#utility.yul\":4919:4968   */\n      tag_80\n      jump\t// in\n    tag_161:\n        /* \"#utility.yul\":4903:4969   */\n      tag_74\n      jump\t// in\n    tag_160:\n        /* \"#utility.yul\":4894:4969   */\n      swap1\n      pop\n        /* \"#utility.yul\":4992:4998   */\n      dup3\n        /* \"#utility.yul\":4985:4990   */\n      dup2\n        /* \"#utility.yul\":4978:4999   */\n      mstore\n        /* \"#utility.yul\":5030:5034   */\n      0x20\n        /* \"#utility.yul\":5023:5028   */\n      dup2\n        /* \"#utility.yul\":5019:5035   */\n      add\n        /* \"#utility.yul\":5068:5071   */\n      dup5\n        /* \"#utility.yul\":5059:5065   */\n      dup5\n        /* \"#utility.yul\":5054:5057   */\n      dup5\n        /* \"#utility.yul\":5050:5066   */\n      add\n        /* \"#utility.yul\":5047:5072   */\n      gt\n        /* \"#utility.yul\":5044:5156   */\n      iszero\n      tag_162\n      jumpi\n        /* \"#utility.yul\":5075:5154   */\n      tag_163\n      tag_79\n      jump\t// in\n    tag_163:\n        /* \"#utility.yul\":5044:5156   */\n    tag_162:\n        /* \"#utility.yul\":5165:5219   */\n      tag_164\n        /* \"#utility.yul\":5212:5218   */\n      dup5\n        /* \"#utility.yul\":5207:5210   */\n      dup3\n        /* \"#utility.yul\":5202:5205   */\n      dup6\n        /* \"#utility.yul\":5165:5219   */\n      tag_81\n      jump\t// in\n    tag_164:\n        /* \"#utility.yul\":4884:5225   */\n      pop\n        /* \"#utility.yul\":4800:5225   */\n      swap4\n      swap3\n      pop\n      pop\n      pop\n      jump\t// out\n        /* \"#utility.yul\":5245:5585   */\n    tag_83:\n        /* \"#utility.yul\":5301:5306   */\n      0x00\n        /* \"#utility.yul\":5350:5353   */\n      dup3\n        /* \"#utility.yul\":5343:5347   */\n      0x1f\n        /* \"#utility.yul\":5335:5341   */\n      dup4\n        /* \"#utility.yul\":5331:5348   */\n      add\n        /* \"#utility.yul\":5327:5354   */\n      slt\n        /* \"#utility.yul\":5317:5439   */\n      tag_166\n      jumpi\n        /* \"#utility.yul\":5358:5437   */\n      tag_167\n      tag_70\n      jump\t// in\n    tag_167:\n        /* \"#utility.yul\":5317:5439   */\n    tag_166:\n        /* \"#utility.yul\":5475:5481   */\n      dup2\n        /* \"#utility.yul\":5462:5482   */\n      calldataload\n        /* \"#utility.yul\":5500:5579   */\n      tag_168\n        /* \"#utility.yul\":5575:5578   */\n      dup5\n        /* \"#utility.yul\":5567:5573   */\n      dup3\n        /* \"#utility.yul\":5560:5564   */\n      0x20\n        /* \"#utility.yul\":5552:5558   */\n      dup7\n        /* \"#utility.yul\":5548:5565   */\n      add\n        /* \"#utility.yul\":5500:5579   */\n      tag_82\n      jump\t// in\n    tag_168:\n        /* \"#utility.yul\":5491:5579   */\n      swap2\n      pop\n        /* \"#utility.yul\":5307:5585   */\n      pop\n        /* \"#utility.yul\":5245:5585   */\n      swap3\n      swap2\n      pop\n      pop\n      jump\t// out\n        /* \"#utility.yul\":5591:6746   */\n    tag_23:\n        /* \"#utility.yul\":5712:5718   */\n      0x00\n        /* \"#utility.yul\":5720:5726   */\n      0x00\n        /* \"#utility.yul\":5728:5734   */\n      0x00\n        /* \"#utility.yul\":5736:5742   */\n      0x00\n        /* \"#utility.yul\":5785:5788   */\n      0x80\n        /* \"#utility.yul\":5773:5782   */\n      dup6\n        /* \"#utility.yul\":5764:5771   */\n      dup8\n        /* \"#utility.yul\":5760:5783   */\n      sub\n        /* \"#utility.yul\":5756:5789   */\n      slt\n        /* \"#utility.yul\":5753:5873   */\n      iszero\n      tag_170\n      jumpi\n        /* \"#utility.yul\":5792:5871   */\n      tag_171\n      tag_62\n      jump\t// in\n    tag_171:\n        /* \"#utility.yul\":5753:5873   */\n    tag_170:\n        /* \"#utility.yul\":5940:5941   */\n      0x00\n        /* \"#utility.yul\":5929:5938   */\n      dup6\n        /* \"#utility.yul\":5925:5942   */\n      add\n        /* \"#utility.yul\":5912:5943   */\n      calldataload\n        /* \"#utility.yul\":5970:5988   */\n      0xffffffffffffffff\n        /* \"#utility.yul\":5962:5968   */\n      dup2\n        /* \"#utility.yul\":5959:5989   */\n      gt\n        /* \"#utility.yul\":5956:6073   */\n      iszero\n      tag_172\n      jumpi\n        /* \"#utility.yul\":5992:6071   */\n      tag_173\n      tag_63\n      jump\t// in\n    tag_173:\n        /* \"#utility.yul\":5956:6073   */\n    tag_172:\n        /* \"#utility.yul\":6097:6175   */\n      tag_174\n        /* \"#utility.yul\":6167:6174   */\n      dup8\n        /* \"#utility.yul\":6158:6164   */\n      dup3\n        /* \"#utility.yul\":6147:6156   */\n      dup9\n        /* \"#utility.yul\":6143:6165   */\n      add\n        /* \"#utility.yul\":6097:6175   */\n      tag_78\n      jump\t// in\n    tag_174:\n        /* \"#utility.yul\":6087:6175   */\n      swap5\n      pop\n        /* \"#utility.yul\":5883:6185   */\n      pop\n        /* \"#utility.yul\":6224:6226   */\n      0x20\n        /* \"#utility.yul\":6250:6303   */\n      tag_175\n        /* \"#utility.yul\":6295:6302   */\n      dup8\n        /* \"#utility.yul\":6286:6292   */\n      dup3\n        /* \"#utility.yul\":6275:6284   */\n      dup9\n        /* \"#utility.yul\":6271:6293   */\n      add\n        /* \"#utility.yul\":6250:6303   */\n      tag_66\n      jump\t// in\n    tag_175:\n        /* \"#utility.yul\":6240:6303   */\n      swap4\n      pop\n        /* \"#utility.yul\":6195:6313   */\n      pop\n        /* \"#utility.yul\":6352:6354   */\n      0x40\n        /* \"#utility.yul\":6378:6431   */\n      tag_176\n        /* \"#utility.yul\":6423:6430   */\n      dup8\n        /* \"#utility.yul\":6414:6420   */\n      dup3\n        /* \"#utility.yul\":6403:6412   */\n      dup9\n        /* \"#utility.yul\":6399:6421   */\n      add\n        /* \"#utility.yul\":6378:6431   */\n      tag_66\n      jump\t// in\n    tag_176:\n        /* \"#utility.yul\":6368:6431   */\n      swap3\n      pop\n        /* \"#utility.yul\":6323:6441   */\n      pop\n        /* \"#utility.yul\":6508:6510   */\n      0x60\n        /* \"#utility.yul\":6497:6506   */\n      dup6\n        /* \"#utility.yul\":6493:6511   */\n      add\n        /* \"#utility.yul\":6480:6512   */\n      calldataload\n        /* \"#utility.yul\":6539:6557   */\n      0xffffffffffffffff\n        /* \"#utility.yul\":6531:6537   */\n      dup2\n        /* \"#utility.yul\":6528:6558   */\n      gt\n        /* \"#utility.yul\":6525:6642   */\n      iszero\n      tag_177\n      jumpi\n        /* \"#utility.yul\":6561:6640   */\n      tag_178\n      tag_63\n      jump\t// in\n    tag_178:\n        /* \"#utility.yul\":6525:6642   */\n    tag_177:\n        /* \"#utility.yul\":6666:6729   */\n      tag_179\n        /* \"#utility.yul\":6721:6728   */\n      dup8\n        /* \"#utility.yul\":6712:6718   */\n      dup3\n        /* \"#utility.yul\":6701:6710   */\n      dup9\n        /* \"#utility.yul\":6697:6719   */\n      add\n        /* \"#utility.yul\":6666:6729   */\n      tag_83\n      jump\t// in\n    tag_179:\n        /* \"#utility.yul\":6656:6729   */\n      swap2\n      pop\n        /* \"#utility.yul\":6451:6739   */\n      pop\n        /* \"#utility.yul\":5591:6746   */\n      swap3\n      swap6\n      swap2\n      swap5\n      pop\n      swap3\n      pop\n      jump\t// out\n        /* \"#utility.yul\":6752:6878   */\n    tag_84:\n        /* \"#utility.yul\":6789:6796   */\n      0x00\n        /* \"#utility.yul\":6829:6871   */\n      0xffffffffffffffffffffffffffffffffffffffff\n        /* \"#utility.yul\":6822:6827   */\n      dup3\n        /* \"#utility.yul\":6818:6872   */\n      and\n        /* \"#utility.yul\":6807:6872   */\n      swap1\n      pop\n        /* \"#utility.yul\":6752:6878   */\n      swap2\n      swap1\n      pop\n      jump\t// out\n        /* \"#utility.yul\":6884:6980   */\n    tag_85:\n        /* \"#utility.yul\":6921:6928   */\n      0x00\n        /* \"#utility.yul\":6950:6974   */\n      tag_182\n        /* \"#utility.yul\":6968:6973   */\n      dup3\n        /* \"#utility.yul\":6950:6974   */\n      tag_84\n      jump\t// in\n    tag_182:\n        /* \"#utility.yul\":6939:6974   */\n      swap1\n      pop\n        /* \"#utility.yul\":6884:6980   */\n      swap2\n      swap1\n      pop\n      jump\t// out\n        /* \"#utility.yul\":6986:7104   */\n    tag_86:\n        /* \"#utility.yul\":7073:7097   */\n      tag_184\n        /* \"#utility.yul\":7091:7096   */\n      dup2\n        /* \"#utility.yul\":7073:7097   */\n      tag_85\n      jump\t// in\n    tag_184:\n        /* \"#utility.yul\":7068:7071   */\n      dup3\n        /* \"#utility.yul\":7061:7098   */\n      mstore\n        /* \"#utility.yul\":6986:7104   */\n      pop\n      pop\n      jump\t// out\n        /* \"#utility.yul\":7110:7332   */\n    tag_28:\n        /* \"#utility.yul\":7203:7207   */\n      0x00\n        /* \"#utility.yul\":7241:7243   */\n      0x20\n        /* \"#utility.yul\":7230:7239   */\n      dup3\n        /* \"#utility.yul\":7226:7244   */\n      add\n        /* \"#utility.yul\":7218:7244   */\n      swap1\n      pop\n        /* \"#utility.yul\":7254:7325   */\n      tag_186\n        /* \"#utility.yul\":7322:7323   */\n      0x00\n        /* \"#utility.yul\":7311:7320   */\n      dup4\n        /* \"#utility.yul\":7307:7324   */\n      add\n        /* \"#utility.yul\":7298:7304   */\n      dup5\n        /* \"#utility.yul\":7254:7325   */\n      tag_86\n      jump\t// in\n    tag_186:\n        /* \"#utility.yul\":7110:7332   */\n      swap3\n      swap2\n      pop\n      pop\n      jump\t// out\n        /* \"#utility.yul\":7338:7507   */\n    tag_87:\n        /* \"#utility.yul\":7422:7433   */\n      0x00\n        /* \"#utility.yul\":7456:7462   */\n      dup3\n        /* \"#utility.yul\":7451:7454   */\n      dup3\n        /* \"#utility.yul\":7444:7463   */\n      mstore\n        /* \"#utility.yul\":7496:7500   */\n      0x20\n        /* \"#utility.yul\":7491:7494   */\n      dup3\n        /* \"#utility.yul\":7487:7501   */\n      add\n        /* \"#utility.yul\":7472:7501   */\n      swap1\n      pop\n        /* \"#utility.yul\":7338:7507   */\n      swap3\n      swap2\n      pop\n      pop\n      jump\t// out\n        /* \"#utility.yul\":7513:7745   */\n    tag_88:\n        /* \"#utility.yul\":7653:7687   */\n      0x53616d6f2061646d696e6973747261746f72206d6f7a6520697a767273697469\n        /* \"#utility.yul\":7649:7650   */\n      0x00\n        /* \"#utility.yul\":7641:7647   */\n      dup3\n        /* \"#utility.yul\":7637:7651   */\n      add\n        /* \"#utility.yul\":7630:7688   */\n      mstore\n        /* \"#utility.yul\":7722:7737   */\n      0x206f76752066756e6b63696a7500000000000000000000000000000000000000\n        /* \"#utility.yul\":7717:7719   */\n      0x20\n        /* \"#utility.yul\":7709:7715   */\n      dup3\n        /* \"#utility.yul\":7705:7720   */\n      add\n        /* \"#utility.yul\":7698:7738   */\n      mstore\n        /* \"#utility.yul\":7513:7745   */\n      pop\n      jump\t// out\n        /* \"#utility.yul\":7751:8117   */\n    tag_89:\n        /* \"#utility.yul\":7893:7896   */\n      0x00\n        /* \"#utility.yul\":7914:7981   */\n      tag_190\n        /* \"#utility.yul\":7978:7980   */\n      0x2d\n        /* \"#utility.yul\":7973:7976   */\n      dup4\n        /* \"#utility.yul\":7914:7981   */\n      tag_87\n      jump\t// in\n    tag_190:\n        /* \"#utility.yul\":7907:7981   */\n      swap2\n      pop\n        /* \"#utility.yul\":7990:8083   */\n      tag_191\n        /* \"#utility.yul\":8079:8082   */\n      dup3\n        /* \"#utility.yul\":7990:8083   */\n      tag_88\n      jump\t// in\n    tag_191:\n        /* \"#utility.yul\":8108:8110   */\n      0x40\n        /* \"#utility.yul\":8103:8106   */\n      dup3\n        /* \"#utility.yul\":8099:8111   */\n      add\n        /* \"#utility.yul\":8092:8111   */\n      swap1\n      pop\n        /* \"#utility.yul\":7751:8117   */\n      swap2\n      swap1\n      pop\n      jump\t// out\n        /* \"#utility.yul\":8123:8542   */\n    tag_32:\n        /* \"#utility.yul\":8289:8293   */\n      0x00\n        /* \"#utility.yul\":8327:8329   */\n      0x20\n        /* \"#utility.yul\":8316:8325   */\n      dup3\n        /* \"#utility.yul\":8312:8330   */\n      add\n        /* \"#utility.yul\":8304:8330   */\n      swap1\n      pop\n        /* \"#utility.yul\":8376:8385   */\n      dup2\n        /* \"#utility.yul\":8370:8374   */\n      dup2\n        /* \"#utility.yul\":8366:8386   */\n      sub\n        /* \"#utility.yul\":8362:8363   */\n      0x00\n        /* \"#utility.yul\":8351:8360   */\n      dup4\n        /* \"#utility.yul\":8347:8364   */\n      add\n        /* \"#utility.yul\":8340:8387   */\n      mstore\n        /* \"#utility.yul\":8404:8535   */\n      tag_193\n        /* \"#utility.yul\":8530:8534   */\n      dup2\n        /* \"#utility.yul\":8404:8535   */\n      tag_89\n      jump\t// in\n    tag_193:\n        /* \"#utility.yul\":8396:8535   */\n      swap1\n      pop\n        /* \"#utility.yul\":8123:8542   */\n      swap2\n      swap1\n      pop\n      jump\t// out\n        /* \"#utility.yul\":8548:8794   */\n    tag_90:\n        /* \"#utility.yul\":8688:8722   */\n      0x4f76616a20646f6b617a206a6520766563206a65646e6f6d2069736b6f726973\n        /* \"#utility.yul\":8684:8685   */\n      0x00\n        /* \"#utility.yul\":8676:8682   */\n      dup3\n        /* \"#utility.yul\":8672:8686   */\n      add\n        /* \"#utility.yul\":8665:8723   */\n      mstore\n        /* \"#utility.yul\":8757:8786   */\n      0x63656e20284e756c6c69666965722069736b6f72697363656e29210000000000\n        /* \"#utility.yul\":8752:8754   */\n      0x20\n        /* \"#utility.yul\":8744:8750   */\n      dup3\n        /* \"#utility.yul\":8740:8755   */\n      add\n        /* \"#utility.yul\":8733:8787   */\n      mstore\n        /* \"#utility.yul\":8548:8794   */\n      pop\n      jump\t// out\n        /* \"#utility.yul\":8800:9166   */\n    tag_91:\n        /* \"#utility.yul\":8942:8945   */\n      0x00\n        /* \"#utility.yul\":8963:9030   */\n      tag_196\n        /* \"#utility.yul\":9027:9029   */\n      0x3b\n        /* \"#utility.yul\":9022:9025   */\n      dup4\n        /* \"#utility.yul\":8963:9030   */\n      tag_87\n      jump\t// in\n    tag_196:\n        /* \"#utility.yul\":8956:9030   */\n      swap2\n      pop\n        /* \"#utility.yul\":9039:9132   */\n      tag_197\n        /* \"#utility.yul\":9128:9131   */\n      dup3\n        /* \"#utility.yul\":9039:9132   */\n      tag_90\n      jump\t// in\n    tag_197:\n        /* \"#utility.yul\":9157:9159   */\n      0x40\n        /* \"#utility.yul\":9152:9155   */\n      dup3\n        /* \"#utility.yul\":9148:9160   */\n      add\n        /* \"#utility.yul\":9141:9160   */\n      swap1\n      pop\n        /* \"#utility.yul\":8800:9166   */\n      swap2\n      swap1\n      pop\n      jump\t// out\n        /* \"#utility.yul\":9172:9591   */\n    tag_38:\n        /* \"#utility.yul\":9338:9342   */\n      0x00\n        /* \"#utility.yul\":9376:9378   */\n      0x20\n        /* \"#utility.yul\":9365:9374   */\n      dup3\n        /* \"#utility.yul\":9361:9379   */\n      add\n        /* \"#utility.yul\":9353:9379   */\n      swap1\n      pop\n        /* \"#utility.yul\":9425:9434   */\n      dup2\n        /* \"#utility.yul\":9419:9423   */\n      dup2\n        /* \"#utility.yul\":9415:9435   */\n      sub\n        /* \"#utility.yul\":9411:9412   */\n      0x00\n        /* \"#utility.yul\":9400:9409   */\n      dup4\n        /* \"#utility.yul\":9396:9413   */\n      add\n        /* \"#utility.yul\":9389:9436   */\n      mstore\n        /* \"#utility.yul\":9453:9584   */\n      tag_199\n        /* \"#utility.yul\":9579:9583   */\n      dup2\n        /* \"#utility.yul\":9453:9584   */\n      tag_91\n      jump\t// in\n    tag_199:\n        /* \"#utility.yul\":9445:9584   */\n      swap1\n      pop\n        /* \"#utility.yul\":9172:9591   */\n      swap2\n      swap1\n      pop\n      jump\t// out\n        /* \"#utility.yul\":9597:9771   */\n    tag_92:\n        /* \"#utility.yul\":9737:9763   */\n      0x446f6b617a206a65207665632069736b6f72697363656e210000000000000000\n        /* \"#utility.yul\":9733:9734   */\n      0x00\n        /* \"#utility.yul\":9725:9731   */\n      dup3\n        /* \"#utility.yul\":9721:9735   */\n      add\n        /* \"#utility.yul\":9714:9764   */\n      mstore\n        /* \"#utility.yul\":9597:9771   */\n      pop\n      jump\t// out\n        /* \"#utility.yul\":9777:10143   */\n    tag_93:\n        /* \"#utility.yul\":9919:9922   */\n      0x00\n        /* \"#utility.yul\":9940:10007   */\n      tag_202\n        /* \"#utility.yul\":10004:10006   */\n      0x18\n        /* \"#utility.yul\":9999:10002   */\n      dup4\n        /* \"#utility.yul\":9940:10007   */\n      tag_87\n      jump\t// in\n    tag_202:\n        /* \"#utility.yul\":9933:10007   */\n      swap2\n      pop\n        /* \"#utility.yul\":10016:10109   */\n      tag_203\n        /* \"#utility.yul\":10105:10108   */\n      dup3\n        /* \"#utility.yul\":10016:10109   */\n      tag_92\n      jump\t// in\n    tag_203:\n        /* \"#utility.yul\":10134:10136   */\n      0x20\n        /* \"#utility.yul\":10129:10132   */\n      dup3\n        /* \"#utility.yul\":10125:10137   */\n      add\n        /* \"#utility.yul\":10118:10137   */\n      swap1\n      pop\n        /* \"#utility.yul\":9777:10143   */\n      swap2\n      swap1\n      pop\n      jump\t// out\n        /* \"#utility.yul\":10149:10568   */\n    tag_41:\n        /* \"#utility.yul\":10315:10319   */\n      0x00\n        /* \"#utility.yul\":10353:10355   */\n      0x20\n        /* \"#utility.yul\":10342:10351   */\n      dup3\n        /* \"#utility.yul\":10338:10356   */\n      add\n        /* \"#utility.yul\":10330:10356   */\n      swap1\n      pop\n        /* \"#utility.yul\":10402:10411   */\n      dup2\n        /* \"#utility.yul\":10396:10400   */\n      dup2\n        /* \"#utility.yul\":10392:10412   */\n      sub\n        /* \"#utility.yul\":10388:10389   */\n      0x00\n        /* \"#utility.yul\":10377:10386   */\n      dup4\n        /* \"#utility.yul\":10373:10390   */\n      add\n        /* \"#utility.yul\":10366:10413   */\n      mstore\n        /* \"#utility.yul\":10430:10561   */\n      tag_205\n        /* \"#utility.yul\":10556:10560   */\n      dup2\n        /* \"#utility.yul\":10430:10561   */\n      tag_93\n      jump\t// in\n    tag_205:\n        /* \"#utility.yul\":10422:10561   */\n      swap1\n      pop\n        /* \"#utility.yul\":10149:10568   */\n      swap2\n      swap1\n      pop\n      jump\t// out\n        /* \"#utility.yul\":10574:10754   */\n    tag_47:\n        /* \"#utility.yul\":10622:10699   */\n      0x4e487b7100000000000000000000000000000000000000000000000000000000\n        /* \"#utility.yul\":10619:10620   */\n      0x00\n        /* \"#utility.yul\":10612:10700   */\n      mstore\n        /* \"#utility.yul\":10719:10723   */\n      0x32\n        /* \"#utility.yul\":10716:10717   */\n      0x04\n        /* \"#utility.yul\":10709:10724   */\n      mstore\n        /* \"#utility.yul\":10743:10747   */\n      0x24\n        /* \"#utility.yul\":10740:10741   */\n      0x00\n        /* \"#utility.yul\":10733:10748   */\n      revert\n        /* \"#utility.yul\":10760:10839   */\n    tag_94:\n        /* \"#utility.yul\":10799:10806   */\n      0x00\n        /* \"#utility.yul\":10828:10833   */\n      dup2\n        /* \"#utility.yul\":10817:10833   */\n      swap1\n      pop\n        /* \"#utility.yul\":10760:10839   */\n      swap2\n      swap1\n      pop\n      jump\t// out\n        /* \"#utility.yul\":10845:11002   */\n    tag_95:\n        /* \"#utility.yul\":10950:10995   */\n      tag_209\n        /* \"#utility.yul\":10970:10994   */\n      tag_210\n        /* \"#utility.yul\":10988:10993   */\n      dup3\n        /* \"#utility.yul\":10970:10994   */\n      tag_64\n      jump\t// in\n    tag_210:\n        /* \"#utility.yul\":10950:10995   */\n      tag_94\n      jump\t// in\n    tag_209:\n        /* \"#utility.yul\":10945:10948   */\n      dup3\n        /* \"#utility.yul\":10938:10996   */\n      mstore\n        /* \"#utility.yul\":10845:11002   */\n      pop\n      pop\n      jump\t// out\n        /* \"#utility.yul\":11008:11405   */\n    tag_50:\n        /* \"#utility.yul\":11148:11151   */\n      0x00\n        /* \"#utility.yul\":11163:11238   */\n      tag_212\n        /* \"#utility.yul\":11234:11237   */\n      dup3\n        /* \"#utility.yul\":11225:11231   */\n      dup6\n        /* \"#utility.yul\":11163:11238   */\n      tag_95\n      jump\t// in\n    tag_212:\n        /* \"#utility.yul\":11263:11265   */\n      0x20\n        /* \"#utility.yul\":11258:11261   */\n      dup3\n        /* \"#utility.yul\":11254:11266   */\n      add\n        /* \"#utility.yul\":11247:11266   */\n      swap2\n      pop\n        /* \"#utility.yul\":11276:11351   */\n      tag_213\n        /* \"#utility.yul\":11347:11350   */\n      dup3\n        /* \"#utility.yul\":11338:11344   */\n      dup5\n        /* \"#utility.yul\":11276:11351   */\n      tag_95\n      jump\t// in\n    tag_213:\n        /* \"#utility.yul\":11376:11378   */\n      0x20\n        /* \"#utility.yul\":11371:11374   */\n      dup3\n        /* \"#utility.yul\":11367:11379   */\n      add\n        /* \"#utility.yul\":11360:11379   */\n      swap2\n      pop\n        /* \"#utility.yul\":11396:11399   */\n      dup2\n        /* \"#utility.yul\":11389:11399   */\n      swap1\n      pop\n        /* \"#utility.yul\":11008:11405   */\n      swap4\n      swap3\n      pop\n      pop\n      pop\n      jump\t// out\n        /* \"#utility.yul\":11411:11649   */\n    tag_96:\n        /* \"#utility.yul\":11551:11585   */\n      0x4b726970746f67726166736b6920646f6b617a206e696a652076616c6964616e\n        /* \"#utility.yul\":11547:11548   */\n      0x00\n        /* \"#utility.yul\":11539:11545   */\n      dup3\n        /* \"#utility.yul\":11535:11549   */\n      add\n        /* \"#utility.yul\":11528:11586   */\n      mstore\n        /* \"#utility.yul\":11620:11641   */\n      0x21204e6973746520636c616e20736b7570612e00000000000000000000000000\n        /* \"#utility.yul\":11615:11617   */\n      0x20\n        /* \"#utility.yul\":11607:11613   */\n      dup3\n        /* \"#utility.yul\":11603:11618   */\n      add\n        /* \"#utility.yul\":11596:11642   */\n      mstore\n        /* \"#utility.yul\":11411:11649   */\n      pop\n      jump\t// out\n        /* \"#utility.yul\":11655:12021   */\n    tag_97:\n        /* \"#utility.yul\":11797:11800   */\n      0x00\n        /* \"#utility.yul\":11818:11885   */\n      tag_216\n        /* \"#utility.yul\":11882:11884   */\n      0x33\n        /* \"#utility.yul\":11877:11880   */\n      dup4\n        /* \"#utility.yul\":11818:11885   */\n      tag_87\n      jump\t// in\n    tag_216:\n        /* \"#utility.yul\":11811:11885   */\n      swap2\n      pop\n        /* \"#utility.yul\":11894:11987   */\n      tag_217\n        /* \"#utility.yul\":11983:11986   */\n      dup3\n        /* \"#utility.yul\":11894:11987   */\n      tag_96\n      jump\t// in\n    tag_217:\n        /* \"#utility.yul\":12012:12014   */\n      0x40\n        /* \"#utility.yul\":12007:12010   */\n      dup3\n        /* \"#utility.yul\":12003:12015   */\n      add\n        /* \"#utility.yul\":11996:12015   */\n      swap1\n      pop\n        /* \"#utility.yul\":11655:12021   */\n      swap2\n      swap1\n      pop\n      jump\t// out\n        /* \"#utility.yul\":12027:12446   */\n    tag_55:\n        /* \"#utility.yul\":12193:12197   */\n      0x00\n        /* \"#utility.yul\":12231:12233   */\n      0x20\n        /* \"#utility.yul\":12220:12229   */\n      dup3\n        /* \"#utility.yul\":12216:12234   */\n      add\n        /* \"#utility.yul\":12208:12234   */\n      swap1\n      pop\n        /* \"#utility.yul\":12280:12289   */\n      dup2\n        /* \"#utility.yul\":12274:12278   */\n      dup2\n        /* \"#utility.yul\":12270:12290   */\n      sub\n        /* \"#utility.yul\":12266:12267   */\n      0x00\n        /* \"#utility.yul\":12255:12264   */\n      dup4\n        /* \"#utility.yul\":12251:12268   */\n      add\n        /* \"#utility.yul\":12244:12291   */\n      mstore\n        /* \"#utility.yul\":12308:12439   */\n      tag_219\n        /* \"#utility.yul\":12434:12438   */\n      dup2\n        /* \"#utility.yul\":12308:12439   */\n      tag_97\n      jump\t// in\n    tag_219:\n        /* \"#utility.yul\":12300:12439   */\n      swap1\n      pop\n        /* \"#utility.yul\":12027:12446   */\n      swap2\n      swap1\n      pop\n      jump\t// out\n        /* \"#utility.yul\":12452:12630   */\n    tag_98:\n        /* \"#utility.yul\":12592:12622   */\n      0x4e6973746520636c616e206f766c617363656e6f6720736b7570612100000000\n        /* \"#utility.yul\":12588:12589   */\n      0x00\n        /* \"#utility.yul\":12580:12586   */\n      dup3\n        /* \"#utility.yul\":12576:12590   */\n      add\n        /* \"#utility.yul\":12569:12623   */\n      mstore\n        /* \"#utility.yul\":12452:12630   */\n      pop\n      jump\t// out\n        /* \"#utility.yul\":12636:13002   */\n    tag_99:\n        /* \"#utility.yul\":12778:12781   */\n      0x00\n        /* \"#utility.yul\":12799:12866   */\n      tag_222\n        /* \"#utility.yul\":12863:12865   */\n      0x1c\n        /* \"#utility.yul\":12858:12861   */\n      dup4\n        /* \"#utility.yul\":12799:12866   */\n      tag_87\n      jump\t// in\n    tag_222:\n        /* \"#utility.yul\":12792:12866   */\n      swap2\n      pop\n        /* \"#utility.yul\":12875:12968   */\n      tag_223\n        /* \"#utility.yul\":12964:12967   */\n      dup3\n        /* \"#utility.yul\":12875:12968   */\n      tag_98\n      jump\t// in\n    tag_223:\n        /* \"#utility.yul\":12993:12995   */\n      0x20\n        /* \"#utility.yul\":12988:12991   */\n      dup3\n        /* \"#utility.yul\":12984:12996   */\n      add\n        /* \"#utility.yul\":12977:12996   */\n      swap1\n      pop\n        /* \"#utility.yul\":12636:13002   */\n      swap2\n      swap1\n      pop\n      jump\t// out\n        /* \"#utility.yul\":13008:13427   */\n    tag_58:\n        /* \"#utility.yul\":13174:13178   */\n      0x00\n        /* \"#utility.yul\":13212:13214   */\n      0x20\n        /* \"#utility.yul\":13201:13210   */\n      dup3\n        /* \"#utility.yul\":13197:13215   */\n      add\n        /* \"#utility.yul\":13189:13215   */\n      swap1\n      pop\n        /* \"#utility.yul\":13261:13270   */\n      dup2\n        /* \"#utility.yul\":13255:13259   */\n      dup2\n        /* \"#utility.yul\":13251:13271   */\n      sub\n        /* \"#utility.yul\":13247:13248   */\n      0x00\n        /* \"#utility.yul\":13236:13245   */\n      dup4\n        /* \"#utility.yul\":13232:13249   */\n      add\n        /* \"#utility.yul\":13225:13272   */\n      mstore\n        /* \"#utility.yul\":13289:13420   */\n      tag_225\n        /* \"#utility.yul\":13415:13419   */\n      dup2\n        /* \"#utility.yul\":13289:13420   */\n      tag_99\n      jump\t// in\n    tag_225:\n        /* \"#utility.yul\":13281:13420   */\n      swap1\n      pop\n        /* \"#utility.yul\":13008:13427   */\n      swap2\n      swap1\n      pop\n      jump\t// out\n        /* \"#utility.yul\":13433:13532   */\n    tag_100:\n        /* \"#utility.yul\":13485:13491   */\n      0x00\n        /* \"#utility.yul\":13519:13524   */\n      dup2\n        /* \"#utility.yul\":13513:13525   */\n      mload\n        /* \"#utility.yul\":13503:13525   */\n      swap1\n      pop\n        /* \"#utility.yul\":13433:13532   */\n      swap2\n      swap1\n      pop\n      jump\t// out\n        /* \"#utility.yul\":13538:13677   */\n    tag_101:\n        /* \"#utility.yul\":13627:13633   */\n      dup3\n        /* \"#utility.yul\":13622:13625   */\n      dup2\n        /* \"#utility.yul\":13617:13620   */\n      dup4\n        /* \"#utility.yul\":13611:13634   */\n      mcopy\n        /* \"#utility.yul\":13668:13669   */\n      0x00\n        /* \"#utility.yul\":13659:13665   */\n      dup4\n        /* \"#utility.yul\":13654:13657   */\n      dup4\n        /* \"#utility.yul\":13650:13666   */\n      add\n        /* \"#utility.yul\":13643:13670   */\n      mstore\n        /* \"#utility.yul\":13538:13677   */\n      pop\n      pop\n      pop\n      jump\t// out\n        /* \"#utility.yul\":13683:14060   */\n    tag_102:\n        /* \"#utility.yul\":13771:13774   */\n      0x00\n        /* \"#utility.yul\":13799:13838   */\n      tag_229\n        /* \"#utility.yul\":13832:13837   */\n      dup3\n        /* \"#utility.yul\":13799:13838   */\n      tag_100\n      jump\t// in\n    tag_229:\n        /* \"#utility.yul\":13854:13925   */\n      tag_230\n        /* \"#utility.yul\":13918:13924   */\n      dup2\n        /* \"#utility.yul\":13913:13916   */\n      dup6\n        /* \"#utility.yul\":13854:13925   */\n      tag_87\n      jump\t// in\n    tag_230:\n        /* \"#utility.yul\":13847:13925   */\n      swap4\n      pop\n        /* \"#utility.yul\":13934:13999   */\n      tag_231\n        /* \"#utility.yul\":13992:13998   */\n      dup2\n        /* \"#utility.yul\":13987:13990   */\n      dup6\n        /* \"#utility.yul\":13980:13984   */\n      0x20\n        /* \"#utility.yul\":13973:13978   */\n      dup7\n        /* \"#utility.yul\":13969:13985   */\n      add\n        /* \"#utility.yul\":13934:13999   */\n      tag_101\n      jump\t// in\n    tag_231:\n        /* \"#utility.yul\":14024:14053   */\n      tag_232\n        /* \"#utility.yul\":14046:14052   */\n      dup2\n        /* \"#utility.yul\":14024:14053   */\n      tag_71\n      jump\t// in\n    tag_232:\n        /* \"#utility.yul\":14019:14022   */\n      dup5\n        /* \"#utility.yul\":14015:14054   */\n      add\n        /* \"#utility.yul\":14008:14054   */\n      swap2\n      pop\n        /* \"#utility.yul\":13775:14060   */\n      pop\n        /* \"#utility.yul\":13683:14060   */\n      swap3\n      swap2\n      pop\n      pop\n      jump\t// out\n        /* \"#utility.yul\":14066:14379   */\n    tag_60:\n        /* \"#utility.yul\":14179:14183   */\n      0x00\n        /* \"#utility.yul\":14217:14219   */\n      0x20\n        /* \"#utility.yul\":14206:14215   */\n      dup3\n        /* \"#utility.yul\":14202:14220   */\n      add\n        /* \"#utility.yul\":14194:14220   */\n      swap1\n      pop\n        /* \"#utility.yul\":14266:14275   */\n      dup2\n        /* \"#utility.yul\":14260:14264   */\n      dup2\n        /* \"#utility.yul\":14256:14276   */\n      sub\n        /* \"#utility.yul\":14252:14253   */\n      0x00\n        /* \"#utility.yul\":14241:14250   */\n      dup4\n        /* \"#utility.yul\":14237:14254   */\n      add\n        /* \"#utility.yul\":14230:14277   */\n      mstore\n        /* \"#utility.yul\":14294:14372   */\n      tag_234\n        /* \"#utility.yul\":14367:14371   */\n      dup2\n        /* \"#utility.yul\":14358:14364   */\n      dup5\n        /* \"#utility.yul\":14294:14372   */\n      tag_102\n      jump\t// in\n    tag_234:\n        /* \"#utility.yul\":14286:14372   */\n      swap1\n      pop\n        /* \"#utility.yul\":14066:14379   */\n      swap3\n      swap2\n      pop\n      pop\n      jump\t// out\n\n    auxdata: 0xa26469706673582212207e3ce193b84cedc823930c3d183c703f7680a81e334e8a64f54ad249addbeac364736f6c63430008220033\n}\n",
				"bytecode": {
					"linkReferences": {},
					"object": "6080604052348015600e575f5ffd5b50604051610c9b380380610c9b8339818101604052810190602e919060ab565b335f5f6101000a81548173ffffffffffffffffffffffffffffffffffffffff021916908373ffffffffffffffffffffffffffffffffffffffff160217905550806001819055505060d1565b5f5ffd5b5f819050919050565b608d81607d565b81146096575f5ffd5b50565b5f8151905060a5816086565b92915050565b5f6020828403121560bd5760bc6079565b5b5f60c8848285016099565b91505092915050565b610bbd806100de5f395ff3fe608060405234801561000f575f5ffd5b5060043610610055575f3560e01c80632997e86b146100595780632eb4a7ab146100895780634783f0ef146100a75780634be9612a146100c3578063f851a440146100df575b5f5ffd5b610073600480360381019061006e919061049b565b6100fd565b60405161008091906104e0565b60405180910390f35b61009161011a565b60405161009e9190610508565b60405180910390f35b6100c160048036038101906100bc919061049b565b610120565b005b6100dd60048036038101906100d89190610721565b6101ef565b005b6100e7610433565b6040516100f491906107fc565b60405180910390f35b6002602052805f5260405f205f915054906101000a900460ff1681565b60015481565b5f5f9054906101000a900473ffffffffffffffffffffffffffffffffffffffff1673ffffffffffffffffffffffffffffffffffffffff163373ffffffffffffffffffffffffffffffffffffffff16146101ae576040517f08c379a00000000000000000000000000000000000000000000000000000000081526004016101a590610895565b60405180910390fd5b806001819055507f2cbc14f49c068133583f7cb530018af451c87c1cf1327cf2a4ff4698c4730aa4816040516101e49190610508565b60405180910390a150565b60025f8381526020019081526020015f205f9054906101000a900460ff16156102a6577ffafcac45bf99968f40be690e72dea3b27ddedbdb14acff7feb06a15cb5d5571860405161023f90610923565b60405180910390a160025f8381526020019081526020015f205f9054906101000a900460ff16156102a5576040517f08c379a000000000000000000000000000000000000000000000000000000000815260040161029c9061098b565b60405180910390fd5b5b5f8390505f5f90505b8551811015610347575f8682815181106102cc576102cb6109a9565b5b6020026020010151905080831161030d5782816040516020016102f09291906109f6565b604051602081830303815290604052805190602001209250610339565b80836040516020016103209291906109f6565b6040516020818303038152906040528051906020012092505b5080806001019150506102af565b5060015481146103cb577ffafcac45bf99968f40be690e72dea3b27ddedbdb14acff7feb06a15cb5d5571860405161037e90610a91565b60405180910390a160015481146103ca576040517f08c379a00000000000000000000000000000000000000000000000000000000081526004016103c190610af9565b60405180910390fd5b5b600160025f8581526020019081526020015f205f6101000a81548160ff021916908315150217905550827f647b8e85c4ba0f20948face8b6569b60f76112f6f19e33887385d43014051871836040516104249190610b67565b60405180910390a25050505050565b5f5f9054906101000a900473ffffffffffffffffffffffffffffffffffffffff1681565b5f604051905090565b5f5ffd5b5f5ffd5b5f819050919050565b61047a81610468565b8114610484575f5ffd5b50565b5f8135905061049581610471565b92915050565b5f602082840312156104b0576104af610460565b5b5f6104bd84828501610487565b91505092915050565b5f8115159050919050565b6104da816104c6565b82525050565b5f6020820190506104f35f8301846104d1565b92915050565b61050281610468565b82525050565b5f60208201905061051b5f8301846104f9565b92915050565b5f5ffd5b5f601f19601f8301169050919050565b7f4e487b71000000000000000000000000000000000000000000000000000000005f52604160045260245ffd5b61056b82610525565b810181811067ffffffffffffffff8211171561058a57610589610535565b5b80604052505050565b5f61059c610457565b90506105a88282610562565b919050565b5f67ffffffffffffffff8211156105c7576105c6610535565b5b602082029050602081019050919050565b5f5ffd5b5f6105ee6105e9846105ad565b610593565b90508083825260208201905060208402830185811115610611576106106105d8565b5b835b8181101561063a57806106268882610487565b845260208401935050602081019050610613565b5050509392505050565b5f82601f83011261065857610657610521565b5b81356106688482602086016105dc565b91505092915050565b5f5ffd5b5f67ffffffffffffffff82111561068f5761068e610535565b5b61069882610525565b9050602081019050919050565b828183375f83830152505050565b5f6106c56106c084610675565b610593565b9050828152602081018484840111156106e1576106e0610671565b5b6106ec8482856106a5565b509392505050565b5f82601f83011261070857610707610521565b5b81356107188482602086016106b3565b91505092915050565b5f5f5f5f6080858703121561073957610738610460565b5b5f85013567ffffffffffffffff81111561075657610755610464565b5b61076287828801610644565b945050602061077387828801610487565b935050604061078487828801610487565b925050606085013567ffffffffffffffff8111156107a5576107a4610464565b5b6107b1878288016106f4565b91505092959194509250565b5f73ffffffffffffffffffffffffffffffffffffffff82169050919050565b5f6107e6826107bd565b9050919050565b6107f6816107dc565b82525050565b5f60208201905061080f5f8301846107ed565b92915050565b5f82825260208201905092915050565b7f53616d6f2061646d696e6973747261746f72206d6f7a6520697a7672736974695f8201527f206f76752066756e6b63696a7500000000000000000000000000000000000000602082015250565b5f61087f602d83610815565b915061088a82610825565b604082019050919050565b5f6020820190508181035f8301526108ac81610873565b9050919050565b7f4f76616a20646f6b617a206a6520766563206a65646e6f6d2069736b6f7269735f8201527f63656e20284e756c6c69666965722069736b6f72697363656e29210000000000602082015250565b5f61090d603b83610815565b9150610918826108b3565b604082019050919050565b5f6020820190508181035f83015261093a81610901565b9050919050565b7f446f6b617a206a65207665632069736b6f72697363656e2100000000000000005f82015250565b5f610975601883610815565b915061098082610941565b602082019050919050565b5f6020820190508181035f8301526109a281610969565b9050919050565b7f4e487b71000000000000000000000000000000000000000000000000000000005f52603260045260245ffd5b5f819050919050565b6109f06109eb82610468565b6109d6565b82525050565b5f610a0182856109df565b602082019150610a1182846109df565b6020820191508190509392505050565b7f4b726970746f67726166736b6920646f6b617a206e696a652076616c6964616e5f8201527f21204e6973746520636c616e20736b7570612e00000000000000000000000000602082015250565b5f610a7b603383610815565b9150610a8682610a21565b604082019050919050565b5f6020820190508181035f830152610aa881610a6f565b9050919050565b7f4e6973746520636c616e206f766c617363656e6f6720736b75706121000000005f82015250565b5f610ae3601c83610815565b9150610aee82610aaf565b602082019050919050565b5f6020820190508181035f830152610b1081610ad7565b9050919050565b5f81519050919050565b8281835e5f83830152505050565b5f610b3982610b17565b610b438185610815565b9350610b53818560208601610b21565b610b5c81610525565b840191505092915050565b5f6020820190508181035f830152610b7f8184610b2f565b90509291505056fea26469706673582212207e3ce193b84cedc823930c3d183c703f7680a81e334e8a64f54ad249addbeac364736f6c63430008220033",
					"opcodes": "PUSH1 0x80 PUSH1 0x40 MSTORE CALLVALUE DUP1 ISZERO PUSH1 0xE JUMPI PUSH0 PUSH0 REVERT JUMPDEST POP PUSH1 0x40 MLOAD PUSH2 0xC9B CODESIZE SUB DUP1 PUSH2 0xC9B DUP4 CODECOPY DUP2 DUP2 ADD PUSH1 0x40 MSTORE DUP2 ADD SWAP1 PUSH1 0x2E SWAP2 SWAP1 PUSH1 0xAB JUMP JUMPDEST CALLER PUSH0 PUSH0 PUSH2 0x100 EXP DUP2 SLOAD DUP2 PUSH20 0xFFFFFFFFFFFFFFFFFFFFFFFFFFFFFFFFFFFFFFFF MUL NOT AND SWAP1 DUP4 PUSH20 0xFFFFFFFFFFFFFFFFFFFFFFFFFFFFFFFFFFFFFFFF AND MUL OR SWAP1 SSTORE POP DUP1 PUSH1 0x1 DUP2 SWAP1 SSTORE POP POP PUSH1 0xD1 JUMP JUMPDEST PUSH0 PUSH0 REVERT JUMPDEST PUSH0 DUP2 SWAP1 POP SWAP2 SWAP1 POP JUMP JUMPDEST PUSH1 0x8D DUP2 PUSH1 0x7D JUMP JUMPDEST DUP2 EQ PUSH1 0x96 JUMPI PUSH0 PUSH0 REVERT JUMPDEST POP JUMP JUMPDEST PUSH0 DUP2 MLOAD SWAP1 POP PUSH1 0xA5 DUP2 PUSH1 0x86 JUMP JUMPDEST SWAP3 SWAP2 POP POP JUMP JUMPDEST PUSH0 PUSH1 0x20 DUP3 DUP5 SUB SLT ISZERO PUSH1 0xBD JUMPI PUSH1 0xBC PUSH1 0x79 JUMP JUMPDEST JUMPDEST PUSH0 PUSH1 0xC8 DUP5 DUP3 DUP6 ADD PUSH1 0x99 JUMP JUMPDEST SWAP2 POP POP SWAP3 SWAP2 POP POP JUMP JUMPDEST PUSH2 0xBBD DUP1 PUSH2 0xDE PUSH0 CODECOPY PUSH0 RETURN INVALID PUSH1 0x80 PUSH1 0x40 MSTORE CALLVALUE DUP1 ISZERO PUSH2 0xF JUMPI PUSH0 PUSH0 REVERT JUMPDEST POP PUSH1 0x4 CALLDATASIZE LT PUSH2 0x55 JUMPI PUSH0 CALLDATALOAD PUSH1 0xE0 SHR DUP1 PUSH4 0x2997E86B EQ PUSH2 0x59 JUMPI DUP1 PUSH4 0x2EB4A7AB EQ PUSH2 0x89 JUMPI DUP1 PUSH4 0x4783F0EF EQ PUSH2 0xA7 JUMPI DUP1 PUSH4 0x4BE9612A EQ PUSH2 0xC3 JUMPI DUP1 PUSH4 0xF851A440 EQ PUSH2 0xDF JUMPI JUMPDEST PUSH0 PUSH0 REVERT JUMPDEST PUSH2 0x73 PUSH1 0x4 DUP1 CALLDATASIZE SUB DUP2 ADD SWAP1 PUSH2 0x6E SWAP2 SWAP1 PUSH2 0x49B JUMP JUMPDEST PUSH2 0xFD JUMP JUMPDEST PUSH1 0x40 MLOAD PUSH2 0x80 SWAP2 SWAP1 PUSH2 0x4E0 JUMP JUMPDEST PUSH1 0x40 MLOAD DUP1 SWAP2 SUB SWAP1 RETURN JUMPDEST PUSH2 0x91 PUSH2 0x11A JUMP JUMPDEST PUSH1 0x40 MLOAD PUSH2 0x9E SWAP2 SWAP1 PUSH2 0x508 JUMP JUMPDEST PUSH1 0x40 MLOAD DUP1 SWAP2 SUB SWAP1 RETURN JUMPDEST PUSH2 0xC1 PUSH1 0x4 DUP1 CALLDATASIZE SUB DUP2 ADD SWAP1 PUSH2 0xBC SWAP2 SWAP1 PUSH2 0x49B JUMP JUMPDEST PUSH2 0x120 JUMP JUMPDEST STOP JUMPDEST PUSH2 0xDD PUSH1 0x4 DUP1 CALLDATASIZE SUB DUP2 ADD SWAP1 PUSH2 0xD8 SWAP2 SWAP1 PUSH2 0x721 JUMP JUMPDEST PUSH2 0x1EF JUMP JUMPDEST STOP JUMPDEST PUSH2 0xE7 PUSH2 0x433 JUMP JUMPDEST PUSH1 0x40 MLOAD PUSH2 0xF4 SWAP2 SWAP1 PUSH2 0x7FC JUMP JUMPDEST PUSH1 0x40 MLOAD DUP1 SWAP2 SUB SWAP1 RETURN JUMPDEST PUSH1 0x2 PUSH1 0x20 MSTORE DUP1 PUSH0 MSTORE PUSH1 0x40 PUSH0 KECCAK256 PUSH0 SWAP2 POP SLOAD SWAP1 PUSH2 0x100 EXP SWAP1 DIV PUSH1 0xFF AND DUP2 JUMP JUMPDEST PUSH1 0x1 SLOAD DUP2 JUMP JUMPDEST PUSH0 PUSH0 SWAP1 SLOAD SWAP1 PUSH2 0x100 EXP SWAP1 DIV PUSH20 0xFFFFFFFFFFFFFFFFFFFFFFFFFFFFFFFFFFFFFFFF AND PUSH20 0xFFFFFFFFFFFFFFFFFFFFFFFFFFFFFFFFFFFFFFFF AND CALLER PUSH20 0xFFFFFFFFFFFFFFFFFFFFFFFFFFFFFFFFFFFFFFFF AND EQ PUSH2 0x1AE JUMPI PUSH1 0x40 MLOAD PUSH32 0x8C379A000000000000000000000000000000000000000000000000000000000 DUP2 MSTORE PUSH1 0x4 ADD PUSH2 0x1A5 SWAP1 PUSH2 0x895 JUMP JUMPDEST PUSH1 0x40 MLOAD DUP1 SWAP2 SUB SWAP1 REVERT JUMPDEST DUP1 PUSH1 0x1 DUP2 SWAP1 SSTORE POP PUSH32 0x2CBC14F49C068133583F7CB530018AF451C87C1CF1327CF2A4FF4698C4730AA4 DUP2 PUSH1 0x40 MLOAD PUSH2 0x1E4 SWAP2 SWAP1 PUSH2 0x508 JUMP JUMPDEST PUSH1 0x40 MLOAD DUP1 SWAP2 SUB SWAP1 LOG1 POP JUMP JUMPDEST PUSH1 0x2 PUSH0 DUP4 DUP2 MSTORE PUSH1 0x20 ADD SWAP1 DUP2 MSTORE PUSH1 0x20 ADD PUSH0 KECCAK256 PUSH0 SWAP1 SLOAD SWAP1 PUSH2 0x100 EXP SWAP1 DIV PUSH1 0xFF AND ISZERO PUSH2 0x2A6 JUMPI PUSH32 0xFAFCAC45BF99968F40BE690E72DEA3B27DDEDBDB14ACFF7FEB06A15CB5D55718 PUSH1 0x40 MLOAD PUSH2 0x23F SWAP1 PUSH2 0x923 JUMP JUMPDEST PUSH1 0x40 MLOAD DUP1 SWAP2 SUB SWAP1 LOG1 PUSH1 0x2 PUSH0 DUP4 DUP2 MSTORE PUSH1 0x20 ADD SWAP1 DUP2 MSTORE PUSH1 0x20 ADD PUSH0 KECCAK256 PUSH0 SWAP1 SLOAD SWAP1 PUSH2 0x100 EXP SWAP1 DIV PUSH1 0xFF AND ISZERO PUSH2 0x2A5 JUMPI PUSH1 0x40 MLOAD PUSH32 0x8C379A000000000000000000000000000000000000000000000000000000000 DUP2 MSTORE PUSH1 0x4 ADD PUSH2 0x29C SWAP1 PUSH2 0x98B JUMP JUMPDEST PUSH1 0x40 MLOAD DUP1 SWAP2 SUB SWAP1 REVERT JUMPDEST JUMPDEST PUSH0 DUP4 SWAP1 POP PUSH0 PUSH0 SWAP1 POP JUMPDEST DUP6 MLOAD DUP2 LT ISZERO PUSH2 0x347 JUMPI PUSH0 DUP7 DUP3 DUP2 MLOAD DUP2 LT PUSH2 0x2CC JUMPI PUSH2 0x2CB PUSH2 0x9A9 JUMP JUMPDEST JUMPDEST PUSH1 0x20 MUL PUSH1 0x20 ADD ADD MLOAD SWAP1 POP DUP1 DUP4 GT PUSH2 0x30D JUMPI DUP3 DUP2 PUSH1 0x40 MLOAD PUSH1 0x20 ADD PUSH2 0x2F0 SWAP3 SWAP2 SWAP1 PUSH2 0x9F6 JUMP JUMPDEST PUSH1 0x40 MLOAD PUSH1 0x20 DUP2 DUP4 SUB SUB DUP2 MSTORE SWAP1 PUSH1 0x40 MSTORE DUP1 MLOAD SWAP1 PUSH1 0x20 ADD KECCAK256 SWAP3 POP PUSH2 0x339 JUMP JUMPDEST DUP1 DUP4 PUSH1 0x40 MLOAD PUSH1 0x20 ADD PUSH2 0x320 SWAP3 SWAP2 SWAP1 PUSH2 0x9F6 JUMP JUMPDEST PUSH1 0x40 MLOAD PUSH1 0x20 DUP2 DUP4 SUB SUB DUP2 MSTORE SWAP1 PUSH1 0x40 MSTORE DUP1 MLOAD SWAP1 PUSH1 0x20 ADD KECCAK256 SWAP3 POP JUMPDEST POP DUP1 DUP1 PUSH1 0x1 ADD SWAP2 POP POP PUSH2 0x2AF JUMP JUMPDEST POP PUSH1 0x1 SLOAD DUP2 EQ PUSH2 0x3CB JUMPI PUSH32 0xFAFCAC45BF99968F40BE690E72DEA3B27DDEDBDB14ACFF7FEB06A15CB5D55718 PUSH1 0x40 MLOAD PUSH2 0x37E SWAP1 PUSH2 0xA91 JUMP JUMPDEST PUSH1 0x40 MLOAD DUP1 SWAP2 SUB SWAP1 LOG1 PUSH1 0x1 SLOAD DUP2 EQ PUSH2 0x3CA JUMPI PUSH1 0x40 MLOAD PUSH32 0x8C379A000000000000000000000000000000000000000000000000000000000 DUP2 MSTORE PUSH1 0x4 ADD PUSH2 0x3C1 SWAP1 PUSH2 0xAF9 JUMP JUMPDEST PUSH1 0x40 MLOAD DUP1 SWAP2 SUB SWAP1 REVERT JUMPDEST JUMPDEST PUSH1 0x1 PUSH1 0x2 PUSH0 DUP6 DUP2 MSTORE PUSH1 0x20 ADD SWAP1 DUP2 MSTORE PUSH1 0x20 ADD PUSH0 KECCAK256 PUSH0 PUSH2 0x100 EXP DUP2 SLOAD DUP2 PUSH1 0xFF MUL NOT AND SWAP1 DUP4 ISZERO ISZERO MUL OR SWAP1 SSTORE POP DUP3 PUSH32 0x647B8E85C4BA0F20948FACE8B6569B60F76112F6F19E33887385D43014051871 DUP4 PUSH1 0x40 MLOAD PUSH2 0x424 SWAP2 SWAP1 PUSH2 0xB67 JUMP JUMPDEST PUSH1 0x40 MLOAD DUP1 SWAP2 SUB SWAP1 LOG2 POP POP POP POP POP JUMP JUMPDEST PUSH0 PUSH0 SWAP1 SLOAD SWAP1 PUSH2 0x100 EXP SWAP1 DIV PUSH20 0xFFFFFFFFFFFFFFFFFFFFFFFFFFFFFFFFFFFFFFFF AND DUP2 JUMP JUMPDEST PUSH0 PUSH1 0x40 MLOAD SWAP1 POP SWAP1 JUMP JUMPDEST PUSH0 PUSH0 REVERT JUMPDEST PUSH0 PUSH0 REVERT JUMPDEST PUSH0 DUP2 SWAP1 POP SWAP2 SWAP1 POP JUMP JUMPDEST PUSH2 0x47A DUP2 PUSH2 0x468 JUMP JUMPDEST DUP2 EQ PUSH2 0x484 JUMPI PUSH0 PUSH0 REVERT JUMPDEST POP JUMP JUMPDEST PUSH0 DUP2 CALLDATALOAD SWAP1 POP PUSH2 0x495 DUP2 PUSH2 0x471 JUMP JUMPDEST SWAP3 SWAP2 POP POP JUMP JUMPDEST PUSH0 PUSH1 0x20 DUP3 DUP5 SUB SLT ISZERO PUSH2 0x4B0 JUMPI PUSH2 0x4AF PUSH2 0x460 JUMP JUMPDEST JUMPDEST PUSH0 PUSH2 0x4BD DUP5 DUP3 DUP6 ADD PUSH2 0x487 JUMP JUMPDEST SWAP2 POP POP SWAP3 SWAP2 POP POP JUMP JUMPDEST PUSH0 DUP2 ISZERO ISZERO SWAP1 POP SWAP2 SWAP1 POP JUMP JUMPDEST PUSH2 0x4DA DUP2 PUSH2 0x4C6 JUMP JUMPDEST DUP3 MSTORE POP POP JUMP JUMPDEST PUSH0 PUSH1 0x20 DUP3 ADD SWAP1 POP PUSH2 0x4F3 PUSH0 DUP4 ADD DUP5 PUSH2 0x4D1 JUMP JUMPDEST SWAP3 SWAP2 POP POP JUMP JUMPDEST PUSH2 0x502 DUP2 PUSH2 0x468 JUMP JUMPDEST DUP3 MSTORE POP POP JUMP JUMPDEST PUSH0 PUSH1 0x20 DUP3 ADD SWAP1 POP PUSH2 0x51B PUSH0 DUP4 ADD DUP5 PUSH2 0x4F9 JUMP JUMPDEST SWAP3 SWAP2 POP POP JUMP JUMPDEST PUSH0 PUSH0 REVERT JUMPDEST PUSH0 PUSH1 0x1F NOT PUSH1 0x1F DUP4 ADD AND SWAP1 POP SWAP2 SWAP1 POP JUMP JUMPDEST PUSH32 0x4E487B7100000000000000000000000000000000000000000000000000000000 PUSH0 MSTORE PUSH1 0x41 PUSH1 0x4 MSTORE PUSH1 0x24 PUSH0 REVERT JUMPDEST PUSH2 0x56B DUP3 PUSH2 0x525 JUMP JUMPDEST DUP2 ADD DUP2 DUP2 LT PUSH8 0xFFFFFFFFFFFFFFFF DUP3 GT OR ISZERO PUSH2 0x58A JUMPI PUSH2 0x589 PUSH2 0x535 JUMP JUMPDEST JUMPDEST DUP1 PUSH1 0x40 MSTORE POP POP POP JUMP JUMPDEST PUSH0 PUSH2 0x59C PUSH2 0x457 JUMP JUMPDEST SWAP1 POP PUSH2 0x5A8 DUP3 DUP3 PUSH2 0x562 JUMP JUMPDEST SWAP2 SWAP1 POP JUMP JUMPDEST PUSH0 PUSH8 0xFFFFFFFFFFFFFFFF DUP3 GT ISZERO PUSH2 0x5C7 JUMPI PUSH2 0x5C6 PUSH2 0x535 JUMP JUMPDEST JUMPDEST PUSH1 0x20 DUP3 MUL SWAP1 POP PUSH1 0x20 DUP2 ADD SWAP1 POP SWAP2 SWAP1 POP JUMP JUMPDEST PUSH0 PUSH0 REVERT JUMPDEST PUSH0 PUSH2 0x5EE PUSH2 0x5E9 DUP5 PUSH2 0x5AD JUMP JUMPDEST PUSH2 0x593 JUMP JUMPDEST SWAP1 POP DUP1 DUP4 DUP3 MSTORE PUSH1 0x20 DUP3 ADD SWAP1 POP PUSH1 0x20 DUP5 MUL DUP4 ADD DUP6 DUP2 GT ISZERO PUSH2 0x611 JUMPI PUSH2 0x610 PUSH2 0x5D8 JUMP JUMPDEST JUMPDEST DUP4 JUMPDEST DUP2 DUP2 LT ISZERO PUSH2 0x63A JUMPI DUP1 PUSH2 0x626 DUP9 DUP3 PUSH2 0x487 JUMP JUMPDEST DUP5 MSTORE PUSH1 0x20 DUP5 ADD SWAP4 POP POP PUSH1 0x20 DUP2 ADD SWAP1 POP PUSH2 0x613 JUMP JUMPDEST POP POP POP SWAP4 SWAP3 POP POP POP JUMP JUMPDEST PUSH0 DUP3 PUSH1 0x1F DUP4 ADD SLT PUSH2 0x658 JUMPI PUSH2 0x657 PUSH2 0x521 JUMP JUMPDEST JUMPDEST DUP2 CALLDATALOAD PUSH2 0x668 DUP5 DUP3 PUSH1 0x20 DUP7 ADD PUSH2 0x5DC JUMP JUMPDEST SWAP2 POP POP SWAP3 SWAP2 POP POP JUMP JUMPDEST PUSH0 PUSH0 REVERT JUMPDEST PUSH0 PUSH8 0xFFFFFFFFFFFFFFFF DUP3 GT ISZERO PUSH2 0x68F JUMPI PUSH2 0x68E PUSH2 0x535 JUMP JUMPDEST JUMPDEST PUSH2 0x698 DUP3 PUSH2 0x525 JUMP JUMPDEST SWAP1 POP PUSH1 0x20 DUP2 ADD SWAP1 POP SWAP2 SWAP1 POP JUMP JUMPDEST DUP3 DUP2 DUP4 CALLDATACOPY PUSH0 DUP4 DUP4 ADD MSTORE POP POP POP JUMP JUMPDEST PUSH0 PUSH2 0x6C5 PUSH2 0x6C0 DUP5 PUSH2 0x675 JUMP JUMPDEST PUSH2 0x593 JUMP JUMPDEST SWAP1 POP DUP3 DUP2 MSTORE PUSH1 0x20 DUP2 ADD DUP5 DUP5 DUP5 ADD GT ISZERO PUSH2 0x6E1 JUMPI PUSH2 0x6E0 PUSH2 0x671 JUMP JUMPDEST JUMPDEST PUSH2 0x6EC DUP5 DUP3 DUP6 PUSH2 0x6A5 JUMP JUMPDEST POP SWAP4 SWAP3 POP POP POP JUMP JUMPDEST PUSH0 DUP3 PUSH1 0x1F DUP4 ADD SLT PUSH2 0x708 JUMPI PUSH2 0x707 PUSH2 0x521 JUMP JUMPDEST JUMPDEST DUP2 CALLDATALOAD PUSH2 0x718 DUP5 DUP3 PUSH1 0x20 DUP7 ADD PUSH2 0x6B3 JUMP JUMPDEST SWAP2 POP POP SWAP3 SWAP2 POP POP JUMP JUMPDEST PUSH0 PUSH0 PUSH0 PUSH0 PUSH1 0x80 DUP6 DUP8 SUB SLT ISZERO PUSH2 0x739 JUMPI PUSH2 0x738 PUSH2 0x460 JUMP JUMPDEST JUMPDEST PUSH0 DUP6 ADD CALLDATALOAD PUSH8 0xFFFFFFFFFFFFFFFF DUP2 GT ISZERO PUSH2 0x756 JUMPI PUSH2 0x755 PUSH2 0x464 JUMP JUMPDEST JUMPDEST PUSH2 0x762 DUP8 DUP3 DUP9 ADD PUSH2 0x644 JUMP JUMPDEST SWAP5 POP POP PUSH1 0x20 PUSH2 0x773 DUP8 DUP3 DUP9 ADD PUSH2 0x487 JUMP JUMPDEST SWAP4 POP POP PUSH1 0x40 PUSH2 0x784 DUP8 DUP3 DUP9 ADD PUSH2 0x487 JUMP JUMPDEST SWAP3 POP POP PUSH1 0x60 DUP6 ADD CALLDATALOAD PUSH8 0xFFFFFFFFFFFFFFFF DUP2 GT ISZERO PUSH2 0x7A5 JUMPI PUSH2 0x7A4 PUSH2 0x464 JUMP JUMPDEST JUMPDEST PUSH2 0x7B1 DUP8 DUP3 DUP9 ADD PUSH2 0x6F4 JUMP JUMPDEST SWAP2 POP POP SWAP3 SWAP6 SWAP2 SWAP5 POP SWAP3 POP JUMP JUMPDEST PUSH0 PUSH20 0xFFFFFFFFFFFFFFFFFFFFFFFFFFFFFFFFFFFFFFFF DUP3 AND SWAP1 POP SWAP2 SWAP1 POP JUMP JUMPDEST PUSH0 PUSH2 0x7E6 DUP3 PUSH2 0x7BD JUMP JUMPDEST SWAP1 POP SWAP2 SWAP1 POP JUMP JUMPDEST PUSH2 0x7F6 DUP2 PUSH2 0x7DC JUMP JUMPDEST DUP3 MSTORE POP POP JUMP JUMPDEST PUSH0 PUSH1 0x20 DUP3 ADD SWAP1 POP PUSH2 0x80F PUSH0 DUP4 ADD DUP5 PUSH2 0x7ED JUMP JUMPDEST SWAP3 SWAP2 POP POP JUMP JUMPDEST PUSH0 DUP3 DUP3 MSTORE PUSH1 0x20 DUP3 ADD SWAP1 POP SWAP3 SWAP2 POP POP JUMP JUMPDEST PUSH32 0x53616D6F2061646D696E6973747261746F72206D6F7A6520697A767273697469 PUSH0 DUP3 ADD MSTORE PUSH32 0x206F76752066756E6B63696A7500000000000000000000000000000000000000 PUSH1 0x20 DUP3 ADD MSTORE POP JUMP JUMPDEST PUSH0 PUSH2 0x87F PUSH1 0x2D DUP4 PUSH2 0x815 JUMP JUMPDEST SWAP2 POP PUSH2 0x88A DUP3 PUSH2 0x825 JUMP JUMPDEST PUSH1 0x40 DUP3 ADD SWAP1 POP SWAP2 SWAP1 POP JUMP JUMPDEST PUSH0 PUSH1 0x20 DUP3 ADD SWAP1 POP DUP2 DUP2 SUB PUSH0 DUP4 ADD MSTORE PUSH2 0x8AC DUP2 PUSH2 0x873 JUMP JUMPDEST SWAP1 POP SWAP2 SWAP1 POP JUMP JUMPDEST PUSH32 0x4F76616A20646F6B617A206A6520766563206A65646E6F6D2069736B6F726973 PUSH0 DUP3 ADD MSTORE PUSH32 0x63656E20284E756C6C69666965722069736B6F72697363656E29210000000000 PUSH1 0x20 DUP3 ADD MSTORE POP JUMP JUMPDEST PUSH0 PUSH2 0x90D PUSH1 0x3B DUP4 PUSH2 0x815 JUMP JUMPDEST SWAP2 POP PUSH2 0x918 DUP3 PUSH2 0x8B3 JUMP JUMPDEST PUSH1 0x40 DUP3 ADD SWAP1 POP SWAP2 SWAP1 POP JUMP JUMPDEST PUSH0 PUSH1 0x20 DUP3 ADD SWAP1 POP DUP2 DUP2 SUB PUSH0 DUP4 ADD MSTORE PUSH2 0x93A DUP2 PUSH2 0x901 JUMP JUMPDEST SWAP1 POP SWAP2 SWAP1 POP JUMP JUMPDEST PUSH32 0x446F6B617A206A65207665632069736B6F72697363656E210000000000000000 PUSH0 DUP3 ADD MSTORE POP JUMP JUMPDEST PUSH0 PUSH2 0x975 PUSH1 0x18 DUP4 PUSH2 0x815 JUMP JUMPDEST SWAP2 POP PUSH2 0x980 DUP3 PUSH2 0x941 JUMP JUMPDEST PUSH1 0x20 DUP3 ADD SWAP1 POP SWAP2 SWAP1 POP JUMP JUMPDEST PUSH0 PUSH1 0x20 DUP3 ADD SWAP1 POP DUP2 DUP2 SUB PUSH0 DUP4 ADD MSTORE PUSH2 0x9A2 DUP2 PUSH2 0x969 JUMP JUMPDEST SWAP1 POP SWAP2 SWAP1 POP JUMP JUMPDEST PUSH32 0x4E487B7100000000000000000000000000000000000000000000000000000000 PUSH0 MSTORE PUSH1 0x32 PUSH1 0x4 MSTORE PUSH1 0x24 PUSH0 REVERT JUMPDEST PUSH0 DUP2 SWAP1 POP SWAP2 SWAP1 POP JUMP JUMPDEST PUSH2 0x9F0 PUSH2 0x9EB DUP3 PUSH2 0x468 JUMP JUMPDEST PUSH2 0x9D6 JUMP JUMPDEST DUP3 MSTORE POP POP JUMP JUMPDEST PUSH0 PUSH2 0xA01 DUP3 DUP6 PUSH2 0x9DF JUMP JUMPDEST PUSH1 0x20 DUP3 ADD SWAP2 POP PUSH2 0xA11 DUP3 DUP5 PUSH2 0x9DF JUMP JUMPDEST PUSH1 0x20 DUP3 ADD SWAP2 POP DUP2 SWAP1 POP SWAP4 SWAP3 POP POP POP JUMP JUMPDEST PUSH32 0x4B726970746F67726166736B6920646F6B617A206E696A652076616C6964616E PUSH0 DUP3 ADD MSTORE PUSH32 0x21204E6973746520636C616E20736B7570612E00000000000000000000000000 PUSH1 0x20 DUP3 ADD MSTORE POP JUMP JUMPDEST PUSH0 PUSH2 0xA7B PUSH1 0x33 DUP4 PUSH2 0x815 JUMP JUMPDEST SWAP2 POP PUSH2 0xA86 DUP3 PUSH2 0xA21 JUMP JUMPDEST PUSH1 0x40 DUP3 ADD SWAP1 POP SWAP2 SWAP1 POP JUMP JUMPDEST PUSH0 PUSH1 0x20 DUP3 ADD SWAP1 POP DUP2 DUP2 SUB PUSH0 DUP4 ADD MSTORE PUSH2 0xAA8 DUP2 PUSH2 0xA6F JUMP JUMPDEST SWAP1 POP SWAP2 SWAP1 POP JUMP JUMPDEST PUSH32 0x4E6973746520636C616E206F766C617363656E6F6720736B7570612100000000 PUSH0 DUP3 ADD MSTORE POP JUMP JUMPDEST PUSH0 PUSH2 0xAE3 PUSH1 0x1C DUP4 PUSH2 0x815 JUMP JUMPDEST SWAP2 POP PUSH2 0xAEE DUP3 PUSH2 0xAAF JUMP JUMPDEST PUSH1 0x20 DUP3 ADD SWAP1 POP SWAP2 SWAP1 POP JUMP JUMPDEST PUSH0 PUSH1 0x20 DUP3 ADD SWAP1 POP DUP2 DUP2 SUB PUSH0 DUP4 ADD MSTORE PUSH2 0xB10 DUP2 PUSH2 0xAD7 JUMP JUMPDEST SWAP1 POP SWAP2 SWAP1 POP JUMP JUMPDEST PUSH0 DUP2 MLOAD SWAP1 POP SWAP2 SWAP1 POP JUMP JUMPDEST DUP3 DUP2 DUP4 MCOPY PUSH0 DUP4 DUP4 ADD MSTORE POP POP POP JUMP JUMPDEST PUSH0 PUSH2 0xB39 DUP3 PUSH2 0xB17 JUMP JUMPDEST PUSH2 0xB43 DUP2 DUP6 PUSH2 0x815 JUMP JUMPDEST SWAP4 POP PUSH2 0xB53 DUP2 DUP6 PUSH1 0x20 DUP7 ADD PUSH2 0xB21 JUMP JUMPDEST PUSH2 0xB5C DUP2 PUSH2 0x525 JUMP JUMPDEST DUP5 ADD SWAP2 POP POP SWAP3 SWAP2 POP POP JUMP JUMPDEST PUSH0 PUSH1 0x20 DUP3 ADD SWAP1 POP DUP2 DUP2 SUB PUSH0 DUP4 ADD MSTORE PUSH2 0xB7F DUP2 DUP5 PUSH2 0xB2F JUMP JUMPDEST SWAP1 POP SWAP3 SWAP2 POP POP JUMP INVALID LOG2 PUSH5 0x6970667358 0x22 SLT KECCAK256 PUSH31 0x3CE193B84CEDC823930C3D183C703F7680A81E334E8A64F54AD249ADDBEAC3 PUSH5 0x736F6C6343 STOP ADDMOD 0x22 STOP CALLER "
				},
				"gasEstimates": {
					"creation": {
						"codeDepositCost": "601000",
						"executionCost": "infinite",
						"totalCost": "infinite"
					},
					"external": {
						"admin()": "2573",
						"merkleRoot()": "2425",
						"nullifiers(bytes32)": "2763",
						"updateMerkleRoot(bytes32)": "infinite",
						"verifyAttribute(bytes32[],bytes32,bytes32,string)": "infinite"
					}
				},
				"methodIdentifiers": {
					"admin()": "f851a440",
					"merkleRoot()": "2eb4a7ab",
					"nullifiers(bytes32)": "2997e86b",
					"updateMerkleRoot(bytes32)": "4783f0ef",
					"verifyAttribute(bytes32[],bytes32,bytes32,string)": "4be9612a"
				}
			},
			"storageLayout": {
				"storage": [
					{
						"astId": 3,
						"contract": "tests/AnonymousVerifier.sol:AnonymousVerifier",
						"label": "admin",
						"offset": 0,
						"slot": "0",
						"type": "t_address"
					},
					{
						"astId": 5,
						"contract": "tests/AnonymousVerifier.sol:AnonymousVerifier",
						"label": "merkleRoot",
						"offset": 0,
						"slot": "1",
						"type": "t_bytes32"
					},
					{
						"astId": 9,
						"contract": "tests/AnonymousVerifier.sol:AnonymousVerifier",
						"label": "nullifiers",
						"offset": 0,
						"slot": "2",
						"type": "t_mapping(t_bytes32,t_bool)"
					}
				],
				"types": {
					"t_address": {
						"encoding": "inplace",
						"label": "address",
						"numberOfBytes": "20"
					},
					"t_bool": {
						"encoding": "inplace",
						"label": "bool",
						"numberOfBytes": "1"
					},
					"t_bytes32": {
						"encoding": "inplace",
						"label": "bytes32",
						"numberOfBytes": "32"
					},
					"t_mapping(t_bytes32,t_bool)": {
						"encoding": "mapping",
						"key": "t_bytes32",
						"label": "mapping(bytes32 => bool)",
						"numberOfBytes": "32",
						"value": "t_bool"
					}
				}
			},
			"userdoc": {
				"kind": "user",
				"methods": {},
				"version": 1
			}
		}
	}
}