{
	"data": {
		"bytecode": {
			"linkReferences": {
				"remix_tests.sol": {
					"Assert": [
						{
							"length": 20,
							"start": 1090
						},
						{
							"length": 20,
							"start": 1215
						},
						{
							"length": 20,
							"start": 1630
						},
						{
							"length": 20,
							"start": 2337
						},
						{
							"length": 20,
							"start": 2462
						}
					]
				}
			},
			"object": "6080604052604051602001610013906100e1565b6040516020818303038152906040528051906020012060015560405160200161003b9061013f565b604051602081830303815290604052805190602001206002556040516020016100639061019d565b60405160208183030381529060405280519060200120600455348015610087575f5ffd5b506101b1565b5f81905092915050565b7f436c616e410000000000000000000000000000000000000000000000000000005f82015250565b5f6100cb60058361008d565b91506100d682610097565b600582019050919050565b5f6100eb826100bf565b9150819050919050565b7f436c616e420000000000000000000000000000000000000000000000000000005f82015250565b5f61012960058361008d565b9150610134826100f5565b600582019050919050565b5f6101498261011d565b9150819050919050565b7f48616b65720000000000000000000000000000000000000000000000000000005f82015250565b5f61018760058361008d565b915061019282610153565b600582019050919050565b5f6101a78261017b565b9150819050919050565b611c2f806101be5f395ff3fe608060405234801561000f575f5ffd5b506004361061004a575f3560e01c80636331e7d41461004e5780639309685214610058578063c97d4cd414610062578063e86964b21461006c575b5f5ffd5b610056610076565b005b610060610160565b005b61006a61037b565b005b6100746105b3565b005b600254600154116100b957600154600254604051602001610098929190610890565b604051602081830303815290604052805190602001206003819055506100ed565b6002546001546040516020016100d0929190610890565b604051602081830303815290604052805190602001206003819055505b6003546040516100fc9061085a565b61010691906108ca565b604051809103905ff08015801561011f573d5f5f3e3d5ffd5b505f5f6101000a81548173ffffffffffffffffffffffffffffffffffffffff021916908373ffffffffffffffffffffffffffffffffffffffff160217905550565b5f600167ffffffffffffffff81111561017c5761017b6108e3565b5b6040519080825280602002602001820160405280156101aa5781602001602082028036833780820191505090505b509050600254815f815181106101c3576101c2610910565b5b6020026020010181815250505f6040516020016101df90610991565b6040516020818303038152906040528051906020012090505f5f9054906101000a900473ffffffffffffffffffffffffffffffffffffffff1673ffffffffffffffffffffffffffffffffffffffff16634be9612a83600454846040518463ffffffff1660e01b815260040161025693929190610ab6565b5f604051808303815f87803b15801561026d575f5ffd5b505af192505050801561027e575060015b6102ff5773__$acbfb1c35000d78352310b16a054a6b106$__6339df137f60016040518263ffffffff1660e01b81526004016102ba9190610b9f565b602060405180830381865af41580156102d5573d5f5f3e3d5ffd5b505050506040513d601f19601f820116820180604052508101906102f99190610bf9565b50610377565b73__$acbfb1c35000d78352310b16a054a6b106$__6339df137f5f6040518263ffffffff1660e01b81526004016103369190610c94565b602060405180830381865af4158015610351573d5f5f3e3d5ffd5b505050506040513d601f19601f820116820180604052508101906103759190610bf9565b505b5050565b5f600167ffffffffffffffff811115610397576103966108e3565b5b6040519080825280602002602001820160405280156103c55781602001602082028036833780820191505090505b509050600254815f815181106103de576103dd610910565b5b6020026020010181815250505f6040516020016103fa90610d0a565b6040516020818303038152906040528051906020012090505f5f9054906101000a900473ffffffffffffffffffffffffffffffffffffffff1673ffffffffffffffffffffffffffffffffffffffff16634be9612a83600154846040518463ffffffff1660e01b815260040161047193929190610ab6565b5f604051808303815f87803b158015610488575f5ffd5b505af115801561049a573d5f5f3e3d5ffd5b5050505073__$acbfb1c35000d78352310b16a054a6b106$__63767392b35f5f9054906101000a900473ffffffffffffffffffffffffffffffffffffffff1673ffffffffffffffffffffffffffffffffffffffff16632997e86b846040518263ffffffff1660e01b815260040161051191906108ca565b602060405180830381865afa15801561052c573d5f5f3e3d5ffd5b505050506040513d601f19601f820116820180604052508101906105509190610bf9565b60016040518363ffffffff1660e01b815260040161056f929190610d8e565b602060405180830381865af415801561058a573d5f5f3e3d5ffd5b505050506040513d601f19601f820116820180604052508101906105ae9190610bf9565b505050565b5f600167ffffffffffffffff8111156105cf576105ce6108e3565b5b6040519080825280602002602001820160405280156105fd5781602001602082028036833780820191505090505b509050600254815f8151811061061657610615610910565b5b6020026020010181815250505f60405160200161063290610e12565b6040516020818303038152906040528051906020012090505f5f9054906101000a900473ffffffffffffffffffffffffffffffffffffffff1673ffffffffffffffffffffffffffffffffffffffff16634be9612a83600154846040518463ffffffff1660e01b81526004016106a993929190610ab6565b5f604051808303815f87803b1580156106c0575f5ffd5b505af11580156106d2573d5f5f3e3d5ffd5b505050505f5f9054906101000a900473ffffffffffffffffffffffffffffffffffffffff1673ffffffffffffffffffffffffffffffffffffffff16634be9612a83600154846040518463ffffffff1660e01b815260040161073593929190610ab6565b5f604051808303815f87803b15801561074c575f5ffd5b505af192505050801561075d575060015b6107de5773__$acbfb1c35000d78352310b16a054a6b106$__6339df137f60016040518263ffffffff1660e01b81526004016107999190610e96565b602060405180830381865af41580156107b4573d5f5f3e3d5ffd5b505050506040513d601f19601f820116820180604052508101906107d89190610bf9565b50610856565b73__$acbfb1c35000d78352310b16a054a6b106$__6339df137f5f6040518263ffffffff1660e01b81526004016108159190610f32565b602060405180830381865af4158015610830573d5f5f3e3d5ffd5b505050506040513d601f19601f820116820180604052508101906108549190610bf9565b505b5050565b610c9b80610f5f83390190565b5f819050919050565b5f819050919050565b61088a61088582610867565b610870565b82525050565b5f61089b8285610879565b6020820191506108ab8284610879565b6020820191508190509392505050565b6108c481610867565b82525050565b5f6020820190506108dd5f8301846108bb565b92915050565b7f4e487b71000000000000000000000000000000000000000000000000000000005f52604160045260245ffd5b7f4e487b71000000000000000000000000000000000000000000000000000000005f52603260045260245ffd5b5f81905092915050565b7f54616a6e6148616b6572000000000000000000000000000000000000000000005f82015250565b5f61097b600a8361093d565b915061098682610947565b600a82019050919050565b5f61099b8261096f565b9150819050919050565b5f81519050919050565b5f82825260208201905092915050565b5f819050602082019050919050565b6109d781610867565b82525050565b5f6109e883836109ce565b60208301905092915050565b5f602082019050919050565b5f610a0a826109a5565b610a1481856109af565b9350610a1f836109bf565b805f5b83811015610a4f578151610a3688826109dd565b9750610a41836109f4565b925050600181019050610a22565b5085935050505092915050565b5f82825260208201905092915050565b7f50756e6f6c6574616e00000000000000000000000000000000000000000000005f82015250565b5f610aa0600983610a5c565b9150610aab82610a6c565b602082019050919050565b5f6080820190508181035f830152610ace8186610a00565b9050610add60208301856108bb565b610aea60408301846108bb565b8181036060830152610afb81610a94565b9050949350505050565b5f8115159050919050565b610b1981610b05565b82525050565b5f82825260208201905092915050565b7f55676f766f72206a652075737065736e6f206f6462696f206e6576616c6964615f8201527f6e20646f6b617a2e000000000000000000000000000000000000000000000000602082015250565b5f610b89602883610b1f565b9150610b9482610b2f565b604082019050919050565b5f604082019050610bb25f830184610b10565b8181036020830152610bc381610b7d565b905092915050565b5f5ffd5b610bd881610b05565b8114610be2575f5ffd5b50565b5f81519050610bf381610bcf565b92915050565b5f60208284031215610c0e57610c0d610bcb565b5b5f610c1b84828501610be5565b91505092915050565b7f55676f766f72206a652074726562616c6f206461206f6462696a65206e6576615f8201527f6c6964616e20646f6b617a210000000000000000000000000000000000000000602082015250565b5f610c7e602c83610b1f565b9150610c8982610c24565b604082019050919050565b5f604082019050610ca75f830184610b10565b8181036020830152610cb881610c72565b905092915050565b7f54616a6e614100000000000000000000000000000000000000000000000000005f82015250565b5f610cf460068361093d565b9150610cff82610cc0565b600682019050919050565b5f610d1482610ce8565b9150819050919050565b7f4e756c6c6966696572206a652074726562616c6f20646120627564652069736b5f8201527f6f72697363656e2e000000000000000000000000000000000000000000000000602082015250565b5f610d78602883610b1f565b9150610d8382610d1e565b604082019050919050565b5f606082019050610da15f830185610b10565b610dae6020830184610b10565b8181036040830152610dbf81610d6c565b90509392505050565b7f54616a6e614973746100000000000000000000000000000000000000000000005f82015250565b5f610dfc60098361093d565b9150610e0782610dc8565b600982019050919050565b5f610e1c82610df0565b9150819050919050565b7f55676f766f72206a652075737065736e6f207370726563696f20706f6e6f766e5f8201527f752075706f7472656275206b6f64612e00000000000000000000000000000000602082015250565b5f610e80603083610b1f565b9150610e8b82610e26565b604082019050919050565b5f604082019050610ea95f830184610b10565b8181036020830152610eba81610e74565b905092915050565b7f55676f766f72206a652074726562616c6f206461206f6462696a6520706f6e6f5f8201527f766e752075706f7472656275206973746f67206e756c6c69666965722d612100602082015250565b5f610f1c603f83610b1f565b9150610f2782610ec2565b604082019050919050565b5f604082019050610f455f830184610b10565b8181036020830152610f5681610f10565b90509291505056fe6080604052348015600e575f5ffd5b50604051610c9b380380610c9b8339818101604052810190602e919060ab565b335f5f6101000a81548173ffffffffffffffffffffffffffffffffffffffff021916908373ffffffffffffffffffffffffffffffffffffffff160217905550806001819055505060d1565b5f5ffd5b5f819050919050565b608d81607d565b81146096575f5ffd5b50565b5f8151905060a5816086565b92915050565b5f6020828403121560bd5760bc6079565b5b5f60c8848285016099565b91505092915050565b610bbd806100de5f395ff3fe608060405234801561000f575f5ffd5b5060043610610055575f3560e01c80632997e86b146100595780632eb4a7ab146100895780634783f0ef146100a75780634be9612a146100c3578063f851a440146100df575b5f5ffd5b610073600480360381019061006e919061049b565b6100fd565b60405161008091906104e0565b60405180910390f35b61009161011a565b60405161009e9190610508565b60405180910390f35b6100c160048036038101906100bc919061049b565b610120565b005b6100dd60048036038101906100d89190610721565b6101ef565b005b6100e7610433565b6040516100f491906107fc565b60405180910390f35b6002602052805f5260405f205f915054906101000a900460ff1681565b60015481565b5f5f9054906101000a900473ffffffffffffffffffffffffffffffffffffffff1673ffffffffffffffffffffffffffffffffffffffff163373ffffffffffffffffffffffffffffffffffffffff16146101ae576040517f08c379a00000000000000000000000000000000000000000000000000000000081526004016101a590610895565b60405180910390fd5b806001819055507f2cbc14f49c068133583f7cb530018af451c87c1cf1327cf2a4ff4698c4730aa4816040516101e49190610508565b60405180910390a150565b60025f8381526020019081526020015f205f9054906101000a900460ff16156102a6577ffafcac45bf99968f40be690e72dea3b27ddedbdb14acff7feb06a15cb5d5571860405161023f90610923565b60405180910390a160025f8381526020019081526020015f205f9054906101000a900460ff16156102a5576040517f08c379a000000000000000000000000000000000000000000000000000000000815260040161029c9061098b565b60405180910390fd5b5b5f8390505f5f90505b8551811015610347575f8682815181106102cc576102cb6109a9565b5b6020026020010151905080831161030d5782816040516020016102f09291906109f6565b604051602081830303815290604052805190602001209250610339565b80836040516020016103209291906109f6565b6040516020818303038152906040528051906020012092505b5080806001019150506102af565b5060015481146103cb577ffafcac45bf99968f40be690e72dea3b27ddedbdb14acff7feb06a15cb5d5571860405161037e90610a91565b60405180910390a160015481146103ca576040517f08c379a00000000000000000000000000000000000000000000000000000000081526004016103c190610af9565b60405180910390fd5b5b600160025f8581526020019081526020015f205f6101000a81548160ff021916908315150217905550827f647b8e85c4ba0f20948face8b6569b60f76112f6f19e33887385d43014051871836040516104249190610b67565b60405180910390a25050505050565b5f5f9054906101000a900473ffffffffffffffffffffffffffffffffffffffff1681565b5f604051905090565b5f5ffd5b5f5ffd5b5f819050919050565b61047a81610468565b8114610484575f5ffd5b50565b5f8135905061049581610471565b92915050565b5f602082840312156104b0576104af610460565b5b5f6104bd84828501610487565b91505092915050565b5f8115159050919050565b6104da816104c6565b82525050565b5f6020820190506104f35f8301846104d1565b92915050565b61050281610468565b82525050565b5f60208201905061051b5f8301846104f9565b92915050565b5f5ffd5b5f601f19601f8301169050919050565b7f4e487b71000000000000000000000000000000000000000000000000000000005f52604160045260245ffd5b61056b82610525565b810181811067ffffffffffffffff8211171561058a57610589610535565b5b80604052505050565b5f61059c610457565b90506105a88282610562565b919050565b5f67ffffffffffffffff8211156105c7576105c6610535565b5b602082029050602081019050919050565b5f5ffd5b5f6105ee6105e9846105ad565b610593565b90508083825260208201905060208402830185811115610611576106106105d8565b5b835b8181101561063a57806106268882610487565b845260208401935050602081019050610613565b5050509392505050565b5f82601f83011261065857610657610521565b5b81356106688482602086016105dc565b91505092915050565b5f5ffd5b5f67ffffffffffffffff82111561068f5761068e610535565b5b61069882610525565b9050602081019050919050565b828183375f83830152505050565b5f6106c56106c084610675565b610593565b9050828152602081018484840111156106e1576106e0610671565b5b6106ec8482856106a5565b509392505050565b5f82601f83011261070857610707610521565b5b81356107188482602086016106b3565b91505092915050565b5f5f5f5f6080858703121561073957610738610460565b5b5f85013567ffffffffffffffff81111561075657610755610464565b5b61076287828801610644565b945050602061077387828801610487565b935050604061078487828801610487565b925050606085013567ffffffffffffffff8111156107a5576107a4610464565b5b6107b1878288016106f4565b91505092959194509250565b5f73ffffffffffffffffffffffffffffffffffffffff82169050919050565b5f6107e6826107bd565b9050919050565b6107f6816107dc565b82525050565b5f60208201905061080f5f8301846107ed565b92915050565b5f82825260208201905092915050565b7f53616d6f2061646d696e6973747261746f72206d6f7a6520697a7672736974695f8201527f206f76752066756e6b63696a7500000000000000000000000000000000000000602082015250565b5f61087f602d83610815565b915061088a82610825565b604082019050919050565b5f6020820190508181035f8301526108ac81610873565b9050919050565b7f4f76616a20646f6b617a206a6520766563206a65646e6f6d2069736b6f7269735f8201527f63656e20284e756c6c69666965722069736b6f72697363656e29210000000000602082015250565b5f61090d603b83610815565b9150610918826108b3565b604082019050919050565b5f6020820190508181035f83015261093a81610901565b9050919050565b7f446f6b617a206a65207665632069736b6f72697363656e2100000000000000005f82015250565b5f610975601883610815565b915061098082610941565b602082019050919050565b5f6020820190508181035f8301526109a281610969565b9050919050565b7f4e487b71000000000000000000000000000000000000000000000000000000005f52603260045260245ffd5b5f819050919050565b6109f06109eb82610468565b6109d6565b82525050565b5f610a0182856109df565b602082019150610a1182846109df565b6020820191508190509392505050565b7f4b726970746f67726166736b6920646f6b617a206e696a652076616c6964616e5f8201527f21204e6973746520636c616e20736b7570612e00000000000000000000000000602082015250565b5f610a7b603383610815565b9150610a8682610a21565b604082019050919050565b5f6020820190508181035f830152610aa881610a6f565b9050919050565b7f4e6973746520636c616e206f766c617363656e6f6720736b75706121000000005f82015250565b5f610ae3601c83610815565b9150610aee82610aaf565b602082019050919050565b5f6020820190508181035f830152610b1081610ad7565b9050919050565b5f81519050919050565b8281835e5f83830152505050565b5f610b3982610b17565b610b438185610815565b9350610b53818560208601610b21565b610b5c81610525565b840191505092915050565b5f6020820190508181035f830152610b7f8184610b2f565b90509291505056fea26469706673582212207e3ce193b84cedc823930c3d183c703f7680a81e334e8a64f54ad249addbeac364736f6c63430008220033a26469706673582212203790bd5736fd3991480170ec2d0527340586bcc15813c0efe2f7c8e0a6eb4a7064736f6c63430008220033",
			"opcodes": "PUSH1 0x80 PUSH1 0x40 MSTORE PUSH1 0x40 MLOAD PUSH1 0x20 ADD PUSH2 0x13 SWAP1 PUSH2 0xE1 JUMP JUMPDEST PUSH1 0x40 MLOAD PUSH1 0x20 DUP2 DUP4 SUB SUB DUP2 MSTORE SWAP1 PUSH1 0x40 MSTORE DUP1 MLOAD SWAP1 PUSH1 0x20 ADD KECCAK256 PUSH1 0x1 SSTORE PUSH1 0x40 MLOAD PUSH1 0x20 ADD PUSH2 0x3B SWAP1 PUSH2 0x13F JUMP JUMPDEST PUSH1 0x40 MLOAD PUSH1 0x20 DUP2 DUP4 SUB SUB DUP2 MSTORE SWAP1 PUSH1 0x40 MSTORE DUP1 MLOAD SWAP1 PUSH1 0x20 ADD KECCAK256 PUSH1 0x2 SSTORE PUSH1 0x40 MLOAD PUSH1 0x20 ADD PUSH2 0x63 SWAP1 PUSH2 0x19D JUMP JUMPDEST PUSH1 0x40 MLOAD PUSH1 0x20 DUP2 DUP4 SUB SUB DUP2 MSTORE SWAP1 PUSH1 0x40 MSTORE DUP1 MLOAD SWAP1 PUSH1 0x20 ADD KECCAK256 PUSH1 0x4 SSTORE CALLVALUE DUP1 ISZERO PUSH2 0x87 JUMPI PUSH0 PUSH0 REVERT JUMPDEST POP PUSH2 0x1B1 JUMP JUMPDEST PUSH0 DUP2 SWAP1 POP SWAP3 SWAP2 POP POP JUMP JUMPDEST PUSH32 0x436C616E41000000000000000000000000000000000000000000000000000000 PUSH0 DUP3 ADD MSTORE POP JUMP JUMPDEST PUSH0 PUSH2 0xCB PUSH1 0x5 DUP4 PUSH2 0x8D JUMP JUMPDEST SWAP2 POP PUSH2 0xD6 DUP3 PUSH2 0x97 JUMP JUMPDEST PUSH1 0x5 DUP3 ADD SWAP1 POP SWAP2 SWAP1 POP JUMP JUMPDEST PUSH0 PUSH2 0xEB DUP3 PUSH2 0xBF JUMP JUMPDEST SWAP2 POP DUP2 SWAP1 POP SWAP2 SWAP1 POP JUMP JUMPDEST PUSH32 0x436C616E42000000000000000000000000000000000000000000000000000000 PUSH0 DUP3 ADD MSTORE POP JUMP JUMPDEST PUSH0 PUSH2 0x129 PUSH1 0x5 DUP4 PUSH2 0x8D JUMP JUMPDEST SWAP2 POP PUSH2 0x134 DUP3 PUSH2 0xF5 JUMP JUMPDEST PUSH1 0x5 DUP3 ADD SWAP1 POP SWAP2 SWAP1 POP JUMP JUMPDEST PUSH0 PUSH2 0x149 DUP3 PUSH2 0x11D JUMP JUMPDEST SWAP2 POP DUP2 SWAP1 POP SWAP2 SWAP1 POP JUMP JUMPDEST PUSH32 0x48616B6572000000000000000000000000000000000000000000000000000000 PUSH0 DUP3 ADD MSTORE POP JUMP JUMPDEST PUSH0 PUSH2 0x187 PUSH1 0x5 DUP4 PUSH2 0x8D JUMP JUMPDEST SWAP2 POP PUSH2 0x192 DUP3 PUSH2 0x153 JUMP JUMPDEST PUSH1 0x5 DUP3 ADD SWAP1 POP SWAP2 SWAP1 POP JUMP JUMPDEST PUSH0 PUSH2 0x1A7 DUP3 PUSH2 0x17B JUMP JUMPDEST SWAP2 POP DUP2 SWAP1 POP SWAP2 SWAP1 POP JUMP JUMPDEST PUSH2 0x1C2F DUP1 PUSH2 0x1BE PUSH0 CODECOPY PUSH0 RETURN INVALID PUSH1 0x80 PUSH1 0x40 MSTORE CALLVALUE DUP1 ISZERO PUSH2 0xF JUMPI PUSH0 PUSH0 REVERT JUMPDEST POP PUSH1 0x4 CALLDATASIZE LT PUSH2 0x4A JUMPI PUSH0 CALLDATALOAD PUSH1 0xE0 SHR DUP1 PUSH4 0x6331E7D4 EQ PUSH2 0x4E JUMPI DUP1 PUSH4 0x93096852 EQ PUSH2 0x58 JUMPI DUP1 PUSH4 0xC97D4CD4 EQ PUSH2 0x62 JUMPI DUP1 PUSH4 0xE86964B2 EQ PUSH2 0x6C JUMPI JUMPDEST PUSH0 PUSH0 REVERT JUMPDEST PUSH2 0x56 PUSH2 0x76 JUMP JUMPDEST STOP JUMPDEST PUSH2 0x60 PUSH2 0x160 JUMP JUMPDEST STOP JUMPDEST PUSH2 0x6A PUSH2 0x37B JUMP JUMPDEST STOP JUMPDEST PUSH2 0x74 PUSH2 0x5B3 JUMP JUMPDEST STOP JUMPDEST PUSH1 0x2 SLOAD PUSH1 0x1 SLOAD GT PUSH2 0xB9 JUMPI PUSH1 0x1 SLOAD PUSH1 0x2 SLOAD PUSH1 0x40 MLOAD PUSH1 0x20 ADD PUSH2 0x98 SWAP3 SWAP2 SWAP1 PUSH2 0x890 JUMP JUMPDEST PUSH1 0x40 MLOAD PUSH1 0x20 DUP2 DUP4 SUB SUB DUP2 MSTORE SWAP1 PUSH1 0x40 MSTORE DUP1 MLOAD SWAP1 PUSH1 0x20 ADD KECCAK256 PUSH1 0x3 DUP2 SWAP1 SSTORE POP PUSH2 0xED JUMP JUMPDEST PUSH1 0x2 SLOAD PUSH1 0x1 SLOAD PUSH1 0x40 MLOAD PUSH1 0x20 ADD PUSH2 0xD0 SWAP3 SWAP2 SWAP1 PUSH2 0x890 JUMP JUMPDEST PUSH1 0x40 MLOAD PUSH1 0x20 DUP2 DUP4 SUB SUB DUP2 MSTORE SWAP1 PUSH1 0x40 MSTORE DUP1 MLOAD SWAP1 PUSH1 0x20 ADD KECCAK256 PUSH1 0x3 DUP2 SWAP1 SSTORE POP JUMPDEST PUSH1 0x3 SLOAD PUSH1 0x40 MLOAD PUSH2 0xFC SWAP1 PUSH2 0x85A JUMP JUMPDEST PUSH2 0x106 SWAP2 SWAP1 PUSH2 0x8CA JUMP JUMPDEST PUSH1 0x40 MLOAD DUP1 SWAP2 SUB SWAP1 PUSH0 CREATE DUP1 ISZERO DUP1 ISZERO PUSH2 0x11F JUMPI RETURNDATASIZE PUSH0 PUSH0 RETURNDATACOPY RETURNDATASIZE PUSH0 REVERT JUMPDEST POP PUSH0 PUSH0 PUSH2 0x100 EXP DUP2 SLOAD DUP2 PUSH20 0xFFFFFFFFFFFFFFFFFFFFFFFFFFFFFFFFFFFFFFFF MUL NOT AND SWAP1 DUP4 PUSH20 0xFFFFFFFFFFFFFFFFFFFFFFFFFFFFFFFFFFFFFFFF AND MUL OR SWAP1 SSTORE POP JUMP JUMPDEST PUSH0 PUSH1 0x1 PUSH8 0xFFFFFFFFFFFFFFFF DUP2 GT ISZERO PUSH2 0x17C JUMPI PUSH2 0x17B PUSH2 0x8E3 JUMP JUMPDEST JUMPDEST PUSH1 0x40 MLOAD SWAP1 DUP1 DUP3 MSTORE DUP1 PUSH1 0x20 MUL PUSH1 0x20 ADD DUP3 ADD PUSH1 0x40 MSTORE DUP1 ISZERO PUSH2 0x1AA JUMPI DUP2 PUSH1 0x20 ADD PUSH1 0x20 DUP3 MUL DUP1 CALLDATASIZE DUP4 CALLDATACOPY DUP1 DUP3 ADD SWAP2 POP POP SWAP1 POP JUMPDEST POP SWAP1 POP PUSH1 0x2 SLOAD DUP2 PUSH0 DUP2 MLOAD DUP2 LT PUSH2 0x1C3 JUMPI PUSH2 0x1C2 PUSH2 0x910 JUMP JUMPDEST JUMPDEST PUSH1 0x20 MUL PUSH1 0x20 ADD ADD DUP2 DUP2 MSTORE POP POP PUSH0 PUSH1 0x40 MLOAD PUSH1 0x20 ADD PUSH2 0x1DF SWAP1 PUSH2 0x991 JUMP JUMPDEST PUSH1 0x40 MLOAD PUSH1 0x20 DUP2 DUP4 SUB SUB DUP2 MSTORE SWAP1 PUSH1 0x40 MSTORE DUP1 MLOAD SWAP1 PUSH1 0x20 ADD KECCAK256 SWAP1 POP PUSH0 PUSH0 SWAP1 SLOAD SWAP1 PUSH2 0x100 EXP SWAP1 DIV PUSH20 0xFFFFFFFFFFFFFFFFFFFFFFFFFFFFFFFFFFFFFFFF AND PUSH20 0xFFFFFFFFFFFFFFFFFFFFFFFFFFFFFFFFFFFFFFFF AND PUSH4 0x4BE9612A DUP4 PUSH1 0x4 SLOAD DUP5 PUSH1 0x40 MLOAD DUP5 PUSH4 0xFFFFFFFF AND PUSH1 0xE0 SHL DUP2 MSTORE PUSH1 0x4 ADD PUSH2 0x256 SWAP4 SWAP3 SWAP2 SWAP1 PUSH2 0xAB6 JUMP JUMPDEST PUSH0 PUSH1 0x40 MLOAD DUP1 DUP4 SUB DUP2 PUSH0 DUP8 DUP1 EXTCODESIZE ISZERO DUP1 ISZERO PUSH2 0x26D JUMPI PUSH0 PUSH0 REVERT JUMPDEST POP GAS CALL SWAP3 POP POP POP DUP1 ISZERO PUSH2 0x27E JUMPI POP PUSH1 0x1 JUMPDEST PUSH2 0x2FF JUMPI PUSH20 0x0 PUSH4 0x39DF137F PUSH1 0x1 PUSH1 0x40 MLOAD DUP3 PUSH4 0xFFFFFFFF AND PUSH1 0xE0 SHL DUP2 MSTORE PUSH1 0x4 ADD PUSH2 0x2BA SWAP2 SWAP1 PUSH2 0xB9F JUMP JUMPDEST PUSH1 0x20 PUSH1 0x40 MLOAD DUP1 DUP4 SUB DUP2 DUP7 GAS DELEGATECALL ISZERO DUP1 ISZERO PUSH2 0x2D5 JUMPI RETURNDATASIZE PUSH0 PUSH0 RETURNDATACOPY RETURNDATASIZE PUSH0 REVERT JUMPDEST POP POP POP POP PUSH1 0x40 MLOAD RETURNDATASIZE PUSH1 0x1F NOT PUSH1 0x1F DUP3 ADD AND DUP3 ADD DUP1 PUSH1 0x40 MSTORE POP DUP2 ADD SWAP1 PUSH2 0x2F9 SWAP2 SWAP1 PUSH2 0xBF9 JUMP JUMPDEST POP PUSH2 0x377 JUMP JUMPDEST PUSH20 0x0 PUSH4 0x39DF137F PUSH0 PUSH1 0x40 MLOAD DUP3 PUSH4 0xFFFFFFFF AND PUSH1 0xE0 SHL DUP2 MSTORE PUSH1 0x4 ADD PUSH2 0x336 SWAP2 SWAP1 PUSH2 0xC94 JUMP JUMPDEST PUSH1 0x20 PUSH1 0x40 MLOAD DUP1 DUP4 SUB DUP2 DUP7 GAS DELEGATECALL ISZERO DUP1 ISZERO PUSH2 0x351 JUMPI RETURNDATASIZE PUSH0 PUSH0 RETURNDATACOPY RETURNDATASIZE PUSH0 REVERT JUMPDEST POP POP POP POP PUSH1 0x40 MLOAD RETURNDATASIZE PUSH1 0x1F NOT PUSH1 0x1F DUP3 ADD AND DUP3 ADD DUP1 PUSH1 0x40 MSTORE POP DUP2 ADD SWAP1 PUSH2 0x375 SWAP2 SWAP1 PUSH2 0xBF9 JUMP JUMPDEST POP JUMPDEST POP POP JUMP JUMPDEST PUSH0 PUSH1 0x1 PUSH8 0xFFFFFFFFFFFFFFFF DUP2 GT ISZERO PUSH2 0x397 JUMPI PUSH2 0x396 PUSH2 0x8E3 JUMP JUMPDEST JUMPDEST PUSH1 0x40 MLOAD SWAP1 DUP1 DUP3 MSTORE DUP1 PUSH1 0x20 MUL PUSH1 0x20 ADD DUP3 ADD PUSH1 0x40 MSTORE DUP1 ISZERO PUSH2 0x3C5 JUMPI DUP2 PUSH1 0x20 ADD PUSH1 0x20 DUP3 MUL DUP1 CALLDATASIZE DUP4 CALLDATACOPY DUP1 DUP3 ADD SWAP2 POP POP SWAP1 POP JUMPDEST POP SWAP1 POP PUSH1 0x2 SLOAD DUP2 PUSH0 DUP2 MLOAD DUP2 LT PUSH2 0x3DE JUMPI PUSH2 0x3DD PUSH2 0x910 JUMP JUMPDEST JUMPDEST PUSH1 0x20 MUL PUSH1 0x20 ADD ADD DUP2 DUP2 MSTORE POP POP PUSH0 PUSH1 0x40 MLOAD PUSH1 0x20 ADD PUSH2 0x3FA SWAP1 PUSH2 0xD0A JUMP JUMPDEST PUSH1 0x40 MLOAD PUSH1 0x20 DUP2 DUP4 SUB SUB DUP2 MSTORE SWAP1 PUSH1 0x40 MSTORE DUP1 MLOAD SWAP1 PUSH1 0x20 ADD KECCAK256 SWAP1 POP PUSH0 PUSH0 SWAP1 SLOAD SWAP1 PUSH2 0x100 EXP SWAP1 DIV PUSH20 0xFFFFFFFFFFFFFFFFFFFFFFFFFFFFFFFFFFFFFFFF AND PUSH20 0xFFFFFFFFFFFFFFFFFFFFFFFFFFFFFFFFFFFFFFFF AND PUSH4 0x4BE9612A DUP4 PUSH1 0x1 SLOAD DUP5 PUSH1 0x40 MLOAD DUP5 PUSH4 0xFFFFFFFF AND PUSH1 0xE0 SHL DUP2 MSTORE PUSH1 0x4 ADD PUSH2 0x471 SWAP4 SWAP3 SWAP2 SWAP1 PUSH2 0xAB6 JUMP JUMPDEST PUSH0 PUSH1 0x40 MLOAD DUP1 DUP4 SUB DUP2 PUSH0 DUP8 DUP1 EXTCODESIZE ISZERO DUP1 ISZERO PUSH2 0x488 JUMPI PUSH0 PUSH0 REVERT JUMPDEST POP GAS CALL ISZERO DUP1 ISZERO PUSH2 0x49A JUMPI RETURNDATASIZE PUSH0 PUSH0 RETURNDATACOPY RETURNDATASIZE PUSH0 REVERT JUMPDEST POP POP POP POP PUSH20 0x0 PUSH4 0x767392B3 PUSH0 PUSH0 SWAP1 SLOAD SWAP1 PUSH2 0x100 EXP SWAP1 DIV PUSH20 0xFFFFFFFFFFFFFFFFFFFFFFFFFFFFFFFFFFFFFFFF AND PUSH20 0xFFFFFFFFFFFFFFFFFFFFFFFFFFFFFFFFFFFFFFFF AND PUSH4 0x2997E86B DUP5 PUSH1 0x40 MLOAD DUP3 PUSH4 0xFFFFFFFF AND PUSH1 0xE0 SHL DUP2 MSTORE PUSH1 0x4 ADD PUSH2 0x511 SWAP2 SWAP1 PUSH2 0x8CA JUMP JUMPDEST PUSH1 0x20 PUSH1 0x40 MLOAD DUP1 DUP4 SUB DUP2 DUP7 GAS STATICCALL ISZERO DUP1 ISZERO PUSH2 0x52C JUMPI RETURNDATASIZE PUSH0 PUSH0 RETURNDATACOPY RETURNDATASIZE PUSH0 REVERT JUMPDEST POP POP POP POP PUSH1 0x40 MLOAD RETURNDATASIZE PUSH1 0x1F NOT PUSH1 0x1F DUP3 ADD AND DUP3 ADD DUP1 PUSH1 0x40 MSTORE POP DUP2 ADD SWAP1 PUSH2 0x550 SWAP2 SWAP1 PUSH2 0xBF9 JUMP JUMPDEST PUSH1 0x1 PUSH1 0x40 MLOAD DUP4 PUSH4 0xFFFFFFFF AND PUSH1 0xE0 SHL DUP2 MSTORE PUSH1 0x4 ADD PUSH2 0x56F SWAP3 SWAP2 SWAP1 PUSH2 0xD8E JUMP JUMPDEST PUSH1 0x20 PUSH1 0x40 MLOAD DUP1 DUP4 SUB DUP2 DUP7 GAS DELEGATECALL ISZERO DUP1 ISZERO PUSH2 0x58A JUMPI RETURNDATASIZE PUSH0 PUSH0 RETURNDATACOPY RETURNDATASIZE PUSH0 REVERT JUMPDEST POP POP POP POP PUSH1 0x40 MLOAD RETURNDATASIZE PUSH1 0x1F NOT PUSH1 0x1F DUP3 ADD AND DUP3 ADD DUP1 PUSH1 0x40 MSTORE POP DUP2 ADD SWAP1 PUSH2 0x5AE SWAP2 SWAP1 PUSH2 0xBF9 JUMP JUMPDEST POP POP POP JUMP JUMPDEST PUSH0 PUSH1 0x1 PUSH8 0xFFFFFFFFFFFFFFFF DUP2 GT ISZERO PUSH2 0x5CF JUMPI PUSH2 0x5CE PUSH2 0x8E3 JUMP JUMPDEST JUMPDEST PUSH1 0x40 MLOAD SWAP1 DUP1 DUP3 MSTORE DUP1 PUSH1 0x20 MUL PUSH1 0x20 ADD DUP3 ADD PUSH1 0x40 MSTORE DUP1 ISZERO PUSH2 0x5FD JUMPI DUP2 PUSH1 0x20 ADD PUSH1 0x20 DUP3 MUL DUP1 CALLDATASIZE DUP4 CALLDATACOPY DUP1 DUP3 ADD SWAP2 POP POP SWAP1 POP JUMPDEST POP SWAP1 POP PUSH1 0x2 SLOAD DUP2 PUSH0 DUP2 MLOAD DUP2 LT PUSH2 0x616 JUMPI PUSH2 0x615 PUSH2 0x910 JUMP JUMPDEST JUMPDEST PUSH1 0x20 MUL PUSH1 0x20 ADD ADD DUP2 DUP2 MSTORE POP POP PUSH0 PUSH1 0x40 MLOAD PUSH1 0x20 ADD PUSH2 0x632 SWAP1 PUSH2 0xE12 JUMP JUMPDEST PUSH1 0x40 MLOAD PUSH1 0x20 DUP2 DUP4 SUB SUB DUP2 MSTORE SWAP1 PUSH1 0x40 MSTORE DUP1 MLOAD SWAP1 PUSH1 0x20 ADD KECCAK256 SWAP1 POP PUSH0 PUSH0 SWAP1 SLOAD SWAP1 PUSH2 0x100 EXP SWAP1 DIV PUSH20 0xFFFFFFFFFFFFFFFFFFFFFFFFFFFFFFFFFFFFFFFF AND PUSH20 0xFFFFFFFFFFFFFFFFFFFFFFFFFFFFFFFFFFFFFFFF AND PUSH4 0x4BE9612A DUP4 PUSH1 0x1 SLOAD DUP5 PUSH1 0x40 MLOAD DUP5 PUSH4 0xFFFFFFFF AND PUSH1 0xE0 SHL DUP2 MSTORE PUSH1 0x4 ADD PUSH2 0x6A9 SWAP4 SWAP3 SWAP2 SWAP1 PUSH2 0xAB6 JUMP JUMPDEST PUSH0 PUSH1 0x40 MLOAD DUP1 DUP4 SUB DUP2 PUSH0 DUP8 DUP1 EXTCODESIZE ISZERO DUP1 ISZERO PUSH2 0x6C0 JUMPI PUSH0 PUSH0 REVERT JUMPDEST POP GAS CALL ISZERO DUP1 ISZERO PUSH2 0x6D2 JUMPI RETURNDATASIZE PUSH0 PUSH0 RETURNDATACOPY RETURNDATASIZE PUSH0 REVERT JUMPDEST POP POP POP POP PUSH0 PUSH0 SWAP1 SLOAD SWAP1 PUSH2 0x100 EXP SWAP1 DIV PUSH20 0xFFFFFFFFFFFFFFFFFFFFFFFFFFFFFFFFFFFFFFFF AND PUSH20 0xFFFFFFFFFFFFFFFFFFFFFFFFFFFFFFFFFFFFFFFF AND PUSH4 0x4BE9612A DUP4 PUSH1 0x1 SLOAD DUP5 PUSH1 0x40 MLOAD DUP5 PUSH4 0xFFFFFFFF AND PUSH1 0xE0 SHL DUP2 MSTORE PUSH1 0x4 ADD PUSH2 0x735 SWAP4 SWAP3 SWAP2 SWAP1 PUSH2 0xAB6 JUMP JUMPDEST PUSH0 PUSH1 0x40 MLOAD DUP1 DUP4 SUB DUP2 PUSH0 DUP8 DUP1 EXTCODESIZE ISZERO DUP1 ISZERO PUSH2 0x74C JUMPI PUSH0 PUSH0 REVERT JUMPDEST POP GAS CALL SWAP3 POP POP POP DUP1 ISZERO PUSH2 0x75D JUMPI POP PUSH1 0x1 JUMPDEST PUSH2 0x7DE JUMPI PUSH20 0x0 PUSH4 0x39DF137F PUSH1 0x1 PUSH1 0x40 MLOAD DUP3 PUSH4 0xFFFFFFFF AND PUSH1 0xE0 SHL DUP2 MSTORE PUSH1 0x4 ADD PUSH2 0x799 SWAP2 SWAP1 PUSH2 0xE96 JUMP JUMPDEST PUSH1 0x20 PUSH1 0x40 MLOAD DUP1 DUP4 SUB DUP2 DUP7 GAS DELEGATECALL ISZERO DUP1 ISZERO PUSH2 0x7B4 JUMPI RETURNDATASIZE PUSH0 PUSH0 RETURNDATACOPY RETURNDATASIZE PUSH0 REVERT JUMPDEST POP POP POP POP PUSH1 0x40 MLOAD RETURNDATASIZE PUSH1 0x1F NOT PUSH1 0x1F DUP3 ADD AND DUP3 ADD DUP1 PUSH1 0x40 MSTORE POP DUP2 ADD SWAP1 PUSH2 0x7D8 SWAP2 SWAP1 PUSH2 0xBF9 JUMP JUMPDEST POP PUSH2 0x856 JUMP JUMPDEST PUSH20 0x0 PUSH4 0x39DF137F PUSH0 PUSH1 0x40 MLOAD DUP3 PUSH4 0xFFFFFFFF AND PUSH1 0xE0 SHL DUP2 MSTORE PUSH1 0x4 ADD PUSH2 0x815 SWAP2 SWAP1 PUSH2 0xF32 JUMP JUMPDEST PUSH1 0x20 PUSH1 0x40 MLOAD DUP1 DUP4 SUB DUP2 DUP7 GAS DELEGATECALL ISZERO DUP1 ISZERO PUSH2 0x830 JUMPI RETURNDATASIZE PUSH0 PUSH0 RETURNDATACOPY RETURNDATASIZE PUSH0 REVERT JUMPDEST POP POP POP POP PUSH1 0x40 MLOAD RETURNDATASIZE PUSH1 0x1F NOT PUSH1 0x1F DUP3 ADD AND DUP3 ADD DUP1 PUSH1 0x40 MSTORE POP DUP2 ADD SWAP1 PUSH2 0x854 SWAP2 SWAP1 PUSH2 0xBF9 JUMP JUMPDEST POP JUMPDEST POP POP JUMP JUMPDEST PUSH2 0xC9B DUP1 PUSH2 0xF5F DUP4 CODECOPY ADD SWAP1 JUMP JUMPDEST PUSH0 DUP2 SWAP1 POP SWAP2 SWAP1 POP JUMP JUMPDEST PUSH0 DUP2 SWAP1 POP SWAP2 SWAP1 POP JUMP JUMPDEST PUSH2 0x88A PUSH2 0x885 DUP3 PUSH2 0x867 JUMP JUMPDEST PUSH2 0x870 JUMP JUMPDEST DUP3 MSTORE POP POP JUMP JUMPDEST PUSH0 PUSH2 0x89B DUP3 DUP6 PUSH2 0x879 JUMP JUMPDEST PUSH1 0x20 DUP3 ADD SWAP2 POP PUSH2 0x8AB DUP3 DUP5 PUSH2 0x879 JUMP JUMPDEST PUSH1 0x20 DUP3 ADD SWAP2 POP DUP2 SWAP1 POP SWAP4 SWAP3 POP POP POP JUMP JUMPDEST PUSH2 0x8C4 DUP2 PUSH2 0x867 JUMP JUMPDEST DUP3 MSTORE POP POP JUMP JUMPDEST PUSH0 PUSH1 0x20 DUP3 ADD SWAP1 POP PUSH2 0x8DD PUSH0 DUP4 ADD DUP5 PUSH2 0x8BB JUMP JUMPDEST SWAP3 SWAP2 POP POP JUMP JUMPDEST PUSH32 0x4E487B7100000000000000000000000000000000000000000000000000000000 PUSH0 MSTORE PUSH1 0x41 PUSH1 0x4 MSTORE PUSH1 0x24 PUSH0 REVERT JUMPDEST PUSH32 0x4E487B7100000000000000000000000000000000000000000000000000000000 PUSH0 MSTORE PUSH1 0x32 PUSH1 0x4 MSTORE PUSH1 0x24 PUSH0 REVERT JUMPDEST PUSH0 DUP2 SWAP1 POP SWAP3 SWAP2 POP POP JUMP JUMPDEST PUSH32 0x54616A6E6148616B657200000000000000000000000000000000000000000000 PUSH0 DUP3 ADD MSTORE POP JUMP JUMPDEST PUSH0 PUSH2 0x97B PUSH1 0xA DUP4 PUSH2 0x93D JUMP JUMPDEST SWAP2 POP PUSH2 0x986 DUP3 PUSH2 0x947 JUMP JUMPDEST PUSH1 0xA DUP3 ADD SWAP1 POP SWAP2 SWAP1 POP JUMP JUMPDEST PUSH0 PUSH2 0x99B DUP3 PUSH2 0x96F JUMP JUMPDEST SWAP2 POP DUP2 SWAP1 POP SWAP2 SWAP1 POP JUMP JUMPDEST PUSH0 DUP2 MLOAD SWAP1 POP SWAP2 SWAP1 POP JUMP JUMPDEST PUSH0 DUP3 DUP3 MSTORE PUSH1 0x20 DUP3 ADD SWAP1 POP SWAP3 SWAP2 POP POP JUMP JUMPDEST PUSH0 DUP2 SWAP1 POP PUSH1 0x20 DUP3 ADD SWAP1 POP SWAP2 SWAP1 POP JUMP JUMPDEST PUSH2 0x9D7 DUP2 PUSH2 0x867 JUMP JUMPDEST DUP3 MSTORE POP POP JUMP JUMPDEST PUSH0 PUSH2 0x9E8 DUP4 DUP4 PUSH2 0x9CE JUMP JUMPDEST PUSH1 0x20 DUP4 ADD SWAP1 POP SWAP3 SWAP2 POP POP JUMP JUMPDEST PUSH0 PUSH1 0x20 DUP3 ADD SWAP1 POP SWAP2 SWAP1 POP JUMP JUMPDEST PUSH0 PUSH2 0xA0A DUP3 PUSH2 0x9A5 JUMP JUMPDEST PUSH2 0xA14 DUP2 DUP6 PUSH2 0x9AF JUMP JUMPDEST SWAP4 POP PUSH2 0xA1F DUP4 PUSH2 0x9BF JUMP JUMPDEST DUP1 PUSH0 JUMPDEST DUP4 DUP2 LT ISZERO PUSH2 0xA4F JUMPI DUP2 MLOAD PUSH2 0xA36 DUP9 DUP3 PUSH2 0x9DD JUMP JUMPDEST SWAP8 POP PUSH2 0xA41 DUP4 PUSH2 0x9F4 JUMP JUMPDEST SWAP3 POP POP PUSH1 0x1 DUP2 ADD SWAP1 POP PUSH2 0xA22 JUMP JUMPDEST POP DUP6 SWAP4 POP POP POP POP SWAP3 SWAP2 POP POP JUMP JUMPDEST PUSH0 DUP3 DUP3 MSTORE PUSH1 0x20 DUP3 ADD SWAP1 POP SWAP3 SWAP2 POP POP JUMP JUMPDEST PUSH32 0x50756E6F6C6574616E0000000000000000000000000000000000000000000000 PUSH0 DUP3 ADD MSTORE POP JUMP JUMPDEST PUSH0 PUSH2 0xAA0 PUSH1 0x9 DUP4 PUSH2 0xA5C JUMP JUMPDEST SWAP2 POP PUSH2 0xAAB DUP3 PUSH2 0xA6C JUMP JUMPDEST PUSH1 0x20 DUP3 ADD SWAP1 POP SWAP2 SWAP1 POP JUMP JUMPDEST PUSH0 PUSH1 0x80 DUP3 ADD SWAP1 POP DUP2 DUP2 SUB PUSH0 DUP4 ADD MSTORE PUSH2 0xACE DUP2 DUP7 PUSH2 0xA00 JUMP JUMPDEST SWAP1 POP PUSH2 0xADD PUSH1 0x20 DUP4 ADD DUP6 PUSH2 0x8BB JUMP JUMPDEST PUSH2 0xAEA PUSH1 0x40 DUP4 ADD DUP5 PUSH2 0x8BB JUMP JUMPDEST DUP2 DUP2 SUB PUSH1 0x60 DUP4 ADD MSTORE PUSH2 0xAFB DUP2 PUSH2 0xA94 JUMP JUMPDEST SWAP1 POP SWAP5 SWAP4 POP POP POP POP JUMP JUMPDEST PUSH0 DUP2 ISZERO ISZERO SWAP1 POP SWAP2 SWAP1 POP JUMP JUMPDEST PUSH2 0xB19 DUP2 PUSH2 0xB05 JUMP JUMPDEST DUP3 MSTORE POP POP JUMP JUMPDEST PUSH0 DUP3 DUP3 MSTORE PUSH1 0x20 DUP3 ADD SWAP1 POP SWAP3 SWAP2 POP POP JUMP JUMPDEST PUSH32 0x55676F766F72206A652075737065736E6F206F6462696F206E6576616C696461 PUSH0 DUP3 ADD MSTORE PUSH32 0x6E20646F6B617A2E000000000000000000000000000000000000000000000000 PUSH1 0x20 DUP3 ADD MSTORE POP JUMP JUMPDEST PUSH0 PUSH2 0xB89 PUSH1 0x28 DUP4 PUSH2 0xB1F JUMP JUMPDEST SWAP2 POP PUSH2 0xB94 DUP3 PUSH2 0xB2F JUMP JUMPDEST PUSH1 0x40 DUP3 ADD SWAP1 POP SWAP2 SWAP1 POP JUMP JUMPDEST PUSH0 PUSH1 0x40 DUP3 ADD SWAP1 POP PUSH2 0xBB2 PUSH0 DUP4 ADD DUP5 PUSH2 0xB10 JUMP JUMPDEST DUP2 DUP2 SUB PUSH1 0x20 DUP4 ADD MSTORE PUSH2 0xBC3 DUP2 PUSH2 0xB7D JUMP JUMPDEST SWAP1 POP SWAP3 SWAP2 POP POP JUMP JUMPDEST PUSH0 PUSH0 REVERT JUMPDEST PUSH2 0xBD8 DUP2 PUSH2 0xB05 JUMP JUMPDEST DUP2 EQ PUSH2 0xBE2 JUMPI PUSH0 PUSH0 REVERT JUMPDEST POP JUMP JUMPDEST PUSH0 DUP2 MLOAD SWAP1 POP PUSH2 0xBF3 DUP2 PUSH2 0xBCF JUMP JUMPDEST SWAP3 SWAP2 POP POP JUMP JUMPDEST PUSH0 PUSH1 0x20 DUP3 DUP5 SUB SLT ISZERO PUSH2 0xC0E JUMPI PUSH2 0xC0D PUSH2 0xBCB JUMP JUMPDEST JUMPDEST PUSH0 PUSH2 0xC1B DUP5 DUP3 DUP6 ADD PUSH2 0xBE5 JUMP JUMPDEST SWAP2 POP POP SWAP3 SWAP2 POP POP JUMP JUMPDEST PUSH32 0x55676F766F72206A652074726562616C6F206461206F6462696A65206E657661 PUSH0 DUP3 ADD MSTORE PUSH32 0x6C6964616E20646F6B617A210000000000000000000000000000000000000000 PUSH1 0x20 DUP3 ADD MSTORE POP JUMP JUMPDEST PUSH0 PUSH2 0xC7E PUSH1 0x2C DUP4 PUSH2 0xB1F JUMP JUMPDEST SWAP2 POP PUSH2 0xC89 DUP3 PUSH2 0xC24 JUMP JUMPDEST PUSH1 0x40 DUP3 ADD SWAP1 POP SWAP2 SWAP1 POP JUMP JUMPDEST PUSH0 PUSH1 0x40 DUP3 ADD SWAP1 POP PUSH2 0xCA7 PUSH0 DUP4 ADD DUP5 PUSH2 0xB10 JUMP JUMPDEST DUP2 DUP2 SUB PUSH1 0x20 DUP4 ADD MSTORE PUSH2 0xCB8 DUP2 PUSH2 0xC72 JUMP JUMPDEST SWAP1 POP SWAP3 SWAP2 POP POP JUMP JUMPDEST PUSH32 0x54616A6E61410000000000000000000000000000000000000000000000000000 PUSH0 DUP3 ADD MSTORE POP JUMP JUMPDEST PUSH0 PUSH2 0xCF4 PUSH1 0x6 DUP4 PUSH2 0x93D JUMP JUMPDEST SWAP2 POP PUSH2 0xCFF DUP3 PUSH2 0xCC0 JUMP JUMPDEST PUSH1 0x6 DUP3 ADD SWAP1 POP SWAP2 SWAP1 POP JUMP JUMPDEST PUSH0 PUSH2 0xD14 DUP3 PUSH2 0xCE8 JUMP JUMPDEST SWAP2 POP DUP2 SWAP1 POP SWAP2 SWAP1 POP JUMP JUMPDEST PUSH32 0x4E756C6C6966696572206A652074726562616C6F20646120627564652069736B PUSH0 DUP3 ADD MSTORE PUSH32 0x6F72697363656E2E000000000000000000000000000000000000000000000000 PUSH1 0x20 DUP3 ADD MSTORE POP JUMP JUMPDEST PUSH0 PUSH2 0xD78 PUSH1 0x28 DUP4 PUSH2 0xB1F JUMP JUMPDEST SWAP2 POP PUSH2 0xD83 DUP3 PUSH2 0xD1E JUMP JUMPDEST PUSH1 0x40 DUP3 ADD SWAP1 POP SWAP2 SWAP1 POP JUMP JUMPDEST PUSH0 PUSH1 0x60 DUP3 ADD SWAP1 POP PUSH2 0xDA1 PUSH0 DUP4 ADD DUP6 PUSH2 0xB10 JUMP JUMPDEST PUSH2 0xDAE PUSH1 0x20 DUP4 ADD DUP5 PUSH2 0xB10 JUMP JUMPDEST DUP2 DUP2 SUB PUSH1 0x40 DUP4 ADD MSTORE PUSH2 0xDBF DUP2 PUSH2 0xD6C JUMP JUMPDEST SWAP1 POP SWAP4 SWAP3 POP POP POP JUMP JUMPDEST PUSH32 0x54616A6E61497374610000000000000000000000000000000000000000000000 PUSH0 DUP3 ADD MSTORE POP JUMP JUMPDEST PUSH0 PUSH2 0xDFC PUSH1 0x9 DUP4 PUSH2 0x93D JUMP JUMPDEST SWAP2 POP PUSH2 0xE07 DUP3 PUSH2 0xDC8 JUMP JUMPDEST PUSH1 0x9 DUP3 ADD SWAP1 POP SWAP2 SWAP1 POP JUMP JUMPDEST PUSH0 PUSH2 0xE1C DUP3 PUSH2 0xDF0 JUMP JUMPDEST SWAP2 POP DUP2 SWAP1 POP SWAP2 SWAP1 POP JUMP JUMPDEST PUSH32 0x55676F766F72206A652075737065736E6F207370726563696F20706F6E6F766E PUSH0 DUP3 ADD MSTORE PUSH32 0x752075706F7472656275206B6F64612E00000000000000000000000000000000 PUSH1 0x20 DUP3 ADD MSTORE POP JUMP JUMPDEST PUSH0 PUSH2 0xE80 PUSH1 0x30 DUP4 PUSH2 0xB1F JUMP JUMPDEST SWAP2 POP PUSH2 0xE8B DUP3 PUSH2 0xE26 JUMP JUMPDEST PUSH1 0x40 DUP3 ADD SWAP1 POP SWAP2 SWAP1 POP JUMP JUMPDEST PUSH0 PUSH1 0x40 DUP3 ADD SWAP1 POP PUSH2 0xEA9 PUSH0 DUP4 ADD DUP5 PUSH2 0xB10 JUMP JUMPDEST DUP2 DUP2 SUB PUSH1 0x20 DUP4 ADD MSTORE PUSH2 0xEBA DUP2 PUSH2 0xE74 JUMP JUMPDEST SWAP1 POP SWAP3 SWAP2 POP POP JUMP JUMPDEST PUSH32 0x55676F766F72206A652074726562616C6F206461206F6462696A6520706F6E6F PUSH0 DUP3 ADD MSTORE PUSH32 0x766E752075706F7472656275206973746F67206E756C6C69666965722D612100 PUSH1 0x20 DUP3 ADD MSTORE POP JUMP JUMPDEST PUSH0 PUSH2 0xF1C PUSH1 0x3F DUP4 PUSH2 0xB1F JUMP JUMPDEST SWAP2 POP PUSH2 0xF27 DUP3 PUSH2 0xEC2 JUMP JUMPDEST PUSH1 0x40 DUP3 ADD SWAP1 POP SWAP2 SWAP1 POP JUMP JUMPDEST PUSH0 PUSH1 0x40 DUP3 ADD SWAP1 POP PUSH2 0xF45 PUSH0 DUP4 ADD DUP5 PUSH2 0xB10 JUMP JUMPDEST DUP2 DUP2 SUB PUSH1 0x20 DUP4 ADD MSTORE PUSH2 0xF56 DUP2 PUSH2 0xF10 JUMP JUMPDEST SWAP1 POP SWAP3 SWAP2 POP POP JUMP INVALID PUSH1 0x80 PUSH1 0x40 MSTORE CALLVALUE DUP1 ISZERO PUSH1 0xE JUMPI PUSH0 PUSH0 REVERT JUMPDEST POP PUSH1 0x40 MLOAD PUSH2 0xC9B CODESIZE SUB DUP1 PUSH2 0xC9B DUP4 CODECOPY DUP2 DUP2 ADD PUSH1 0x40 MSTORE DUP2 ADD SWAP1 PUSH1 0x2E SWAP2 SWAP1 PUSH1 0xAB JUMP JUMPDEST CALLER PUSH0 PUSH0 PUSH2 0x100 EXP DUP2 SLOAD DUP2 PUSH20 0xFFFFFFFFFFFFFFFFFFFFFFFFFFFFFFFFFFFFFFFF MUL NOT AND SWAP1 DUP4 PUSH20 0xFFFFFFFFFFFFFFFFFFFFFFFFFFFFFFFFFFFFFFFF AND MUL OR SWAP1 SSTORE POP DUP1 PUSH1 0x1 DUP2 SWAP1 SSTORE POP POP PUSH1 0xD1 JUMP JUMPDEST PUSH0 PUSH0 REVERT JUMPDEST PUSH0 DUP2 SWAP1 POP SWAP2 SWAP1 POP JUMP JUMPDEST PUSH1 0x8D DUP2 PUSH1 0x7D JUMP JUMPDEST DUP2 EQ PUSH1 0x96 JUMPI PUSH0 PUSH0 REVERT JUMPDEST POP JUMP JUMPDEST PUSH0 DUP2 MLOAD SWAP1 POP PUSH1 0xA5 DUP2 PUSH1 0x86 JUMP JUMPDEST SWAP3 SWAP2 POP POP JUMP JUMPDEST PUSH0 PUSH1 0x20 DUP3 DUP5 SUB SLT ISZERO PUSH1 0xBD JUMPI PUSH1 0xBC PUSH1 0x79 JUMP JUMPDEST JUMPDEST PUSH0 PUSH1 0xC8 DUP5 DUP3 DUP6 ADD PUSH1 0x99 JUMP JUMPDEST SWAP2 POP POP SWAP3 SWAP2 POP POP JUMP JUMPDEST PUSH2 0xBBD DUP1 PUSH2 0xDE PUSH0 CODECOPY PUSH0 RETURN INVALID PUSH1 0x80 PUSH1 0x40 MSTORE CALLVALUE DUP1 ISZERO PUSH2 0xF JUMPI PUSH0 PUSH0 REVERT JUMPDEST POP PUSH1 0x4 CALLDATASIZE LT PUSH2 0x55 JUMPI PUSH0 CALLDATALOAD PUSH1 0xE0 SHR DUP1 PUSH4 0x2997E86B EQ PUSH2 0x59 JUMPI DUP1 PUSH4 0x2EB4A7AB EQ PUSH2 0x89 JUMPI DUP1 PUSH4 0x4783F0EF EQ PUSH2 0xA7 JUMPI DUP1 PUSH4 0x4BE9612A EQ PUSH2 0xC3 JUMPI DUP1 PUSH4 0xF851A440 EQ PUSH2 0xDF JUMPI JUMPDEST PUSH0 PUSH0 REVERT JUMPDEST PUSH2 0x73 PUSH1 0x4 DUP1 CALLDATASIZE SUB DUP2 ADD SWAP1 PUSH2 0x6E SWAP2 SWAP1 PUSH2 0x49B JUMP JUMPDEST PUSH2 0xFD JUMP JUMPDEST PUSH1 0x40 MLOAD PUSH2 0x80 SWAP2 SWAP1 PUSH2 0x4E0 JUMP JUMPDEST PUSH1 0x40 MLOAD DUP1 SWAP2 SUB SWAP1 RETURN JUMPDEST PUSH2 0x91 PUSH2 0x11A JUMP JUMPDEST PUSH1 0x40 MLOAD PUSH2 0x9E SWAP2 SWAP1 PUSH2 0x508 JUMP JUMPDEST PUSH1 0x40 MLOAD DUP1 SWAP2 SUB SWAP1 RETURN JUMPDEST PUSH2 0xC1 PUSH1 0x4 DUP1 CALLDATASIZE SUB DUP2 ADD SWAP1 PUSH2 0xBC SWAP2 SWAP1 PUSH2 0x49B JUMP JUMPDEST PUSH2 0x120 JUMP JUMPDEST STOP JUMPDEST PUSH2 0xDD PUSH1 0x4 DUP1 CALLDATASIZE SUB DUP2 ADD SWAP1 PUSH2 0xD8 SWAP2 SWAP1 PUSH2 0x721 JUMP JUMPDEST PUSH2 0x1EF JUMP JUMPDEST STOP JUMPDEST PUSH2 0xE7 PUSH2 0x433 JUMP JUMPDEST PUSH1 0x40 MLOAD PUSH2 0xF4 SWAP2 SWAP1 PUSH2 0x7FC JUMP JUMPDEST PUSH1 0x40 MLOAD DUP1 SWAP2 SUB SWAP1 RETURN JUMPDEST PUSH1 0x2 PUSH1 0x20 MSTORE DUP1 PUSH0 MSTORE PUSH1 0x40 PUSH0 KECCAK256 PUSH0 SWAP2 POP SLOAD SWAP1 PUSH2 0x100 EXP SWAP1 DIV PUSH1 0xFF AND DUP2 JUMP JUMPDEST PUSH1 0x1 SLOAD DUP2 JUMP JUMPDEST PUSH0 PUSH0 SWAP1 SLOAD SWAP1 PUSH2 0x100 EXP SWAP1 DIV PUSH20 0xFFFFFFFFFFFFFFFFFFFFFFFFFFFFFFFFFFFFFFFF AND PUSH20 0xFFFFFFFFFFFFFFFFFFFFFFFFFFFFFFFFFFFFFFFF AND CALLER PUSH20 0xFFFFFFFFFFFFFFFFFFFFFFFFFFFFFFFFFFFFFFFF AND EQ PUSH2 0x1AE JUMPI PUSH1 0x40 MLOAD PUSH32 0x8C379A000000000000000000000000000000000000000000000000000000000 DUP2 MSTORE PUSH1 0x4 ADD PUSH2 0x1A5 SWAP1 PUSH2 0x895 JUMP JUMPDEST PUSH1 0x40 MLOAD DUP1 SWAP2 SUB SWAP1 REVERT JUMPDEST DUP1 PUSH1 0x1 DUP2 SWAP1 SSTORE POP PUSH32 0x2CBC14F49C068133583F7CB530018AF451C87C1CF1327CF2A4FF4698C4730AA4 DUP2 PUSH1 0x40 MLOAD PUSH2 0x1E4 SWAP2 SWAP1 PUSH2 0x508 JUMP JUMPDEST PUSH1 0x40 MLOAD DUP1 SWAP2 SUB SWAP1 LOG1 POP JUMP JUMPDEST PUSH1 0x2 PUSH0 DUP4 DUP2 MSTORE PUSH1 0x20 ADD SWAP1 DUP2 MSTORE PUSH1 0x20 ADD PUSH0 KECCAK256 PUSH0 SWAP1 SLOAD SWAP1 PUSH2 0x100 EXP SWAP1 DIV PUSH1 0xFF AND ISZERO PUSH2 0x2A6 JUMPI PUSH32 0xFAFCAC45BF99968F40BE690E72DEA3B27DDEDBDB14ACFF7FEB06A15CB5D55718 PUSH1 0x40 MLOAD PUSH2 0x23F SWAP1 PUSH2 0x923 JUMP JUMPDEST PUSH1 0x40 MLOAD DUP1 SWAP2 SUB SWAP1 LOG1 PUSH1 0x2 PUSH0 DUP4 DUP2 MSTORE PUSH1 0x20 ADD SWAP1 DUP2 MSTORE PUSH1 0x20 ADD PUSH0 KECCAK256 PUSH0 SWAP1 SLOAD SWAP1 PUSH2 0x100 EXP SWAP1 DIV PUSH1 0xFF AND ISZERO PUSH2 0x2A5 JUMPI PUSH1 0x40 MLOAD PUSH32 0x8C379A000000000000000000000000000000000000000000000000000000000 DUP2 MSTORE PUSH1 0x4 ADD PUSH2 0x29C SWAP1 PUSH2 0x98B JUMP JUMPDEST PUSH1 0x40 MLOAD DUP1 SWAP2 SUB SWAP1 REVERT JUMPDEST JUMPDEST PUSH0 DUP4 SWAP1 POP PUSH0 PUSH0 SWAP1 POP JUMPDEST DUP6 MLOAD DUP2 LT ISZERO PUSH2 0x347 JUMPI PUSH0 DUP7 DUP3 DUP2 MLOAD DUP2 LT PUSH2 0x2CC JUMPI PUSH2 0x2CB PUSH2 0x9A9 JUMP JUMPDEST JUMPDEST PUSH1 0x20 MUL PUSH1 0x20 ADD ADD MLOAD SWAP1 POP DUP1 DUP4 GT PUSH2 0x30D JUMPI DUP3 DUP2 PUSH1 0x40 MLOAD PUSH1 0x20 ADD PUSH2 0x2F0 SWAP3 SWAP2 SWAP1 PUSH2 0x9F6 JUMP JUMPDEST PUSH1 0x40 MLOAD PUSH1 0x20 DUP2 DUP4 SUB SUB DUP2 MSTORE SWAP1 PUSH1 0x40 MSTORE DUP1 MLOAD SWAP1 PUSH1 0x20 ADD KECCAK256 SWAP3 POP PUSH2 0x339 JUMP JUMPDEST DUP1 DUP4 PUSH1 0x40 MLOAD PUSH1 0x20 ADD PUSH2 0x320 SWAP3 SWAP2 SWAP1 PUSH2 0x9F6 JUMP JUMPDEST PUSH1 0x40 MLOAD PUSH1 0x20 DUP2 DUP4 SUB SUB DUP2 MSTORE SWAP1 PUSH1 0x40 MSTORE DUP1 MLOAD SWAP1 PUSH1 0x20 ADD KECCAK256 SWAP3 POP JUMPDEST POP DUP1 DUP1 PUSH1 0x1 ADD SWAP2 POP POP PUSH2 0x2AF JUMP JUMPDEST POP PUSH1 0x1 SLOAD DUP2 EQ PUSH2 0x3CB JUMPI PUSH32 0xFAFCAC45BF99968F40BE690E72DEA3B27DDEDBDB14ACFF7FEB06A15CB5D55718 PUSH1 0x40 MLOAD PUSH2 0x37E SWAP1 PUSH2 0xA91 JUMP JUMPDEST PUSH1 0x40 MLOAD DUP1 SWAP2 SUB SWAP1 LOG1 PUSH1 0x1 SLOAD DUP2 EQ PUSH2 0x3CA JUMPI PUSH1 0x40 MLOAD PUSH32 0x8C379A000000000000000000000000000000000000000000000000000000000 DUP2 MSTORE PUSH1 0x4 ADD PUSH2 0x3C1 SWAP1 PUSH2 0xAF9 JUMP JUMPDEST PUSH1 0x40 MLOAD DUP1 SWAP2 SUB SWAP1 REVERT JUMPDEST JUMPDEST PUSH1 0x1 PUSH1 0x2 PUSH0 DUP6 DUP2 MSTORE PUSH1 0x20 ADD SWAP1 DUP2 MSTORE PUSH1 0x20 ADD PUSH0 KECCAK256 PUSH0 PUSH2 0x100 EXP DUP2 SLOAD DUP2 PUSH1 0xFF MUL NOT AND SWAP1 DUP4 ISZERO ISZERO MUL OR SWAP1 SSTORE POP DUP3 PUSH32 0x647B8E85C4BA0F20948FACE8B6569B60F76112F6F19E33887385D43014051871 DUP4 PUSH1 0x40 MLOAD PUSH2 0x424 SWAP2 SWAP1 PUSH2 0xB67 JUMP JUMPDEST PUSH1 0x40 MLOAD DUP1 SWAP2 SUB SWAP1 LOG2 POP POP POP POP POP JUMP JUMPDEST PUSH0 PUSH0 SWAP1 SLOAD SWAP1 PUSH2 0x100 EXP SWAP1 DIV PUSH20 0xFFFFFFFFFFFFFFFFFFFFFFFFFFFFFFFFFFFFFFFF AND DUP2 JUMP JUMPDEST PUSH0 PUSH1 0x40 MLOAD SWAP1 POP SWAP1 JUMP JUMPDEST PUSH0 PUSH0 REVERT JUMPDEST PUSH0 PUSH0 REVERT JUMPDEST PUSH0 DUP2 SWAP1 POP SWAP2 SWAP1 POP JUMP JUMPDEST PUSH2 0x47A DUP2 PUSH2 0x468 JUMP JUMPDEST DUP2 EQ PUSH2 0x484 JUMPI PUSH0 PUSH0 REVERT JUMPDEST POP JUMP JUMPDEST PUSH0 DUP2 CALLDATALOAD SWAP1 POP PUSH2 0x495 DUP2 PUSH2 0x471 JUMP JUMPDEST SWAP3 SWAP2 POP POP JUMP JUMPDEST PUSH0 PUSH1 0x20 DUP3 DUP5 SUB SLT ISZERO PUSH2 0x4B0 JUMPI PUSH2 0x4AF PUSH2 0x460 JUMP JUMPDEST JUMPDEST PUSH0 PUSH2 0x4BD DUP5 DUP3 DUP6 ADD PUSH2 0x487 JUMP JUMPDEST SWAP2 POP POP SWAP3 SWAP2 POP POP JUMP JUMPDEST PUSH0 DUP2 ISZERO ISZERO SWAP1 POP SWAP2 SWAP1 POP JUMP JUMPDEST PUSH2 0x4DA DUP2 PUSH2 0x4C6 JUMP JUMPDEST DUP3 MSTORE POP POP JUMP JUMPDEST PUSH0 PUSH1 0x20 DUP3 ADD SWAP1 POP PUSH2 0x4F3 PUSH0 DUP4 ADD DUP5 PUSH2 0x4D1 JUMP JUMPDEST SWAP3 SWAP2 POP POP JUMP JUMPDEST PUSH2 0x502 DUP2 PUSH2 0x468 JUMP JUMPDEST DUP3 MSTORE POP POP JUMP JUMPDEST PUSH0 PUSH1 0x20 DUP3 ADD SWAP1 POP PUSH2 0x51B PUSH0 DUP4 ADD DUP5 PUSH2 0x4F9 JUMP JUMPDEST SWAP3 SWAP2 POP POP JUMP JUMPDEST PUSH0 PUSH0 REVERT JUMPDEST PUSH0 PUSH1 0x1F NOT PUSH1 0x1F DUP4 ADD AND SWAP1 POP SWAP2 SWAP1 POP JUMP JUMPDEST PUSH32 0x4E487B7100000000000000000000000000000000000000000000000000000000 PUSH0 MSTORE PUSH1 0x41 PUSH1 0x4 MSTORE PUSH1 0x24 PUSH0 REVERT JUMPDEST PUSH2 0x56B DUP3 PUSH2 0x525 JUMP JUMPDEST DUP2 ADD DUP2 DUP2 LT PUSH8 0xFFFFFFFFFFFFFFFF DUP3 GT OR ISZERO PUSH2 0x58A JUMPI PUSH2 0x589 PUSH2 0x535 JUMP JUMPDEST JUMPDEST DUP1 PUSH1 0x40 MSTORE POP POP POP JUMP JUMPDEST PUSH0 PUSH2 0x59C PUSH2 0x457 JUMP JUMPDEST SWAP1 POP PUSH2 0x5A8 DUP3 DUP3 PUSH2 0x562 JUMP JUMPDEST SWAP2 SWAP1 POP JUMP JUMPDEST PUSH0 PUSH8 0xFFFFFFFFFFFFFFFF DUP3 GT ISZERO PUSH2 0x5C7 JUMPI PUSH2 0x5C6 PUSH2 0x535 JUMP JUMPDEST JUMPDEST PUSH1 0x20 DUP3 MUL SWAP1 POP PUSH1 0x20 DUP2 ADD SWAP1 POP SWAP2 SWAP1 POP JUMP JUMPDEST PUSH0 PUSH0 REVERT JUMPDEST PUSH0 PUSH2 0x5EE PUSH2 0x5E9 DUP5 PUSH2 0x5AD JUMP JUMPDEST PUSH2 0x593 JUMP JUMPDEST SWAP1 POP DUP1 DUP4 DUP3 MSTORE PUSH1 0x20 DUP3 ADD SWAP1 POP PUSH1 0x20 DUP5 MUL DUP4 ADD DUP6 DUP2 GT ISZERO PUSH2 0x611 JUMPI PUSH2 0x610 PUSH2 0x5D8 JUMP JUMPDEST JUMPDEST DUP4 JUMPDEST DUP2 DUP2 LT ISZERO PUSH2 0x63A JUMPI DUP1 PUSH2 0x626 DUP9 DUP3 PUSH2 0x487 JUMP JUMPDEST DUP5 MSTORE PUSH1 0x20 DUP5 ADD SWAP4 POP POP PUSH1 0x20 DUP2 ADD SWAP1 POP PUSH2 0x613 JUMP JUMPDEST POP POP POP SWAP4 SWAP3 POP POP POP JUMP JUMPDEST PUSH0 DUP3 PUSH1 0x1F DUP4 ADD SLT PUSH2 0x658 JUMPI PUSH2 0x657 PUSH2 0x521 JUMP JUMPDEST JUMPDEST DUP2 CALLDATALOAD PUSH2 0x668 DUP5 DUP3 PUSH1 0x20 DUP7 ADD PUSH2 0x5DC JUMP JUMPDEST SWAP2 POP POP SWAP3 SWAP2 POP POP JUMP JUMPDEST PUSH0 PUSH0 REVERT JUMPDEST PUSH0 PUSH8 0xFFFFFFFFFFFFFFFF DUP3 GT ISZERO PUSH2 0x68F JUMPI PUSH2 0x68E PUSH2 0x535 JUMP JUMPDEST JUMPDEST PUSH2 0x698 DUP3 PUSH2 0x525 JUMP JUMPDEST SWAP1 POP PUSH1 0x20 DUP2 ADD SWAP1 POP SWAP2 SWAP1 POP JUMP JUMPDEST DUP3 DUP2 DUP4 CALLDATACOPY PUSH0 DUP4 DUP4 ADD MSTORE POP POP POP JUMP JUMPDEST PUSH0 PUSH2 0x6C5 PUSH2 0x6C0 DUP5 PUSH2 0x675 JUMP JUMPDEST PUSH2 0x593 JUMP JUMPDEST SWAP1 POP DUP3 DUP2 MSTORE PUSH1 0x20 DUP2 ADD DUP5 DUP5 DUP5 ADD GT ISZERO PUSH2 0x6E1 JUMPI PUSH2 0x6E0 PUSH2 0x671 JUMP JUMPDEST JUMPDEST PUSH2 0x6EC DUP5 DUP3 DUP6 PUSH2 0x6A5 JUMP JUMPDEST POP SWAP4 SWAP3 POP POP POP JUMP JUMPDEST PUSH0 DUP3 PUSH1 0x1F DUP4 ADD SLT PUSH2 0x708 JUMPI PUSH2 0x707 PUSH2 0x521 JUMP JUMPDEST JUMPDEST DUP2 CALLDATALOAD PUSH2 0x718 DUP5 DUP3 PUSH1 0x20 DUP7 ADD PUSH2 0x6B3 JUMP JUMPDEST SWAP2 POP POP SWAP3 SWAP2 POP POP JUMP JUMPDEST PUSH0 PUSH0 PUSH0 PUSH0 PUSH1 0x80 DUP6 DUP8 SUB SLT ISZERO PUSH2 0x739 JUMPI PUSH2 0x738 PUSH2 0x460 JUMP JUMPDEST JUMPDEST PUSH0 DUP6 ADD CALLDATALOAD PUSH8 0xFFFFFFFFFFFFFFFF DUP2 GT ISZERO PUSH2 0x756 JUMPI PUSH2 0x755 PUSH2 0x464 JUMP JUMPDEST JUMPDEST PUSH2 0x762 DUP8 DUP3 DUP9 ADD PUSH2 0x644 JUMP JUMPDEST SWAP5 POP POP PUSH1 0x20 PUSH2 0x773 DUP8 DUP3 DUP9 ADD PUSH2 0x487 JUMP JUMPDEST SWAP4 POP POP PUSH1 0x40 PUSH2 0x784 DUP8 DUP3 DUP9 ADD PUSH2 0x487 JUMP JUMPDEST SWAP3 POP POP PUSH1 0x60 DUP6 ADD CALLDATALOAD PUSH8 0xFFFFFFFFFFFFFFFF DUP2 GT ISZERO PUSH2 0x7A5 JUMPI PUSH2 0x7A4 PUSH2 0x464 JUMP JUMPDEST JUMPDEST PUSH2 0x7B1 DUP8 DUP3 DUP9 ADD PUSH2 0x6F4 JUMP JUMPDEST SWAP2 POP POP SWAP3 SWAP6 SWAP2 SWAP5 POP SWAP3 POP JUMP JUMPDEST PUSH0 PUSH20 0xFFFFFFFFFFFFFFFFFFFFFFFFFFFFFFFFFFFFFFFF DUP3 AND SWAP1 POP SWAP2 SWAP1 POP JUMP JUMPDEST PUSH0 PUSH2 0x7E6 DUP3 PUSH2 0x7BD JUMP JUMPDEST SWAP1 POP SWAP2 SWAP1 POP JUMP JUMPDEST PUSH2 0x7F6 DUP2 PUSH2 0x7DC JUMP JUMPDEST DUP3 MSTORE POP POP JUMP JUMPDEST PUSH0 PUSH1 0x20 DUP3 ADD SWAP1 POP PUSH2 0x80F PUSH0 DUP4 ADD DUP5 PUSH2 0x7ED JUMP JUMPDEST SWAP3 SWAP2 POP POP JUMP JUMPDEST PUSH0 DUP3 DUP3 MSTORE PUSH1 0x20 DUP3 ADD SWAP1 POP SWAP3 SWAP2 POP POP JUMP JUMPDEST PUSH32 0x53616D6F2061646D696E6973747261746F72206D6F7A6520697A767273697469 PUSH0 DUP3 ADD MSTORE PUSH32 0x206F76752066756E6B63696A7500000000000000000000000000000000000000 PUSH1 0x20 DUP3 ADD MSTORE POP JUMP JUMPDEST PUSH0 PUSH2 0x87F PUSH1 0x2D DUP4 PUSH2 0x815 JUMP JUMPDEST SWAP2 POP PUSH2 0x88A DUP3 PUSH2 0x825 JUMP JUMPDEST PUSH1 0x40 DUP3 ADD SWAP1 POP SWAP2 SWAP1 POP JUMP JUMPDEST PUSH0 PUSH1 0x20 DUP3 ADD SWAP1 POP DUP2 DUP2 SUB PUSH0 DUP4 ADD MSTORE PUSH2 0x8AC DUP2 PUSH2 0x873 JUMP JUMPDEST SWAP1 POP SWAP2 SWAP1 POP JUMP JUMPDEST PUSH32 0x4F76616A20646F6B617A206A6520766563206A65646E6F6D2069736B6F726973 PUSH0 DUP3 ADD MSTORE PUSH32 0x63656E20284E756C6C69666965722069736B6F72697363656E29210000000000 PUSH1 0x20 DUP3 ADD MSTORE POP JUMP JUMPDEST PUSH0 PUSH2 0x90D PUSH1 0x3B DUP4 PUSH2 0x815 JUMP JUMPDEST SWAP2 POP PUSH2 0x918 DUP3 PUSH2 0x8B3 JUMP JUMPDEST PUSH1 0x40 DUP3 ADD SWAP1 POP SWAP2 SWAP1 POP JUMP JUMPDEST PUSH0 PUSH1 0x20 DUP3 ADD SWAP1 POP DUP2 DUP2 SUB PUSH0 DUP4 ADD MSTORE PUSH2 0x93A DUP2 PUSH2 0x901 JUMP JUMPDEST SWAP1 POP SWAP2 SWAP1 POP JUMP JUMPDEST PUSH32 0x446F6B617A206A65207665632069736B6F72697363656E210000000000000000 PUSH0 DUP3 ADD MSTORE POP JUMP JUMPDEST PUSH0 PUSH2 0x975 PUSH1 0x18 DUP4 PUSH2 0x815 JUMP JUMPDEST SWAP2 POP PUSH2 0x980 DUP3 PUSH2 0x941 JUMP JUMPDEST PUSH1 0x20 DUP3 ADD SWAP1 POP SWAP2 SWAP1 POP JUMP JUMPDEST PUSH0 PUSH1 0x20 DUP3 ADD SWAP1 POP DUP2 DUP2 SUB PUSH0 DUP4 ADD MSTORE PUSH2 0x9A2 DUP2 PUSH2 0x969 JUMP JUMPDEST SWAP1 POP SWAP2 SWAP1 POP JUMP JUMPDEST PUSH32 0x4E487B7100000000000000000000000000000000000000000000000000000000 PUSH0 MSTORE PUSH1 0x32 PUSH1 0x4 MSTORE PUSH1 0x24 PUSH0 REVERT JUMPDEST PUSH0 DUP2 SWAP1 POP SWAP2 SWAP1 POP JUMP JUMPDEST PUSH2 0x9F0 PUSH2 0x9EB DUP3 PUSH2 0x468 JUMP JUMPDEST PUSH2 0x9D6 JUMP JUMPDEST DUP3 MSTORE POP POP JUMP JUMPDEST PUSH0 PUSH2 0xA01 DUP3 DUP6 PUSH2 0x9DF JUMP JUMPDEST PUSH1 0x20 DUP3 ADD SWAP2 POP PUSH2 0xA11 DUP3 DUP5 PUSH2 0x9DF JUMP JUMPDEST PUSH1 0x20 DUP3 ADD SWAP2 POP DUP2 SWAP1 POP SWAP4 SWAP3 POP POP POP JUMP JUMPDEST PUSH32 0x4B726970746F67726166736B6920646F6B617A206E696A652076616C6964616E PUSH0 DUP3 ADD MSTORE PUSH32 0x21204E6973746520636C616E20736B7570612E00000000000000000000000000 PUSH1 0x20 DUP3 ADD MSTORE POP JUMP JUMPDEST PUSH0 PUSH2 0xA7B PUSH1 0x33 DUP4 PUSH2 0x815 JUMP JUMPDEST SWAP2 POP PUSH2 0xA86 DUP3 PUSH2 0xA21 JUMP JUMPDEST PUSH1 0x40 DUP3 ADD SWAP1 POP SWAP2 SWAP1 POP JUMP JUMPDEST PUSH0 PUSH1 0x20 DUP3 ADD SWAP1 POP DUP2 DUP2 SUB PUSH0 DUP4 ADD MSTORE PUSH2 0xAA8 DUP2 PUSH2 0xA6F JUMP JUMPDEST SWAP1 POP SWAP2 SWAP1 POP JUMP JUMPDEST PUSH32 0x4E6973746520636C616E206F766C617363656E6F6720736B7570612100000000 PUSH0 DUP3 ADD MSTORE POP JUMP JUMPDEST PUSH0 PUSH2 0xAE3 PUSH1 0x1C DUP4 PUSH2 0x815 JUMP JUMPDEST SWAP2 POP PUSH2 0xAEE DUP3 PUSH2 0xAAF JUMP JUMPDEST PUSH1 0x20 DUP3 ADD SWAP1 POP SWAP2 SWAP1 POP JUMP JUMPDEST PUSH0 PUSH1 0x20 DUP3 ADD SWAP1 POP DUP2 DUP2 SUB PUSH0 DUP4 ADD MSTORE PUSH2 0xB10 DUP2 PUSH2 0xAD7 JUMP JUMPDEST SWAP1 POP SWAP2 SWAP1 POP JUMP JUMPDEST PUSH0 DUP2 MLOAD SWAP1 POP SWAP2 SWAP1 POP JUMP JUMPDEST DUP3 DUP2 DUP4 MCOPY PUSH0 DUP4 DUP4 ADD MSTORE POP POP POP JUMP JUMPDEST PUSH0 PUSH2 0xB39 DUP3 PUSH2 0xB17 JUMP JUMPDEST PUSH2 0xB43 DUP2 DUP6 PUSH2 0x815 JUMP JUMPDEST SWAP4 POP PUSH2 0xB53 DUP2 DUP6 PUSH1 0x20 DUP7 ADD PUSH2 0xB21 JUMP JUMPDEST PUSH2 0xB5C DUP2 PUSH2 0x525 JUMP JUMPDEST DUP5 ADD SWAP2 POP POP SWAP3 SWAP2 POP POP JUMP JUMPDEST PUSH0 PUSH1 0x20 DUP3 ADD SWAP1 POP DUP2 DUP2 SUB PUSH0 DUP4 ADD MSTORE PUSH2 0xB7F DUP2 DUP5 PUSH2 0xB2F JUMP JUMPDEST SWAP1 POP SWAP3 SWAP2 POP POP JUMP INVALID LOG2 PUSH5 0x6970667358 0x22 SLT KECCAK256 PUSH31 0x3CE193B84CEDC823930C3D183C703F7680A81E334E8A64F54AD249ADDBEAC3 PUSH5 0x736F6C6343 STOP ADDMOD 0x22 STOP CALLER LOG2 PUSH5 0x6970667358 0x22 SLT KECCAK256 CALLDATACOPY SWAP1 0xBD JUMPI CALLDATASIZE REVERT CODECOPY SWAP2 BASEFEE ADD PUSH17 0xEC2D0527340586BCC15813C0EFE2F7C8E0 0xA6 0xEB BLOBBASEFEE PUSH17 0x64736F6C63430008220033000000000000 "
		},
		"gasEstimates": {
			"creation": {
				"codeDepositCost": "1443000",
				"executionCost": "infinite",
				"totalCost": "infinite"
			},
			"external": {
				"beforeEach()": "infinite",
				"testDoubleSpendingPrevention()": "infinite",
				"testInvalidProof()": "infinite",
				"testValidProof()": "infinite"
			}
		},
		"methodIdentifiers": {
			"beforeEach()": "6331e7d4",
			"testDoubleSpendingPrevention()": "e86964b2",
			"testInvalidProof()": "93096852",
			"testValidProof()": "c97d4cd4"
		}
	},
	"abi": [
		{
			"inputs": [],
			"name": "beforeEach",
			"outputs": [],
			"stateMutability": "nonpayable",
			"type": "function"
		},
		{
			"inputs": [],
			"name": "testDoubleSpendingPrevention",
			"outputs": [],
			"stateMutability": "nonpayable",
			"type": "function"
		},
		{
			"inputs": [],
			"name": "testInvalidProof",
			"outputs": [],
			"stateMutability": "nonpayable",
			"type": "function"
		},
		{
			"inputs": [],
			"name": "testValidProof",
			"outputs": [],
			"stateMutability": "nonpayable",
			"type": "function"
		}
	]
}